:100000000C9426010C944F130C9480130C94B11390
:100010000C94E2130C9413140C9444140C94751463
:100020000C94A6140C9455010C9455010C94550194
:100030000C9455010C948B0A0C9455010C945501A9
:100040000C9455010C9455010C9455010C945501D8
:100050000C9455010C9455010C9455010C949C1171
:100060000C9455010C94CA0B0C949E0C0C945501E5
:100070000C9455010C9455010C9455010C945501A8
:100080000C9455010C9455010C9455010C94550198
:100090000C94F70B0C94E90C0C9455010C9455013D
:1000A0000C9455010C9455010C9455010C94550178
:1000B0000C9455010C9455010C9455010C94550168
:1000C0000C9455010C9455010C9455010C94240C7E
:1000D0000C94340D0C9455010C94510C0C947F0D20
:1000E0000C94550106110B1110111A118E112411C7
:1000F0002C1134113E11481152115C1166118E11F0
:1001000070117A118411EC14EF14E214E61428151E
:10011000F314F714FD14011505150B150F15131520
:10012000281519151D15231500002100240027008E
:100130002A002D00300033000101000004010701F6
:100140000A0100002200250028002B002E003100AB
:10015000340002010000050108010B01000020002D
:100160002300260029002C002F003200000100008F
:10017000030106010901050505050705080808082A
:10018000020202020A0A080804040404010101012F
:10019000010101010303030303030303040707072A
:1001A0000C0C0C0C0C0C0C0C0202020206060606CF
:1001B000060606060B0B0B0B0B0B0B0B010210209C
:1001C000200808102040102040800201020108048D
:1001D0000201010204081020408080402010080421
:1001E000020180040201804020100804020108047A
:1001F00002010102040810204080010204081020BE
:1002000040800000090A02080B0C0D0706030401D8
:1002100000000000000000000000000000000000DE
:1002200000000000000000000000000000001110AD
:100230000F000000000000000000000000000000AF
:1002400000000000000000008003440E11241FBEC7
:10025000CFEFD1E2DEBFCDBF12E0A0E0B2E0E0EB35
:10026000F1E300E00BBF02C007900D92AC35B1077F
:10027000D9F716E0ACE5B2E001C01D92A738B1078E
:10028000E1F712E0CCE4D2E000E006C022970109D9
:10029000FE010BBF0E946818C834D10780E0080730
:1002A000A9F70E94020B0C94D6180C940000AF9290
:1002B000BF92CF92DF92EF92FF920F931F9386E748
:1002C00092E063E070E040E052E020E000E010E007
:1002D000EE24FF24E8E8CE2EE3E1DE2E3AE0A32E62
:1002E000B12C0E9458041F910F91FF90EF90DF9066
:1002F000CF90BF90AF900895EF92FF920F931F930E
:10030000CF93DF93C6E7D2E0CE010E94A2047C0126
:1003100009E612E0CE01B8014DE00E947005C0E68A
:10032000D2E0CE01B7010E94EA05CE01B8010E94D9
:100330009C06CDB7DEB7E6E00C9453181F93CF931D
:10034000DF93C6E7D2E0CE010E94A204182FCE01AF
:100350000E94A204BC01812F0E94E610DF91CF9180
:100360001F9108951F9386E792E00E94A204182F20
:1003700086E792E060E172E00E949505882341F4EF
:1003800086E792E064E172E00E949505882381F09F
:10039000812F60E00AC086E792E066E172E00E9489
:1003A0009505882371F0812F61E00E944D1509C0E9
:1003B00086E792E068E172E00E949505882399F74C
:1003C000EACF1F9108951F9386E792E00E94A2044E
:1003D000182F86E792E06DE172E00E949505882370
:1003E00041F486E792E061E272E00E94950588237D
:1003F00081F0812F61E00AC086E792E068E272E056
:100400000E949505882371F0812F60E00E942915D4
:1004100009C086E792E06EE272E00E9495058823AB
:1004200099F7EACF1F910895EF92FF921F93CF9310
:10043000DF93E82EE7017E01F92EE70114E006C004
:1004400086E792E0612F0E94CB031F5F499159918B
:1004500041155105A9F7DF91CF911F91FF90EF90C2
:100460000895CF93DF9382EF95E040E052EC61E096
:1004700070E00E94CA0DC6E7D2E0CE010E94D90307
:10048000CE0167E571E00E94C70387E392E00E9416
:1004900014022FE088E190E00FB6F894A8958093BD
:1004A00060000FBE20936000DF91CF91089586E732
:1004B00092E00E943D05A89508950F931F938C012B
:1004C0004AE050E00E94F00FC8011F910F9108957B
:1004D000A0E0B0E0EEE6F2E00C94351886E792E09A
:1004E0000E94A204D82EC92E0E9482157C0182EFA0
:1004F00095E066E070E00E945D02EC0101E312E02D
:10050000B8010E944F0FCE016D2D7C2D0E945D021F
:10051000EC01B8010E944F0FCE01B7010E945D02AD
:100520000E945A0FCDB7DEB7E8E00C9451180F9334
:100530001F938C0122E030E00E94B010C8011F918F
:100540000F910895EF92FF920F931F93CF93DF9334
:1005500088E090E09093D1038093D00384E690E00C
:100560000E94180A6091C6037091C7038091C80366
:100570009091C9032AE030E040E050E00E94C317A8
:1005800003C08B01F82EE92E2091CA032223C9F360
:1005900082EF95E06BE070E00E945D02EC0161E3A8
:1005A00072E00E944F0FB8018F2D9E2D0E94B01651
:1005B000AB01BC01CE010E9497020E945A0FCDB739
:1005C000DEB7E6E00C945318EF92FF920F931F935F
:1005D000CF93DF9386E792E00E94A2048C018CE522
:1005E00092E0B8010E94390982EF95E06AE070E07C
:1005F0000E945D02EC01F1E3EF2EF2E0FF2EB70165
:100600000E944F0FCE01B8010E945D02EC01B701BC
:100610000E944F0F60915C0270915D02882777FD08
:100620008095982F0E94B016AB01BC01CE010E94AC
:100630009702EC01B7010E944F0F60915E0270912A
:100640005F02882777FD8095982F0E94B016AB0136
:10065000BC01CE010E9497020E945A0FCDB7DEB7AF
:10066000E6E00C945318A0E0B0E0E9E3F3E00C946A
:10067000351886E792E00E94A204D82EC92E0E9467
:10068000B3107C010027F7FC0095102FC3E6D0E0E3
:100690008D2D0E94B310AA2797FDA095BA2FE80EC2
:1006A000F91E0A1F1B1F219799F782EF95E067E05B
:1006B00070E00E945D02EC0161E372E00E944F0F66
:1006C000CE016D2D7C2D0E945D02EC0161E372E094
:1006D0000E944F0FC801B7010E94B01620E030E021
:1006E00048EC52E40E941516AB01BC01CE010E94F9
:1006F00097020E945A0FCDB7DEB7E8E00C9451186C
:1007000080E692E00E94C70586E792E062EF75E01E
:1007100040913502209136020E948F030895FC011A
:10072000DC01A055BF4F6D937C93DC01AC54BF4FEF
:100730001C92DC01AB54BF4F1C92DC01AD54BF4F87
:100740004C93DC01AE54BF4F2C9380E481838FE344
:1007500082831082DF01A455BF4F1D921C92DF01DE
:10076000A255BF4F1D921C92DF01A555BF4F81E0DE
:100770008C9314821382DF01159682E390E01D9220
:100780001D920197E1F7E759FF4F10820895FC0190
:10079000748363830895262F2150223348F4E62F73
:1007A000F0E03197EE0FFF1FE80FF91F56834583E6
:1007B0000895FC01EB54FF4F81E080830895A2E08F
:1007C000B0E0E5EEF3E00C9439188C011A8219823E
:1007D000FC01ED54FF4F80818983F801E655FF4FFE
:1007E0008081882351F1813031F4C80186599F4FAF
:1007F00022E0208302C080E090E0F801E555FF4F41
:100800002081222369F0A80142555F4FBE016F5F2E
:100810007F4F0E94A718F801E455FF4F9183808312
:10082000F801E455FF4F80819181009731F0F80184
:10083000E555FF4F108281E001C080E02296E4E0A0
:100840000C945518A0E0B0E0E8E2F4E00C942F1806
:10085000EC014B010E94E4115B016C017B018C01F6
:10086000C055DF4FC4013C01882477FC8094982C4C
:1008700088819981DC01ED91FC910480F581E02D66
:100880000995009759F0D601C5018E199F09A00B53
:10089000B10B681679068A069B0628F40E94E411BB
:1008A0007B018C01E5CFCDB7DEB7EEE00C944B18A1
:1008B000A0E0B0E0EEE5F4E00C9432188C017A018F
:1008C000922EFC01E759FF4F81E08083E801C0557B
:1008D000DF4F888199814AE050E00E94F00FF801D3
:1008E000ED54FF4F8881998160810E94520F888169
:1008F0009981B7010E944F0FF801EE54FF4F888194
:10090000998160810E94520FF801EB54FF4F808162
:10091000882321F0888199810E945A0F992039F00B
:10092000C801B6010E9422041A141B04CCF3F8017A
:10093000E759FF4F108280E090E0CDB7DEB7EBE0E3
:100940000C944E18CF93DF93EC010E94DF038823B1
:1009500069F0FE01E555FF4F81E08083C455DF4F0C
:10096000888199810E946C189C0102C020E030E0CF
:10097000C901DF91CF910895CF93DF93EC010E94DD
:10098000A204FC013197E233F10548F4EE0FFF1F9A
:10099000EC0FFD1F0580F681E02D309711F4EB81FF
:1009A000FC810995DF91CF910895CF93DF93EC01FE
:1009B000DC01A655BF4F1C92161617060CF04EC050
:1009C000862FFE01EE54FF4F20819881621759F463
:1009D000FE01E90FF11DE659FF4F1082992371F1D5
:1009E00081E08C932BC0FE01E90FF11DE659FF4F0A
:1009F00060839F5F98832A81921780F01882FE019E
:100A0000E455FF4F11821082FE01E255FF4F118223
:100A10001082FE01E555FF4F91E09083FE01EC54FA
:100A2000FF4F90819923D1F0FE01ED54FF4F90814B
:100A30008917A1F08A3011F08D3081F41882FE01FF
:100A4000E455FF4F11821082FE01E255FF4F1182E3
:100A50001082FE01E555FF4F81E08083FE01E655DF
:100A6000FF4F8081813019F4CE010E94BC04C6552D
:100A7000DF4F8881DF91CF910895EF92FF920F931E
:100A80001F93CF93DF93EC0149E6E42EF12CE80E9F
:100A9000F91E8C0100551F4FD7018C918823D9F482
:100AA000F80180819181DC01ED91FC910480F58158
:100AB000E02D0995009779F0F80180819181DC01A2
:100AC000ED91FC910680F781E02D0995BC01CE01E6
:100AD0000E94D504E1CFCDB7DEB7E6E00C94531801
:100AE000A1E0B0E0E6E7F5E00C9437187C018B015B
:100AF00049830E94DF034981882379F0F701E55596
:100B0000FF4F81E08083F701E455FF4F60817181E1
:100B1000C80150E00E94931804C0442311F0F8016A
:100B200010822196E6E00C9453180F931F93CF93F5
:100B3000DF93EC018B010E94DF03882379F0FE0133
:100B4000E455FF4F60817181C8010E948A180097A7
:100B500031F4C555DF4F81E0888302C001C080E0D9
:100B6000DF91CF911F910F910895FC016087613053
:100B7000710529F48EE591E09583848308956230B0
:100B8000710521F48AE892E0958384830895FC013D
:100B90008FEF9FEF918380839383828310922C0346
:100BA00010922D0310922E0310922F038EE591E0E8
:100BB000958384838AE090E0978386838CE390E03A
:100BC00090934A0280934902CF0161E070E00E9455
:100BD000B5050895FC01862F6283738361E00E944E
:100BE00029150895FC0180819181FFEF8F3F9F07B8
:100BF00091F010922C0310922D0310922E0310925C
:100C00002F0310923103109230036FEB78E041E034
:100C100050E00E94A9120895EF92FF920F931F9344
:100C2000CF93DF93EC017B018A018A819B812FEFB7
:100C30008F3F920779F1888199813FEF8F3F93072A
:100C400031F00E9423138FEF9FEF998388838A816D
:100C500061E00E944D158C819D819C01E29EC00146
:100C6000E39E900DF29E900D11240E943D128A8108
:100C700060E00E944D158C819D819C01029FC00106
:100C8000039F900D129F900D11240E943D12CE01E2
:100C90000E94F205CDB7DEB7E6E00C945318FC01D4
:100CA0002085213039F461E070E04FE150E00E948E
:100CB0000C060895223031F461E070E04AE050E023
:100CC0000E940C060895CF93DF93EC0161E070E081
:100CD00043E050E00E940C06CE0163E070E041E08A
:100CE00050E00E940C06DF91CF910895CF93DF93DF
:100CF000EC0163E070E041E050E00E940C06CE01A0
:100D000063E070E041E050E00E940C06DF91CF917B
:100D10000895CF93DF93EC0161E070E043E050E091
:100D20000E940C06CE0161E070E043E050E00E94BA
:100D30000C06DF91CF910895A0E0B0E0E2EAF6E082
:100D40000C943518EC01D62EC72E00E010E01BC025
:100D5000813361F0863431F0803359F4CE010E9442
:100D6000890607C0CE010E94630603C0CE010E941F
:100D70007606F70181917F01882351F7CE010E9409
:100D80004F060F5F1F4F8E819F810817190724F4AC
:100D9000C601E92EFC2CEDCFCDB7DEB7E8E00C9410
:100DA0005118ACE0B0E0E7EDF6E00C942B184C01E4
:100DB00080913603909137036FE170E00E94E21753
:100DC0001B017B0100E010E02091490230914A02B2
:100DD000442737FD4095542FC801B7010E94C3171F
:100DE0000E94AE162AE037ED43E25CE30E946017F2
:100DF0000E9482169B01AC01D801C701880F991F80
:100E0000AA1FBB1F8E0D9F1DA01FB11F5C016D018E
:100E1000A21AB30AC40AD50AA982BA82CB82DC829A
:100E200029013A01480E591E6A1E7B1E61E070E0DE
:100E300080E090E0DC0157016801A21AB30AC40AFD
:100E4000D50AAD82BE82CF82D88659016A01AE0C26
:100E5000BF1CC01ED11EA986BA86CB86DC8669C09F
:100E6000FB01EE0FFF1FEA5CFC4F2081318140E067
:100E700050E0CD80DE80EF80F884C216D306E40611
:100E8000F50600F5E984FA840B851C852E153F05CF
:100E900040075107B8F4FB01EE0FFF1FE85CFC4F61
:100EA000E080F18000E010E0A980BA80CB80DC8097
:100EB000AE14BF04C006D10628F4E414F5040605F8
:100EC000170560F1C980DA80EB80FC80C216D3067A
:100ED000E406F50640F5241535054605570518F5D1
:100EE000FB01EE0FFF1FE85CFC4F2081318140E0E9
:100EF00050E0ED80FE800F811885E216F3060407AE
:100F0000150788F4A984BA84CB84DC842A153B05B0
:100F10004C055D0540F40196A11DB11D880F991F78
:100F2000AA1FBB1F04C0B40180E090E0DC016E5F2B
:100F30007F4F6815790508F493CF9C01AD01569554
:100F400047953795279507E080169104C0F02093C8
:100F50002C0330932D0340932E0350932F0396942C
:100F60008794909231038092300330923303209221
:100F7000320381E090E0909335038093340381E065
:100F8000211531054105510509F480E02C96E2E177
:100F90000C944718ACE0B0E0E0EDF7E00C942B18AF
:100FA0004C0180913603909137036AE070E00E9413
:100FB000E2171B017B0100E010E020914902309113
:100FC0004A02442737FD4095542FC801B7010E94BB
:100FD000C3170E94AE162AE037ED43E25CE30E949D
:100FE00060170E9482169B01AC01D801C701880FCF
:100FF000991FAA1FBB1F5C016D01A21AB30AC40A84
:10100000D50AA982BA82CB82DC8229013A01480E34
:10101000591E6A1E7B1E61E070E080E090E0DC01FA
:1010200057016801A21AB30AC40AD50AAD82BE826A
:10103000CF82D88659016A01AE0CBF1CC01ED11EDA
:10104000A986BA86CB86DC8669C0FB01EE0FFF1F3E
:10105000EA5CFC4F2081318140E050E0CD80DE80B1
:10106000EF80F884C216D306E406F50600F5E9849D
:10107000FA840B851C852E153F0540075107B8F4EF
:10108000FB01EE0FFF1FE85CFC4FE080F18000E009
:1010900010E0A980BA80CB80DC80AE14BF04C0060B
:1010A000D10628F4E414F5040605170560F1C9809B
:1010B000DA80EB80FC80C216D306E406F50640F524
:1010C000241535054605570518F5FB01EE0FFF1FE2
:1010D000E85CFC4F2081318140E050E0ED80FE80F3
:1010E0000F811885E216F3060407150788F4A98412
:1010F000BA84CB84DC842A153B054C055D0540F49D
:101100000196A11DB11D880F991FAA1FBB1F04C006
:10111000B40180E090E0DC016E5F7F4F68157905D7
:1011200008F493CF9C01AD015695479537952795C7
:1011300007E080169104C0F020932C0330932D0318
:1011400040932E0350932F039694879490923103EB
:1011500080923003309233032092320382E090E099
:10116000909335038093340381E0211531054105C7
:10117000510509F480E02C96E2E10C944718A0E0B8
:10118000B0E0E5ECF8E00C9435180E94F2116B0128
:101190007C018091BE039091BF03E601C81BD90B6F
:1011A000D093C503C093C40383E1C938D807A8F11D
:1011B00080913603909137039C01285C30402C17B6
:1011C0003D0738F588539F4FC817D90710F5809110
:1011D000BC039091BD0301969093BD038093BC0323
:1011E0000091C2031091C303015010401093C30338
:1011F0000093C2038230910561F4C8010E94D106B8
:10120000882319F4C8010E94CA071092BD031092E6
:10121000BC031092C3031092C2038091C203909149
:10122000C3038334910540F01092C3031092C203AC
:101230001092BD031092BC038091C2039091C3032E
:10124000FC01EE0FFF1FEA5CFC4FD183C0830196C7
:101250009093C3038093C203C092BE03D092BF0396
:10126000E092C003F092C103CDB7DEB7E8E00C9482
:1012700051182F923F924F925F926F927F929F925E
:10128000AF92BF92CF92DF92EF92FF920F931F9394
:10129000DF93CF9300D000D00F92CDB7DEB78C0193
:1012A000B62E19821A821B821C821D82862F61E053
:1012B0000E9429158B2D60E00E944D1562E170E0BF
:1012C00080E090E00E9418128B2D61E00E944D1585
:1012D00088E290E00E943D128B2D60E00E9429156B
:1012E00070E1E72E77E2F72E07C0E114F10409F46C
:1012F00082C00894E108F1088B2D0E9482150097A6
:10130000A1F360E1E62E67E2F62E07C0E114F104D6
:1013100009F471C00894E108F1088B2D0E94821530
:101320008130910599F358E2C52ED12C992447E0DC
:10133000A42E31E0632E712C08C0E114F10409F4ED
:101340005AC00894E108F10804C020E1E22E27E227
:10135000F22E8B2D0E948215009779F30E94F211D4
:101360001B012C0190E1E92E97E2F92E07C0E11450
:10137000F10409F440C00894E108F1088B2D0E94A3
:1013800082158130910599F30E94F2116219730957
:1013900084099509693271058105910580F0E1E0C4
:1013A000F0E0EC0FFD1FE90DF11DC3010A2C02C096
:1013B000880F991F0A94E2F72081282B2083AA2006
:1013C00021F4939487E0A82E01C0AA940894C10840
:1013D000D108C114D10409F0B8CF8981F801808304
:1013E00011829B8192831382890F9D81981731F01E
:1013F0002FEF3FEF05C02EEF3FEF02C020E030E0BF
:10140000C9010F900F900F900F900F90CF91DF9127
:101410001F910F91FF90EF90DF90CF90BF90AF9012
:101420009F907F906F905F904F903F902F90089586
:101430000F931F938C0180916E008E7F80936E00BE
:1014400082E390E00E943D121093CF030093CE03FD
:101450008091D0039091D103009731F481E090E026
:101460009093D1038093D00310928000109281005A
:101470001092850010928400809181008160809399
:101480008100809181008260809381008091810041
:101490008460809381001092B0001092B10080911E
:1014A000B10081608093B1008091B1008D7F809305
:1014B000B1008091B10084608093B1008091B00050
:1014C0008E7F8093B0008091B00082608093B000E6
:1014D0008091B000877F8093B0008CE78093B30049
:1014E0001092CA031092CD031092CC0382E083BD08
:1014F0001092B200109285001092840080917000CA
:101500008260809370008091810087608093810069
:101510001F910F9108951F920F920FB60F920BB665
:101520000F9211242F933F934F935F936F937F9369
:101530008F939F93AF93BF93EF93FF932091CC032F
:101540003091CD038091CE039091CF0328173907B6
:10155000A0F18091D0039091D1030E943D1280911F
:101560008100887F80938100809170008D7F8093BF
:10157000700080916E00816080936E0081E08093A6
:10158000CA038091CB03209184003091850090E0C4
:10159000A0E0B0E0DC019927882740E050E0820F0E
:1015A000931FA41FB51F8093C6039093C703A093F6
:1015B000C803B093C9031092CB038091CC039091E0
:1015C000CD0301969093CD038093CC03B09B07C0CD
:1015D0008091CB038F5F8093CB0381E086BBFF912B
:1015E000EF91BF91AF919F918F917F916F915F919B
:1015F0004F913F912F910F900BBE0F900FBE0F9008
:101600001F901895CF93DF930E9447120E943102DA
:10161000CDE7DCE00E9457022097E1F30E947D0CA9
:10162000F9CFFC0184859585FC01E05CFF4F2081AA
:1016300031818E5B9F4FFC0180819181281B390B8A
:101640002F733070C9010895FC0184859585FC01D4
:10165000E05CFF4F40815181FC01EE5BFF4F208138
:1016600031814217530741F00190F081E02DE80FDE
:10167000F91F208130E002C02FEF3FEFC90108952C
:10168000FC0184859585FC01E05CFF4F4081518120
:10169000FC01EE5BFF4F208131814217530771F04F
:1016A000A081B181A80FB91F2C91808191810196F1
:1016B0008F7390709183808330E002C02FEF3FEFF3
:1016C000C9010895DC011E968D919C911F97FC0124
:1016D000E05CFF4F8E5B9F4F40815181DC012D917B
:1016E0003C91119742175307B9F708951F93FC01D6
:1016F000162F26853785D901A05CBF4F8D919C910F
:10170000019660E470E00E94F617D901AE5BBF4F0E
:101710004D915C91119784179507D1F3D901A05C85
:10172000BF4F0D90BC91A02DA20FB31F1C93A68597
:10173000B785A05CBF4F11969C938E93A689B789FD
:101740002C9181E090E0058C02C0880F991F0A94CB
:10175000E2F7282B2C9381E090E01F910895FB0184
:10176000E05CFF4F208131812F5F3F4F2F7330703E
:10177000DB01AE5BBF4F4D915C911197241735078C
:1017800039F0A081B181A60FB71F8C9331832083DC
:10179000089508951F920F920FB60F920BB60F92F5
:1017A00011242F933F934F935F936F937F938F9366
:1017B0009F93AF93BF93EF93FF938091C60062ED29
:1017C00073E00E94AF0BFF91EF91BF91AF919F919A
:1017D0008F917F916F915F914F913F912F910F90DA
:1017E0000BBE0F900FBE0F901F90189508951F927B
:1017F0000F920FB60F920BB60F9211242F933F93B7
:101800004F935F936F937F938F939F93AF93BF9308
:10181000EF93FF938091CE006AE574E00E94AF0BD6
:10182000FF91EF91BF91AF919F918F917F916F91B8
:101830005F914F913F912F910F900BBE0F900FBE74
:101840000F901F90189508951F920F920FB60F9248
:101850000BB60F9211242F933F934F935F936F9387
:101860007F938F939F93AF93BF93EF93FF93809159
:10187000D60062EE74E00E94AF0BFF91EF91BF9132
:10188000AF919F918F917F916F915F914F913F9118
:101890002F910F900BBE0F900FBE0F901F901895B9
:1018A00008951F920F920FB60F920BB60F9211244C
:1018B0002F933F934F935F936F937F938F939F9358
:1018C000AF93BF93EF93FF93809136016AE675E083
:1018D0000E94AF0BFF91EF91BF91AF919F918F91BC
:1018E0007F916F915F914F913F912F910F900BBE20
:1018F0000F900FBE0F901F90189582EF95E00E94F9
:10190000110B009711F00E94C90B81E196E00E9433
:10191000110B009711F00E94F60B80E396E00E94F5
:10192000110B009711F00E94230C8FE496E00E94A7
:10193000110B009711F00E94500C08951F920F9206
:101940000FB60F920BB60F9211242F933F935F9314
:101950006F937F938F939F93AF93BF93EF93FF9377
:101960002091560430915704809158049091590465
:101970002817390731F48091C1008F7D8093C10011
:1019800016C0E0915804F0915904EA5EFB4F2081A3
:101990008091580490915904019660E470E00E948F
:1019A000F61790935904809358042093C600FF9132
:1019B000EF91BF91AF919F918F917F916F915F91C7
:1019C0003F912F910F900BBE0F900FBE0F901F9065
:1019D00018951F920F920FB60F920BB60F9211240B
:1019E0002F933F935F936F937F938F939F93AF93C7
:1019F000BF93EF93FF932091DE043091DF04809139
:101A0000E0049091E1042817390731F48091C9006E
:101A10008F7D8093C90016C0E091E004F091E1044D
:101A2000E256FB4F20818091E0049091E104019601
:101A300060E470E00E94F6179093E1048093E00464
:101A40002093CE00FF91EF91BF91AF919F918F9125
:101A50007F916F915F913F912F910F900BBE0F90EF
:101A60000FBE0F901F9018951F920F920FB60F92F6
:101A70000BB60F9211242F933F935F936F937F9335
:101A80008F939F93AF93BF93EF93FF93209166053E
:101A9000309167058091680590916905281739078D
:101AA00031F48091D1008F7D8093D10016C0E091F8
:101AB0006805F0916905EA5DFA4F2081809168051B
:101AC00090916905019660E470E00E94F61790938A
:101AD0006905809368052093D600FF91EF91BF912F
:101AE000AF919F918F917F916F915F913F912F91D6
:101AF0000F900BBE0F900FBE0F901F9018951F9266
:101B00000F920FB60F920BB60F9211242F933F93A3
:101B10005F936F937F938F939F93AF93BF93EF9355
:101B2000FF932091EE053091EF058091F0059091A3
:101B3000F1052817390731F4809131018F7D8093A9
:101B4000310116C0E091F005F091F105E255FA4F30
:101B500020818091F0059091F105019660E470E09C
:101B60000E94F6179093F1058093F00520933601BB
:101B7000FF91EF91BF91AF919F918F917F916F9165
:101B80005F913F912F910F900BBE0F900FBE0F9062
:101B90001F901895A0E0B0E0E0EDFDE00C94361841
:101BA000EC017A018B01DD24D394403081EE58079B
:101BB00080E0680780E0780749F4DD24EC89FD893E
:101BC000108260E874E88EE190E00FC0EC89FD8936
:101BD00081E090E00E8C02C0880F991F0A94E2F712
:101BE000808360E079E08DE390E0A80197010E9496
:101BF0000918215030404040504056954795379540
:101C0000279580E12030380710F0DD20B1F6E88913
:101C1000F9893083EA89FB892083EE89FF89408135
:101C200081E090E09C010A8C02C0220F331F0A94CD
:101C3000E2F7422B4083EE89FF8940819C010B8CA7
:101C400002C0220F331F0A94E2F7422B4083EE8931
:101C5000FF8940819C010C8C02C0220F331F0A9423
:101C6000E2F7422B4083EE89FF8920810D8C02C070
:101C7000880F991F0A94E2F7809582238083CDB75D
:101C8000DEB7E7E00C9452181F93CF93DF931092C6
:101C9000F5051092F40588EE93E0A0E0B0E08093A3
:101CA000F6059093F705A093F805B093F905E4EFD6
:101CB000F5E020E532E03293229342ED53E0558780
:101CC000448746E154E05787468745EC50E0518B06
:101CD000408B44EC50E0538B428B40EC50E0558BF2
:101CE000448B41EC50E0578B468B46EC50E0518FD3
:101CF000408F14E0128F73E0738F67E0648F55E0BC
:101D0000558F41E0468F109214061092130680936F
:101D1000150690931606A0931706B0931806E3E1F4
:101D2000F6E032932293CAE5D4E0D587C487CEE9A2
:101D3000D4E0D787C687CDECD0E0D18BC08BCCEC7C
:101D4000D0E0D38BC28BC8ECD0E0D58BC48BC9EC70
:101D5000D0E0D78BC68BCEECD0E0D18FC08F128F66
:101D6000738F648F558F468F109233061092320610
:101D70008093340690933506A0933606B0933706C9
:101D8000E2E3F6E032932293C2EED4E0D587C48733
:101D9000C6E2D5E0D787C687C5EDD0E0D18BC08B32
:101DA000C4EDD0E0D38BC28BC0EDD0E0D58BC48B1B
:101DB000C1EDD0E0D78BC68BC6EDD0E0D18FC08F00
:101DC000128F738F648F558F468F10925206109228
:101DD00051068093530690935406A0935506B093F2
:101DE0005606E1E5F6E0329322938AE695E0958780
:101DF00084878EEA95E09787868785E391E0918BCB
:101E0000808B84E391E0938B828B80E391E0958BD0
:101E1000848B81E391E0978B868B86E391E0918FB1
:101E2000808F128F738F648F558F468FDF91CF9184
:101E30001F910895A0E0B0E0E0E2FFE00C943518B7
:101E40006C017B018A01C0E0D0E00FC0D7016D9129
:101E50007D01D601ED91FC910190F081E02DC6014C
:101E60000995C80FD91F015010400115110571F7D0
:101E7000CE01CDB7DEB7E8E00C945118DB010D9030
:101E80000020E9F7AD0141505040461B570BDC01E3
:101E9000ED91FC910280F381E02D099508950E9457
:101EA0003E0F0895DC01ED91FC910190F081E02D51
:101EB000099508950F931F93CF93DF93EC016DE085
:101EC0000E94520F8C01CE016AE00E94520F080F4F
:101ED000191FC801DF91CF911F910F910895A1E2C1
:101EE000B0E0E5E7FFE00C9431186C01042FE52F1A
:101EF000CB01122F19A2223008F41AE021E2E22EBF
:101F0000F12CEC0EFD1E812E9924AA24BB2403C0C3
:101F1000022FE32FCA01602F7E2FA50194010E949A
:101F20000918129F802D1124081B0894E108F1085C
:101F30000A3014F4005D01C0095CF701008321152B
:101F400031054105510521F7C601B7010E943E0F39
:101F5000A196ECE00C944D182115310549F4DC01F3
:101F6000ED91FC910190F081E02D642F0995089589
:101F70000E946F0F0895A0E0B0E0E1ECFFE00C9448
:101F80003518EC017A018B012115310541F4E88106
:101F9000F9810190F081E02D642F09951AC02A3053
:101FA0003105A9F477FF12C06DE20E94520F6C0157
:101FB00044275527BA014E195F09600B710BCE01FA
:101FC0002AE00E946F0FC80ED91E04C02AE00E94AA
:101FD0006F0F6C01C601CDB7DEB7E8E00C94511865
:101FE0009A01FB01AF01662757FD6095762F0E948D
:101FF000BB0F08956F927F929F92AF92BF92CF9244
:10200000DF92EF92FF920F931F93CF93DF933C01E8
:102010007A018B01C22ECB01BA0120E030E0A90188
:102020000E94111687FF0AC0C3016DE20E94520F81
:10203000EC0117FB109517F9109502C0C0E0D0E035
:10204000DD2450E040E030E02FE311C0DA01F90177
:102050006B2F742F8F2F922F20E030E040E251E45D
:102060000E941516562F472F382F292FD394DC1492
:1020700068F3C801B701DA01F9012B2F342F4F2F74
:102080005E2F0E94AD155B01F82E992E7B2D0E94CC
:102090008216162FD72EE82E092F0E94AE169B010E
:1020A000AC016A2D7B2D8F2D992D0E94AC15962E9B
:1020B000A72EB82EF92EC301412F5D2D6E2D702F46
:1020C0002AE030E00E94AC0FC80FD91FCC20B9F134
:1020D000C30163E372E00E943E0FC80FD91F2FC0F7
:1020E000692D7A2D8B2D9F2D20E030E040E251E4C8
:1020F0000E946017D62EB72EA82E992E0E947D160C
:102100007B010027F7FC0095102FC301B801A70140
:102110002AE030E00E94BB0FC80FD91FC801B701E9
:102120000E94B0169B01AC016D2D7B2D8A2D992D3F
:102130000E94AC15962EA72EB82EF92ECA94CC204C
:1021400079F6CE01DF91CF911F910F91FF90EF9023
:10215000DF90CF90BF90AF909F907F906F90089549
:102160000E94FA0F0895863308F0865390917B0001
:10217000282F26952695269530E02170307043E073
:10218000220F331F4A95E1F7977F922B90937B00A4
:10219000877090914B029295990F990F907C982B94
:1021A00090937C0080917A00806480937A00809183
:1021B0007A0086FDFCCF2091780030917900932F32
:1021C00080E030E0282B392BC90108951F93CF936D
:1021D000DF93182FEB0161E00E942915209709F485
:1021E000A0C0CF3FD10509F49FC0E12FF0E0EE5F22
:1021F000FD4F249130E0215030402131310508F06D
:102200008DC02E583F4FF9010C94621884B5806838
:1022100084BDC7BD8DC084B5806284BDC8BD88C083
:1022200080918000806880938000D0938900C09363
:1022300088007EC080918000806280938000D0936F
:102240008B00C0938A0074C08091B0008068809336
:10225000B000C093B3006CC08091B00080628093E6
:10226000B000C093B40064C08091900080688093F7
:102270009000D0939900C09398005AC0809190002C
:10228000806280939000D0939B00C0939A0050C0CE
:1022900080919000886080939000D0939D00C093BF
:1022A0009C0046C08091A00080688093A000D093DD
:1022B000A900C093A8003CC08091A00080628093D8
:1022C000A000D093AB00C093AA0032C08091A000C0
:1022D00088608093A000D093AD00C093AC0028C06C
:1022E00080912001806880932001D0932901C093C0
:1022F00028011EC080912001806280932001D0932C
:102300002B01C0932A0114C0809120018860809322
:102310002001D0932D01C0932C010AC0C038D105F3
:102320001CF4812F60E002C0812F61E00E944D15F6
:10233000DF91CF911F9108951F920F920FB60F92C8
:1023400011242F933F938F939F93AF93BF938091CB
:10235000720690917306A0917406B0917506309143
:1023600076060196A11DB11D232F2D5F2D3720F07C
:102370002D570196A11DB11D2093760680937206FC
:1023800090937306A0937406B093750680916E06C1
:1023900090916F06A0917006B09171060196A11DF3
:1023A000B11D80936E0690936F06A0937006B09354
:1023B0007106BF91AF919F918F913F912F910F9097
:1023C0000FBE0F901F9018958FB7F894209172064A
:1023D0003091730640917406509175068FBFB90114
:1023E000CA0108959FB7F89420916E0630916F0648
:1023F000409170065091710686B5A89B06C08F3F2C
:1024000021F02F5F3F4F4F4F5F4F9FBF542F432F00
:10241000322F2227280F311D411D511D82E0220F2E
:10242000331F441F551F8A95D1F7B901CA0108957A
:10243000EF92FF920F931F93CF93DF937B018C0159
:102440000E94F211EB010FC00E94F2116C1B7D0B78
:1024500083E0683E780738F00894E108F108010944
:102460001109C851DC4FE114F1040105110561F7B0
:10247000CDB7DEB7E6E00C945318019739F0880F1A
:10248000991F880F991F02970197F1F70895789483
:1024900084B5826084BD84B5816084BD85B5826069
:1024A00085BD85B5816085BDEEE6F0E08081816007
:1024B0008083E1E8F0E01082808182608083808107
:1024C00081608083E0E8F0E0808181608083E1EBDF
:1024D000F0E0808184608083E0EBF0E080818160C7
:1024E0008083E1E9F0E08081826080838081816087
:1024F0008083E0E9F0E0808181608083E1EAF0E0C0
:10250000808182608083808181608083E0EAF0E066
:10251000808181608083E1E2F1E08081826080835C
:10252000808181608083E0E2F1E08081816080834E
:10253000EAE7F0E08081846080838081826080832C
:102540008081816080838081806880831092C10057
:102550000895883008F076C0E82FF0E0EE0FFF1FF6
:10256000E958F94F71836083843029F1853038F45C
:10257000823069F0833098F48130B9F53EC08630FE
:1025800009F447C0863020F1873079F54FC080913B
:1025900069008C7F842B80936900E89A089580916C
:1025A0006900440F551F440F551F837F842B809370
:1025B0006900E99A08958091690074E0440F551FFD
:1025C0007A95E1F78F7C842B80936900EA9A0895CD
:1025D0008091690066E0440F551F6A95E1F78F739B
:1025E000842B80936900EB9A089580916A008C7F18
:1025F000842B80936A00EC9A089580916A00440FBE
:10260000551F440F551F837F842B80936A00ED9ADA
:10261000089580916A0024E0440F551F2A95E1F740
:102620008F7C842B80936A00EE9A089580916A00D3
:1026300096E0440F551F9A95E1F78F73842B809392
:102640006A00EF9A0895883048F58430A1F085300B
:1026500038F4823061F0833060F4813081F411C04D
:10266000863089F0863048F0873049F40EC0E8980B
:102670000DC0E9980BC0EA9809C0EB9807C0EC9828
:1026800005C0ED9803C0EE9801C0EF98E82FF0E088
:10269000EE0FFF1FE958F94F1182108208951F9223
:1026A0000F920FB60F920BB60F9211242F933F93F8
:1026B0004F935F936F937F938F939F93AF93BF934A
:1026C000EF93FF9380917B0690917C06009729F011
:1026D000E0917B06F0917C060995FF91EF91BF9107
:1026E000AF919F918F917F916F915F914F913F91AA
:1026F0002F910F900BBE0F900FBE0F901F9018954B
:102700001F920F920FB60F920BB60F9211242F93B8
:102710003F934F935F936F937F938F939F93AF9369
:10272000BF93EF93FF9380917D0690917E06009773
:1027300029F0E0917D06F0917E060995FF91EF91D9
:10274000BF91AF919F918F917F916F915F914F91C9
:102750003F912F910F900BBE0F900FBE0F901F90C7
:1027600018951F920F920FB60F920BB60F9211246D
:102770002F933F934F935F936F937F938F939F9389
:10278000AF93BF93EF93FF9380917F069091800664
:10279000009729F0E0917F06F09180060995FF915E
:1027A000EF91BF91AF919F918F917F916F915F91C9
:1027B0004F913F912F910F900BBE0F900FBE0F9036
:1027C0001F9018951F920F920FB60F920BB60F9293
:1027D00011242F933F934F935F936F937F938F9326
:1027E0009F93AF93BF93EF93FF9380918106909156
:1027F0008206009729F0E0918106F0918206099502
:10280000FF91EF91BF91AF919F918F917F916F91C8
:102810005F914F913F912F910F900BBE0F900FBE84
:102820000F901F9018951F920F920FB60F920BB634
:102830000F9211242F933F934F935F936F937F9346
:102840008F939F93AF93BF93EF93FF9380917706FE
:1028500090917806009729F0E0917706F09178063C
:102860000995FF91EF91BF91AF919F918F917F91CA
:102870006F915F914F913F912F910F900BBE0F90F1
:102880000FBE0F901F9018951F920F920FB60F92C8
:102890000BB60F9211242F933F934F935F936F9337
:1028A0007F938F939F93AF93BF93EF93FF93809109
:1028B000790690917A06009729F0E0917906F091D7
:1028C0007A060995FF91EF91BF91AF919F918F91FA
:1028D0007F916F915F914F913F912F910F900BBE20
:1028E0000F900FBE0F901F9018951F920F920FB66A
:1028F0000F920BB60F9211242F933F934F935F9338
:102900006F937F938F939F93AF93BF93EF93FF93B7
:102910008091830690918406009729F0E0918306C8
:10292000F09184060995FF91EF91BF91AF919F912E
:102930008F917F916F915F914F913F912F910F9068
:102940000BBE0F900FBE0F901F9018951F920F9205
:102950000FB60F920BB60F9211242F933F934F9304
:102960005F936F937F938F939F93AF93BF93EF93F7
:10297000FF938091850690918606009729F0E0915B
:102980008506F09186060995FF91EF91BF91AF9171
:102990009F918F917F916F915F914F913F912F9177
:1029A0000F900BBE0F900FBE0F901F90189590E0E8
:1029B00001978131910508F04BC08D579F4FFC0165
:1029C0000C946218809180008F7703C08091800002
:1029D0008F7D80938000089584B58F7702C084B581
:1029E0008F7D84BD08958091B0008F7703C0809162
:1029F000B0008F7D8093B0000895809190008F7714
:102A000007C0809190008F7D03C080919000877FE8
:102A10008093900008958091A0008F7707C08091E7
:102A2000A0008F7D03C08091A000877F8093A000CD
:102A30000895809120018F7703C0809120018F7DC0
:102A400080932001089580912001877F8093200149
:102A5000089590E0FC01E454FE4F2491FC01EA58F3
:102A6000FE4FE491EE23C1F0F0E0EE0FFF1FE85DB2
:102A7000FE4F85919491DC01662341F49FB7F89451
:102A80008C91209582238C939FBF08959FB7F894D3
:102A90008C91822B8C939FBF0895A1E0B0E0E3E579
:102AA000F5E10C943918282F30E0F901EE5FFD4F65
:102AB0008491F901E454FE4F14912A583E4FF901D4
:102AC00004910023D9F0882321F069830E94D71450
:102AD0006981E02FF0E0EE0FFF1FEE5BFE4F859166
:102AE0009491DC019FB7F894662321F48C911095A2
:102AF000812302C08C91812B8C939FBF2196E4E0AF
:102B00000C9455180F931F93282F30E0F901EE5FB6
:102B1000FD4F8491F901E454FE4F04912A583E4F31
:102B2000F9011491112391F0882311F00E94D71418
:102B3000E12FF0E0EE0FFF1FE45AFE4F85919491D4
:102B4000DC018C91802321E030E011F420E030E0C2
:102B5000C9011F910F9108955058BB27AA270ED085
:102B600075C166D130F06BD120F031F49F3F11F484
:102B70001EF45BC10EF4E095E7FB51C1E92F77D15C
:102B800080F3BA17620773078407950718F071F48A
:102B90009EF58FC10EF4E0950B2EBA2FA02D0B01E0
:102BA000B90190010C01CA01A0011124FF27591B92
:102BB00099F0593F50F4503E68F11A16F040A22F98
:102BC000232F342F4427585FF3CF46953795279509
:102BD000A795F0405395C9F77EF41F16BA0B620B08
:102BE000730B840BBAF09150A1F0FF0FBB1F661F4F
:102BF000771F881FC2F70EC0BA0F621F731F841F92
:102C000048F4879577956795B795F7959E3F08F0B7
:102C1000B3CF9395880F08F09927EE0F9795879576
:102C20000895D9D008F481E008950CD00FC107D1E0
:102C300040F0FED030F021F45F3F19F0F0C05111A8
:102C400039C1F3C014D198F39923C9F35523B1F3D3
:102C5000951B550BBB27AA2762177307840738F00B
:102C60009F5F5F4F220F331F441FAA1FA9F333D06A
:102C70000E2E3AF0E0E830D091505040E695001C1E
:102C8000CAF729D0FE2F27D0660F771F881FBB1FDA
:102C9000261737074807AB07B0E809F0BB0B802DB4
:102CA000BF01FF2793585F4F2AF09E3F510568F000
:102CB000B6C000C15F3FECF3983EDCF38695779594
:102CC0006795B795F7959F5FC9F7880F911D969502
:102CD000879597F90895E1E0660F771F881FBB1F5E
:102CE000621773078407BA0720F0621B730B840B0B
:102CF000BA0BEE1F88F7E095089504D06894B111DF
:102D0000D9C00895BCD088F09F5790F0B92F99276B
:102D1000B751A0F0D1F0660F771F881F991F1AF0E6
:102D2000BA95C9F712C0B13081F0C3D0B1E00895AF
:102D3000C0C0672F782F8827B85F39F0B93FCCF330
:102D4000869577956795B395D9F73EF490958095DC
:102D5000709561957F4F8F4F9F4F0895E89409C0FC
:102D600097FB3EF490958095709561957F4F8F4FBE
:102D70009F4F9923A9F0F92F96E9BB279395F695D4
:102D8000879577956795B795F111F8CFFAF4BB0F52
:102D900011F460FF1BC06F5F7F4F8F4F9F4F16C0B6
:102DA000882311F096E911C0772321F09EE8872F40
:102DB000762F05C0662371F096E8862F70E060E0FC
:102DC0002AF09A95660F771F881FDAF7880F969575
:102DD000879597F90895990F0008550FAA0BE0E819
:102DE000FEEF16161706E807F907C0F012161306CD
:102DF000E407F50798F0621B730B840B950B39F40D
:102E00000A2661F0232B242B252B21F408950A2672
:102E100009F4A140A6958FEF811D811D089597F9B2
:102E20009F6780E870E060E008959FEF80EC089570
:102E300000240A9416161706180609060895002499
:102E40000A9412161306140605060895092E039413
:102E5000000C11F4882352F0BB0F40F4BF2B11F487
:102E600060FF04C06F5F7F4F8F4F9F4F089557FDE6
:102E70009058440F551F59F05F3F71F04795880FE8
:102E800097FB991F61F09F3F79F08795089512167F
:102E900013061406551FF2CF4695F1DF08C016162B
:102EA00017061806991FF1CF8695710561050894DC
:102EB0000895E894BB2766277727CB0197F90895F3
:102EC0000BD0C4CFB5DF28F0BADF18F0952309F096
:102ED000A6CFABCF1124EECFCADFA0F3959FD1F3DD
:102EE000950F50E0551F629FF001729FBB27F00DB8
:102EF000B11D639FAA27F00DB11DAA1F649F66270D
:102F0000B00DA11D661F829F2227B00DA11D621F5B
:102F1000739FB00DA11D621F839FA00D611D221F15
:102F2000749F3327A00D611D231F849F600D211DF9
:102F3000822F762F6A2F11249F5750408AF0E1F09C
:102F400088234AF0EE0FFF1FBB1F661F771F881FE5
:102F500091505040A9F79E3F510570F060CFAACF25
:102F60005F3FECF3983EDCF3869577956795B795D0
:102F7000F795E7959F5FC1F7FE2B880F911D9695FA
:102F8000879597F90895629FD001739FF001829F02
:102F9000E00DF11D649FE00DF11D929FF00D839FE8
:102FA000F00D749FF00D659FF00D9927729FB00D85
:102FB000E11DF91F639FB00DE11DF91FBD01CF0198
:102FC00011240895AA1BBB1B51E107C0AA1FBB1FF8
:102FD000A617B70710F0A61BB70B881F991F5A95A5
:102FE000A9F780959095BC01CD01089597FB092E16
:102FF00007260AD077FD04D0E5DF06D000201AF4BA
:10300000709561957F4F0895F6F7909581959F4F44
:103010000895A1E21A2EAA1BBB1BFD010DC0AA1F19
:10302000BB1FEE1FFF1FA217B307E407F50720F031
:10303000A21BB30BE40BF50B661F771F881F991FAC
:103040001A9469F760957095809590959B01AC01F5
:10305000BD01CF0108952F923F924F925F926F92E0
:103060007F928F929F92AF92BF92CF92DF92EF9218
:10307000FF920F931F93CF93DF93CDB7DEB7CA1B99
:10308000DB0B0FB6F894DEBF0FBECDBF09942A88C4
:10309000398848885F846E847D848C849B84AA846C
:1030A000B984C884DF80EE80FD800C811B81AA81F9
:1030B000B981CE0FD11D0FB6F894DEBF0FBECDBFC4
:1030C000ED010895EE0FFF1F0590F491E02D099496
:1030D0000790F691E02D0994FC0188279927E89440
:1030E00021912032E9F3293010F02E30C8F32B3231
:1030F00041F02D3239F4689404C00E94CE18820F3A
:10310000911D219120532A30C0F31EF49095819592
:103110009F4F0895FB01DC018D91019080190110F2
:10312000D9F3990B0895DC01FB014150504058F050
:1031300049F001900D920020C1F7E61BF70B319783
:10314000CF0108951C9201900020E9F7F6CFFA0113
:10315000A191B081009719F41097E1F0CD01DC0145
:10316000CD010D90002011F4C00113C0FB0121918D
:10317000222319F02015D9F7F3CFFB012191201557
:1031800019F41E92119606C02223C1F70D9000205B
:10319000A1F7D001FA01A193B08308957AE0979F37
:1031A000902D879F802D910D11240895F894FFCFC5
:1031B000556E6B6E6F776E20636F6D6D616E640020
:1031C0006C6F77003000310068696768006F757454
:1031D000006F757470757400696E70757400696E37
:1031E0000020002E00203BE301B201680233039E61
:1031F000017C01E402A20200003C0001000000008A
:0C320000760B1A0F110B400B240B620B15
:00000001FF
