:100000000C9404010C940B0C0C943C0C0C946D0C93
:100010000C949E0C0C94CF0C0C94000D0C94310D90
:100020000C94620D0C9430010C9430010C9430014E
:100030000C9430010C9430010C9430010C9430017C
:100040000C9430010C9430010C9430010C9430016C
:100050000C9430010C9430010C9430010C94930DED
:100060000C9430010C94930E0C9430010C943001DC
:100070000C9430010C9430010C9430010C9430013C
:100080000C9430010C9430010C9430010C9430012C
:100090000C94C80E0C9430010C9430010C94300177
:1000A0000C9430010C9430010C9430010C9430010C
:1000B0000C9430010C9430010C9430010C943001FC
:1000C0000C9430010C9430010C9430010C94FD0E12
:1000D0000C9430010C9430010C94320F0C943001CC
:1000E0000C94300100002100240027002A002D007C
:1000F0003000330001010000040107010A01000083
:100100002200250028002B002E00310034000201BF
:100110000000050108010B0100002000230026005B
:1001200029002C002F00320000010000030106010D
:10013000090105050505070508080808020202026D
:100140000A0A080804040404010101010101010173
:100150000303030303030303040707070C0C0C0C3E
:100160000C0C0C0C02020202060606060606060627
:100170000B0B0B0B0B0B0B0B0102102020080810B4
:100180002040102040800201020108040201010207
:1001900004081020408080402010080402018004E0
:1001A000020180402010080402010804020101023B
:1001B0000408102040800102040810204080000044
:1001C000090A02080B0C0D070603040100000000D9
:1001D000000000000000000000000000000000001F
:1001E00000000000000000000000100F0E000000E2
:1001F00000000000000000000000000000000000FF
:10020000000000006D05321011241FBECFEFD1E2B7
:10021000DEBFCDBF00E00CBF12E0A0E0B2E0E8E03E
:10022000F1E300E00BBF02C007900D92A83DB107BB
:10023000D9F716E0A8EDB2E001C01D92A334B107D2
:10024000E1F712E0C8E0D2E004C02297FE010E946C
:100250001816C430D107C9F70E94A6110C94821851
:100260000C940000FC018FEF9FEF918380839383B8
:1002700082838EE591E0958384838AE090E0978382
:10028000868308952F923F924F925F926F927F9252
:100290008F929F92AF92BF92CF92DF92EF92FF9296
:1002A0000F931F93DF93CF93CDB7DEB766970FB64B
:1002B000F894DEBF0FBECDBF0E94DB0D6D877E8739
:1002C0008F87988B8091DC029091DD022D853E8591
:1002D000281B390B309369032093680343E12938C5
:1002E000340708F412C14091E0025091E102CA01C2
:1002F000885C90408217930708F003C1CA018853B5
:100300009F4F2817390708F0FCC08091DA029091BE
:10031000DB0201969093DB028093DA02A0916603E0
:10032000B09167031197BE8BAD8BB0936703A09319
:100330006603029709F0E5C0CA016FE170E00E9410
:10034000C5152B015B01CC24DD24C601B5010E943B
:1003500091142AE939E949E95EE30E9443150E94B4
:1003600065147B018C01D601C501880F991FAA1F56
:10037000BB1F8A0D9B1DAC1DBD1D9C01AD012E191F
:100380003F09400B510B29873A874B875C87A801AF
:100390009701280F391F4A1F5B1F2D833E834F8310
:1003A0005887C801B701A60195010E94A615698367
:1003B0007A838B839C8366247724430161E070E019
:1003C00092E0292E312CD601C5018E199F09A00B70
:1003D000B10B898B9A8BAB8BBC8BEA0CFB1C0C1D75
:1003E0001D1D6FC0FB01EE0FFF1FE052FD4F80810E
:1003F00091819C0140E050E0A988BA88CB88DC88D4
:10040000A216B306C406D50600F52E153F05400713
:100410005107D8F4FB01EE0FFF1FEE51FD4F808115
:100420009181A0E0B0E0A984BA84CB84DC84A816D2
:10043000B906CA06DB0648F4AD80BE80CF80D884FA
:100440008A159B05AC05BD0570F189859A85AB853C
:10045000BC8582179307A407B50750F5A980BA8019
:10046000CB80DC802A153B054C055D0508F5FB01BA
:10047000EE0FFF1FEE51FD4F80819181A0E0B0E0B3
:1004800029893A894B895C89281739074A075B070C
:1004900078F48E159F05A007B10750F40894611CED
:1004A000711C811C911C660C771C881C991C07C050
:1004B0006D897E89662477244301222433246E5F6C
:1004C0007F4F4D895E896417750708F48BCF309292
:1004D000DB022092DA02969487947794679456957B
:1004E00047955E8B4D8BE091D802F091D902C40103
:1004F000B301920100EE12E019951092DB02109206
:10050000DA0210926703109266038091660390915D
:1005100067038334910540F01092670310926603DD
:100520001092DB021092DA028091660390916703C9
:10053000FC01EE0FFF1FE052FD4F20916803309148
:100540006903318320830196909367038093660348
:100550008D859E85AF85B8898093DC029093DD02FE
:10056000A093DE02B093DF0266960FB6F894DEBF6A
:100570000FBECDBFCF91DF911F910F91FF90EF90F4
:10058000DF90CF90BF90AF909F908F907F906F90B3
:100590005F904F903F902F9008950F931F938C0181
:1005A000FC0180810E94DF0B8FEF9FEFF8019183A8
:1005B00080831F910F9108950F931F93FC01862F45
:1005C0008A016083718362E471E041E050E00E943F
:1005D000630B1093D9020093D8021F910F910895D5
:1005E000CF92DF92EF92FF920F931F93CF93DF93FF
:1005F000EC017B016A018A819B818F5F9F4FA9F18A
:10060000088119813FEF0F3F130719F0CE010E94B7
:10061000CD028A8161E00E94EF098C819D819C015D
:10062000E29EC001E39E900DF29E900D11240E9467
:10063000270E8A8160E00E94EF098C819D819C01D8
:10064000C29EC001C39E900DD29E900D11240E94A7
:10065000270E3FEF0F3F130741F04091D802509112
:10066000D902CE01B8010E94DC02DF91CF911F9127
:100670000F91FF90EF90DF90CF90089561E070E0D0
:100680004FE150E00E94F00208950F931F938C01F8
:1006900061E070E043E050E00E94F002C80163E0D6
:1006A00070E041E050E00E94F0021F910F91089528
:1006B0000F931F938C0163E070E041E050E00E94D3
:1006C000F002C80163E070E041E050E00E94F002F7
:1006D0001F910F9108950F931F938C0161E070E0BB
:1006E00043E050E00E94F002C80161E070E043E0A6
:1006F00050E00E94F0021F910F910895CF92DF9277
:10070000EF92FF920F931F93CF93DF938C016B01B6
:10071000EE24FF2424C0C601BE010E940211FC0188
:10072000E081E13361F0E63431F0E03359F4C8019F
:100730000E946B0307C0C8010E94450303C0C801A3
:100740000E9458032196F60184819581C817D90724
:1007500010F3C8010E943E030894E11CF11CF8014B
:1007600086819781E816F9061CF4C0E0D0E0EBCF53
:10077000DF91CF911F910F91FF90EF90DF90CF907D
:1007800008950F931F93182F092FCB01BA010E94D0
:100790001711BC01812F902F0E946311812F902F80
:1007A0001F910F9108950F931F938C01FC0180817D
:1007B00091810E94C916F801138212821582148257
:1007C0001F910F9108953F924F925F926F927F9287
:1007D0008F929F92AF92BF92CF92DF92EF92FF9251
:1007E0000F931F93DF93CF93CDB7DEB7C854D0409C
:1007F0000FB6F894DEBF0FBECDBF582E492E3A017A
:100800006901302E8E010B5D1F4FC80160E072E060
:100810000E947E11CE018B9666E072E00E947E11EE
:10082000CE01C1966CE072E00E947E11CE01C796A7
:1008300062E172E00E947E11CE01CD9668E172E025
:100840000E947E11C8014E966EE172E00E947E11F8
:10085000F30184819581059741F41C141D042CF447
:10086000F6E0CF16D1040CF47DC0852D942D64E202
:1008700072E00E947E1167C0C301B7010E9402119D
:10088000FC018081803359F4C80165E272E00E9466
:100890007E11C401B8010E941711C8010AC0C50128
:1008A00067E272E00E947E11C401B5010E94171137
:1008B000C5010E94D3030894E11CF11C85E0E816F1
:1008C000F104D1F68E010D5E1F4FC801BE016F5FAE
:1008D0007F4F0E946311AE014B5D5F4FC601880FD1
:1008E000991F8C0D9D1D880F991F480F591FCE0110
:1008F0004996B8010E94C103E1E03E1619F069E291
:1009000072E002C06CE272E08E01015E1F4FC8010E
:100910000E947E1149E1E42EF12CEC0EFD1E852D86
:10092000942DB701A8010E94C103C8010E94D303FE
:10093000C7010E94D303CE0143960E94D303CE0188
:1009400001960E94D303CE0185968C010C5D1F4F4A
:100950007C0106501040C8010E94D3030E151F05EC
:10096000C1F714C08E010F5F1F4FC80164E272E02F
:100970000E947E11EE24FF2448013DE0A32EB12CFD
:10098000AC0EBD1E8E01095F1F4F76CF852D942DB5
:10099000C85BDF4F0FB6F894DEBF0FBECDBFCF915F
:1009A000DF911F910F91FF90EF90DF90CF90BF905C
:1009B000AF909F908F907F906F905F904F903F90FF
:1009C0000895AF92BF92CF92DF92EF92FF920F9372
:1009D0001F93DF93CF93CDB7DEB72C970FB6F89464
:1009E000DEBF0FBECDBF5C018A016E010894C11C41
:1009F000D11CC6010E94631147E0E42EF12CEC0EDD
:100A0000FD1EC701B501A601980100E00E94E303A5
:100A1000C501B7010E947E03C7010E94D303C6012E
:100A20000E94D3032C960FB6F894DEBF0FBECDBF45
:100A3000CF91DF911F910F91FF90EF90DF90CF90BA
:100A4000BF90AF900895AF92BF92CF92DF92EF9296
:100A5000FF920F931F93DF93CF93CDB7DEB72C9701
:100A60000FB6F894DEBF0FBECDBF5C018A016E01E8
:100A70000894C11CD11CC6010E94631157E0E52EE9
:100A8000F12CEC0EFD1EC701B501A601980101E095
:100A90000E94E303C501B7010E947E03C7010E94C3
:100AA000D303C6010E94D3032C960FB6F894DEBF81
:100AB0000FBECDBFCF91DF911F910F91FF90EF90AF
:100AC000DF90CF90BF90AF900895FC01862F628396
:100AD000738361E00E94560908958EE693E00E94B8
:100AE00032018CE793E00E948F080895CF92DF9245
:100AF000EF92FF920F931F93CF93DF93D82EC92EBF
:100B00000E94540A7C010027F7FC0095102FC1E0D9
:100B1000D0E08D2D0E94540AAA2797FDA095BA2FE8
:100B2000E80EF91E0A1F1B1F2196C436D10589F74E
:100B300082EF95E06BE472E00E94E41182EF95E0B1
:100B40006D2D7C2D4AE050E00E94CB1282EF95E0A3
:100B500060E572E00E94E411C801B7010E9493149D
:100B600020E030E048EC52E40E94F813AB01BC01F5
:100B700082EF95E022E030E00E948413DF91CF9174
:100B80001F910F91FF90EF90DF90CF900895EF921B
:100B9000FF920F931F937C018AE693E0B7010E94B6
:100BA000AC0702EF15E0C80162E572E00E94E411B3
:100BB000C801B7014AE050E00E94CB1280E5E82E60
:100BC00082E0F82EC801B7010E94E41160916A0327
:100BD00070916B03882777FD8095982F0E9493145E
:100BE000AB01BC01C80122E030E00E948113C801C2
:100BF000B7010E94E41160916C0370916D03882726
:100C000077FD8095982F0E949314AB01BC01C80119
:100C100022E030E00E9484131F910F91FF90EF902B
:100C2000089509C082EF95E00E94EF0FBC018CE7A8
:100C300093E00E94970882EF95E00E94C40F892BF1
:100C400089F7089582EF95E040E052EC61E070E0B2
:100C50000E94670F8CE793E061E376E00E949308BF
:100C60000895EF92FF920F931F93DF93CF93CDB729
:100C7000DEB72C970FB6F894DEBF0FBECDBF2FC1E5
:100C80008CE793E069E572E00E940609882309F485
:100C900065C08CE793E00E9441097C018CE793E0FA
:100CA0006DE572E00E940609882349F48CE793E021
:100CB00061E672E00E940609882309F418C18E2DAE
:100CC00061E00BC08CE793E068E672E00E940609E1
:100CD000882309F416C18E2D60E00E9456092FC1A9
:100CE0008CE793E06EE672E00E940609882309F41F
:100CF00012C18E2D53C08CE793E060E772E00E9432
:100D00000609882309F411C18E2D61E00E94EF09C4
:100D100016C18E2D0E94240A8C0182EF95E062E7B5
:100D200072E00E94E41182EF95E0B7014AE050E0E2
:100D30000E94CB1282EF95E060E572E00E94E41120
:100D400082EF95E0B8014AE050E00E94CB1282EFBA
:100D500095E067E772E00E94E411F1C08CE793E050
:100D600069E772E00E940609882339F08CE793E076
:100D70000E9441090E947605E2C08CE793E06DE78E
:100D800072E00E9406098823A9F08CE793E061E8ED
:100D900072E00E940609882319F08DE060E0B6CF6A
:100DA0008CE793E065E872E00E940609882311F061
:100DB0008DE0ABCF8CE793E068E872E00E94060913
:100DC000882371F08CE793E00E944109182F8CE78B
:100DD00093E00E944109BC01812F0E94880AAFC0A4
:100DE0008CE793E06CE872E00E940609882399F191
:100DF0008CE793E00E9441098C018CE793E066E761
:100E000073E046E00E9421098CE793E00E944109CB
:100E10007C018EE693E0B8010E9465058E010F5FAC
:100E20001F4FC80166E773E00E947E118EE693E0D3
:100E3000B801A7010E94230589819A810E94C916E1
:100E40001C821B821E821D8268EE73E080E090E0AF
:100E50000E94010E74C08CE793E067E972E00E9483
:100E60000609882349F18CE793E00E9441098C012F
:100E70008CE793E066E773E046E00E9421098CE787
:100E800093E00E9441097C018EE693E0B8010E9444
:100E900065058E01095F1F4FC80166E773E00E9478
:100EA0007E118EE693E0B801A7010E94E1048F81D4
:100EB00098850E94C91643C08CE793E063EA72E00C
:100EC0000E940609882339F08CE793E00E944109CB
:100ED0000E94C70534C08CE793E00E9441098CE76B
:100EE00093E00E940309882309F0CACE28C08CE74A
:100EF00093E069EA72E00E940609882309F0EBCECC
:100F0000E1CE8CE793E06CEA72E00E940609882348
:100F100009F0EFCEE5CE8CE793E060EB72E00E9443
:100F20000609882309F0F0CEE6CE8CE793E065EB66
:100F300072E00E940609882309F410CFEACE2C96AD
:100F40000FB6F894DEBF0FBECDBFCF91DF911F91DA
:100F50000F91FF90EF9008952F923F925F926F92C2
:100F60007F928F929F92AF92BF92CF92DF92EF9239
:100F7000FF920F931F93DF93CF9300D00F920F92A6
:100F8000CDB7DEB73C01962E19821A821B821C82D5
:100F90001D82862F61E00E945609892D60E00E9423
:100FA000EF0962E170E080E090E00E94010E892D7F
:100FB00061E00E94EF0988E290E00E94270E892DEF
:100FC00060E00E94560900E117E205C00115110515
:100FD000A1F101501040892D0E94240A892BB1F300
:100FE00000E117E205C00115110539F1015010406B
:100FF000892D0E94240A0197B1F306C0011511053D
:10100000E1F0015010400AC027E0822E5524AA24A6
:10101000BB2491E0292E312C00E117E2892D0E949A
:10102000240A892B59F30E94DB0D6B017C0100E13E
:1010300017E208C00115110519F42EEF3FEF41C06A
:1010400001501040892D0E94240A019799F30E94B3
:10105000DB0D6C197D098E099F09693271058105C7
:10106000910580F0E1E0F0E0EC0FFD1FE50DF11DD2
:101070009101082C02C0220F331F0A94E2F78081ED
:10108000822B8083882021F4539487E0882E01C02E
:101090008A940894A11CB11C88E2A816B10409F036
:1010A000BBCF8981F301808311829B81928313825C
:1010B000980F8D81891719F420E030E002C02FEFDE
:1010C0003FEFC9010F900F900F900F900F90CF91AD
:1010D000DF911F910F91FF90EF90DF90CF90BF9025
:1010E000AF909F908F907F906F905F903F902F90E8
:1010F0000895FC011282118267831086E55BFF4F21
:1011000080E481938FE38083EC54F0401286108258
:10111000148213821682158281E08187089560E22D
:101120000E9479080895FC01728361830895CF932A
:10113000DF93EC0118821616170684F56A307105E4
:1011400069F16D30710521F06115710539F110C03B
:101150008A85FE01E80FF11D13861A861E821D8204
:1011600081E089878883CE010B969C838B8316C090
:101170008A85FE01E80FF11D63878F5F8A87C45B54
:10118000DF4F9881CC54D040891740F01A861882DE
:101190001C821B821E821D8281E0898788818130AA
:1011A00029F4E981FA81309709F019958881DF9156
:1011B000CF910895CF93DF93EC0188818823F9F0D4
:1011C000813019F020E030E005C09E01255F3F4FDF
:1011D00082E088838985882359F0BE01695F7F4F4B
:1011E000AE014B5F5F4FC9010E9453189C838B83F4
:1011F0008B819C81892B19F0198681E001C080E0E8
:10120000DF91CF9108950E94DA0808950F931F93FC
:10121000CF93DF93EC018B010E94DA08882351F011
:101220006B817C81C8010E942F18009721F481E016
:10123000898702C001C080E0DF91CF911F910F919B
:101240000895FF920F931F93CF93DF93EC018B01CF
:10125000F42E0E94DA08882351F081E089876B819F
:101260007C81C8014F2D50E00E943F1804C0FF2030
:1012700011F0F8011082DF91CF911F910F91FF9033
:101280000895CF93DF93EC010E94DA08882319F4C4
:1012900020E030E007C081E089878B819C810E943B
:1012A000FD179C01C901DF91CF910895482F50E0AF
:1012B000CA0188589E4FFC0124914E5C5E4FFA0192
:1012C00084918823C1F0E82FF0E0EE0FFF1FEC516E
:1012D000FF4FA591B491662341F49FB7F8948C9188
:1012E000209582238C939FBF08959FB7F8948C918B
:1012F000822B8C939FBF0895893009F448C08A30AF
:10130000A0F4843049F1853040F4823071F18330AB
:10131000F8F4813009F062C025C0873071F188305F
:1013200090F5863009F05AC024C08D3009F441C0D0
:101330008E3028F48B30A9F18C30B8F52CC08F306A
:1013400009F441C08F30D8F1803109F047C041C065
:10135000809180008F7703C0809180008F7D809383
:101360008000089584B58F7702C084B58F7D84BDD9
:1013700008958091B0008F7703C08091B0008F7D79
:101380008093B0000895809190008F7707C080917E
:1013900090008F7D03C080919000877F80939000A4
:1013A00008958091A0008F7707C08091A0008F7D65
:1013B00003C08091A000877F8093A0000895809152
:1013C00020018F7703C0809120018F7D80932001C1
:1013D000089580912001877F809320010895FF92D6
:1013E0000F931F93F62E482F50E0CA0182549E4F50
:1013F000FC012491CA0188589E4FFC0114914E5C57
:101400005E4FFA0104910023D9F0222319F0822FB4
:101410000E947C09E02FF0E0EE0FFF1FE250FF4F2B
:10142000A591B491FF2031F49FB7F8948C91109559
:10143000812304C09FB7F8948C91812B8C939FBF1C
:101440001F910F91FF9008950F931F93482F50E025
:10145000CA0182549E4FFC012491CA0188589E4FB4
:10146000FC0104914E5C5E4FFA011491112319F4B2
:1014700020E030E015C0222319F0822F0E947C0961
:10148000812F90E0880F991F885E9E4FFC01A591E7
:10149000B4918C9120E030E0802311F021E030E025
:1014A000C9011F910F910895382F863308F03653E4
:1014B00020917B00832F86958695869590E081709C
:1014C000907043E0880F991F4A95E1F7277F282BFA
:1014D00020937B0037708091C4028295880F880F1B
:1014E000807C832B80937C0080917A008064809341
:1014F0007A0080917A0086FDFCCF2091780040919F
:101500007900942F80E030E0282B392BC901089511
:101510001F93CF93DF93182FEB0161E00E945609D0
:10152000209709F4C5C0CF3FD10509F4C4C0E12F0D
:10153000F0E0E254FE4F8491893009F466C08A30AD
:10154000B0F48430F1F1853040F4823059F18330C9
:1015500070F5813009F0A9C020C0873009F443C07C
:10156000883008F048C0863009F09FC034C08D3004
:1015700009F473C08E3038F48B3009F45AC08C30C3
:1015800008F061C04CC08F3009F47BC08F3008F484
:101590006EC0803109F089C07EC084B5806884BD8A
:1015A000C7BD8DC084B5806284BDC8BD88C0809130
:1015B0008000806880938000D0938900C093880069
:1015C0007EC080918000806280938000D0938B00E9
:1015D000C0938A0074C08091B00080688093B0008E
:1015E000C093B3006CC08091B00080628093B00063
:1015F000C093B40064C08091900080688093900094
:10160000D0939900C09398005AC080919000806256
:1016100080939000D0939B00C0939A0050C080911B
:101620009000886080939000D0939D00C0939C00B0
:1016300046C08091A00080688093A000D093A9004C
:10164000C093A8003CC08091A00080628093A0005D
:10165000D093AB00C093AA0032C08091A0008860F4
:101660008093A000D093AD00C093AC0028C08091BF
:101670002001806880932001D0932901C093280124
:101680001EC080912001806280932001D0932B01A5
:10169000C0932A0114C080912001886080932001AA
:1016A000D0932D01C0932C010AC0C038D1051CF481
:1016B000812F60E002C0812F61E00E94EF09DF917D
:1016C000CF911F910895883008F078C0E82FF0E09E
:1016D000EE0FFF1FE753FC4F718360838330D9F017
:1016E000843030F4813009F444C0823060F439C071
:1016F000853051F18530D8F0863009F446C0873006
:1017000009F05CC04FC0809169008C7F842B80936E
:101710006900E89A089580916900440F551F440FAD
:10172000551F837F842B80936900E99A08958091E7
:10173000690074E0440F551F7A95E1F78F7C842B84
:1017400080936900EA9A08958091690066E0440FE9
:10175000551F6A95E1F78F73842B80936900EB9A8C
:10176000089580916A008C7F842B80936A00EC9AA4
:10177000089580916A00440F551F440F551F837FC1
:10178000842B80936A00ED9A089580916A0024E08A
:10179000440F551F2A95E1F78F7C842B80936A00B4
:1017A000EE9A089580916A0096E0440F551F9A952D
:1017B000E1F78F73842B80936A00EF9A0895883045
:1017C00048F5833091F0843028F48130B1F08230D4
:1017D00050F411C0853069F0853048F0863079F0DA
:1017E000873081F40EC0E8980DC0E9980BC0EA98E4
:1017F00009C0EB9807C0EC9805C0ED9803C0EE98BF
:1018000001C0EF98E82FF0E0EE0FFF1FE753FC4F09
:101810001182108208951F920F920FB60F920BB68D
:101820000F9211242F933F934F935F936F937F9366
:101830008F939F93AF93BF93EF93FF938091CD03CB
:101840009091CE03892B29F0E091CD03F091CE0346
:101850001995FF91EF91BF91AF919F918F917F91DA
:101860006F915F914F913F912F910F900BBE0F9011
:101870000FBE0F901F9018951F920F920FB60F92E8
:101880000BB60F9211242F933F934F935F936F9357
:101890007F938F939F93AF93BF93EF93FF93809129
:1018A000CF039091D003892B29F0E091CF03F091E1
:1018B000D0031995FF91EF91BF91AF919F918F91B7
:1018C0007F916F915F914F913F912F910F900BBE40
:1018D0000F900FBE0F901F9018951F920F920FB68A
:1018E0000F920BB60F9211242F933F934F935F9358
:1018F0006F937F938F939F93AF93BF93EF93FF93D8
:101900008091D1039091D203892B29F0E091D103EA
:10191000F091D2031995FF91EF91BF91AF919F91F3
:101920008F917F916F915F914F913F912F910F9088
:101930000BBE0F900FBE0F901F9018951F920F9225
:101940000FB60F920BB60F9211242F933F934F9324
:101950005F936F937F938F939F93AF93BF93EF9317
:10196000FF938091D3039091D403892B29F0E091C8
:10197000D303F091D4031995FF91EF91BF91AF91EB
:101980009F918F917F916F915F914F913F912F9197
:101990000F900BBE0F900FBE0F901F9018951F92C7
:1019A0000F920FB60F920BB60F9211242F933F9305
:1019B0004F935F936F937F938F939F93AF93BF9357
:1019C000EF93FF938091C9039091CA03892B29F06B
:1019D000E091C903F091CA031995FF91EF91BF916E
:1019E000AF919F918F917F916F915F914F913F91B7
:1019F0002F910F900BBE0F900FBE0F901F90189558
:101A00001F920F920FB60F920BB60F9211242F93C5
:101A10003F934F935F936F937F938F939F93AF9376
:101A2000BF93EF93FF938091CB039091CC03892BCD
:101A300029F0E091CB03F091CC031995FF91EF9140
:101A4000BF91AF919F918F917F916F915F914F91D6
:101A50003F912F910F900BBE0F900FBE0F901F90D4
:101A600018951F920F920FB60F920BB60F9211247A
:101A70002F933F934F935F936F937F938F939F9396
:101A8000AF93BF93EF93FF938091D5039091D603CB
:101A9000892B29F0E091D503F091D6031995FF9198
:101AA000EF91BF91AF919F918F917F916F915F91D6
:101AB0004F913F912F910F900BBE0F900FBE0F9043
:101AC0001F9018951F920F920FB60F920BB60F92A0
:101AD00011242F933F934F935F936F937F938F9333
:101AE0009F93AF93BF93EF93FF938091D703909110
:101AF000D803892B29F0E091D703F091D8031995E9
:101B0000FF91EF91BF91AF919F918F917F916F91D5
:101B10005F914F913F912F910F900BBE0F900FBE91
:101B20000F901F9018951F920F920FB60F921124CD
:101B30002F933F938F939F93AF93BF938091DD0338
:101B40009091DE03A091DF03B091E0033091E103B7
:101B50000196A11DB11D232F2D5F2D3720F02D578C
:101B60000196A11DB11D2093E1038093DD039093A5
:101B7000DE03A093DF03B093E0038091D90390913B
:101B8000DA03A091DB03B091DC030196A11DB11D26
:101B90008093D9039093DA03A093DB03B093DC0323
:101BA000BF91AF919F918F913F912F910F900FBE59
:101BB0000F901F9018959FB7F8942091D9033091FA
:101BC000DA034091DB035091DC0386B5A89B06C085
:101BD0008F3F21F02F5F3F4F4F4F5F4F9FBF542FDD
:101BE000432F322F2227280F311D411D511D82E026
:101BF000220F331F441F551F8A95D1F7B901CA011F
:101C00000895EF92FF920F931F93CF93DF937B0181
:101C10008C010E94DB0DEB010EC00E94DB0D6C1BE2
:101C20007D0B685E7340C8F30894E108F108010970
:101C30001109C851DC4FE114F1040105110569F7E0
:101C4000DF91CF911F910F91FF90EF900895019731
:101C500039F0880F991F880F991F02970197F1F7A4
:101C60000895789484B5826084BD84B5816084BD14
:101C700085B5826085BD85B5816085BDEEE6F0E005
:101C8000808181608083E1E8F0E010828081826061
:101C90008083808181608083E0E8F0E080818160E2
:101CA0008083E1EBF0E0808184608083E0EBF0E012
:101CB000808181608083E1E9F0E0808182608083BF
:101CC000808181608083E0E9F0E0808181608083B1
:101CD000E1EAF0E08081826080838081816080839E
:101CE000E0EAF0E0808181608083E1E2F1E08081E0
:101CF00082608083808181608083E0E2F1E0808186
:101D000081608083EAE7F0E0808184608083808165
:101D1000826080838081816080838081806880830D
:101D20001092C10008951F920F920FB60F920BB63A
:101D30000F9211242F933F934F938F939F93EF9381
:101D4000FF934091C600E0916204F09163043196E4
:101D50009F012F77307031978091640490916504D2
:101D60002817390739F0EE51FC4F40833093630454
:101D700020936204FF91EF919F918F914F913F913A
:101D80002F910F900BBE0F900FBE0F901F901895C4
:101D90001F920F920FB60F920BB60F9211242F9332
:101DA0003F934F938F939F93EF93FF934091CE0078
:101DB000E091E604F091E70431969F012F773070AF
:101DC00031978091E8049091E9042817390739F098
:101DD000EA59FB4F40833093E7042093E604FF91D8
:101DE000EF919F918F914F913F912F910F900BBE4B
:101DF0000F900FBE0F901F9018951F920F920FB665
:101E00000F920BB60F9211242F933F934F938F9302
:101E10009F93EF93FF934091D600E0916A05F09174
:101E20006B0531969F012F773070319780916C054B
:101E300090916D052817390739F0E651FB4F408323
:101E400030936B0520936A05FF91EF919F918F91DD
:101E50004F913F912F910F900BBE0F900FBE0F909F
:101E60001F9018951F920F920FB60F920BB60F92FC
:101E700011242F933F934F938F939F93EF93FF934F
:101E800040913601E091EE05F091EF0531969F010A
:101E90002F77307031978091F0059091F1052817D8
:101EA000390739F0E259FA4F40833093EF05209318
:101EB000EE05FF91EF919F918F914F913F912F915F
:101EC0000F900BBE0F900FBE0F901F901895CF93E1
:101ED000DF93EC019A01AB01E885F985203081EEB2
:101EE000380780E0480780E0580709F449C081E0DE
:101EF00090E00A8802C0880F991F0A94E2F7808355
:101F000060E079E08DE390E00E94FB1521503040C5
:101F100040405040CA01B90122E030E040E050E0CA
:101F20000E94FB15EC81FD813083EE81FF812083CF
:101F3000EA85FB85208141E050E0CA010E8402C0A1
:101F4000880F991F0A94E2F7282B2083EA85FB85E6
:101F50002081CA010F8402C0880F991F0A94E2F7FA
:101F6000282B2083EA85FB858081088802C0440FE6
:101F7000551F0A94E2F7842B8083DF91CF91089557
:101F8000108220E130E0CECFDC011296ED91FC9181
:101F90001397E058FF4F2191319180819181281B47
:101FA000390B2F773070C9010895DC011296ED913D
:101FB000FC911397EE57FF4F2081318192918291CE
:101FC000E058F0408217930719F42FEF3FEF05C058
:101FD000E20FF31F8081282F30E0C9010895DC0152
:101FE0001296ED91FC911397DF01AE57BF4F2D91E3
:101FF0003C911197E058FF4F80819181E058F0406B
:102000008217930719F42FEF3FEF0BC0E20FF31F76
:1020100080812F5F3F4F2F7730702D933C93282F77
:1020200030E0C9010895DC011296ED91FC911397FF
:10203000EE57FF4F80819181929382930895FC0126
:10204000A085B18521898C9190E0022E02C09595E2
:1020500087950A94E2F780FFF6CF0484F585E02D9A
:102060006083089529EC32E03093F3052093F20564
:1020700082EE93E09093F5058093F40585EC90E073
:102080009093F7058093F60584EC90E09093F90522
:102090008093F80580EC90E09093FB058093FA051F
:1020A00081EC90E09093FD058093FC0586EC90E038
:1020B0009093FF058093FE05E4E0E093000673E053
:1020C0007093010667E06093020655E050930306A3
:1020D00041E040930406309306062093050686E609
:1020E00094E090930806809307068DEC90E090931F
:1020F0000A06809309068CEC90E090930C0680937E
:102100000B0688EC90E090930E0680930D0689EC08
:1021100090E09093100680930F068EEC90E09093E1
:10212000120680931106E0931306709314066093D1
:102130001506509316064093170630931906209300
:1021400018068AEE94E090931B0680931A0685ED9C
:1021500090E090931D0680931C0684ED90E0909390
:102160001F0680931E0680ED90E0909321068093D9
:10217000200681ED90E0909323068093220686ED61
:1021800090E09093250680932406E09326067093B2
:102190002706609328065093290640932A06309319
:1021A0002C0620932B068EE695E090932E068093C6
:1021B0002D0685E391E09093300680932F0684E30B
:1021C00091E0909332068093310680E391E0909302
:1021D00034068093330681E391E090933606809332
:1021E000350686E391E09093380680933706E093B6
:1021F000390670933A0660933B0650933C06409331
:102200003D060895FC019B0184819581681779073B
:1022100028F4608171816115710529F410923E06E0
:102220006EE376E002C0620F731FCB0108950F9337
:102230001F93CF93DF93EC018B01FB0164817581C8
:102240008C819D81680F791F7D836C838A819B813E
:1022500086179707B8F46F5F7F4F888199810E9436
:1022600021174C815D81009729F0998388835B83D6
:102270004A8308C0F80184819581481B590B5D830E
:102280004C8307C0F80160817181888199810E9427
:102290002418CE01DF91CF911F910F910895CF9314
:1022A000DF93EC01CB017B836A8301960E941C16AD
:1022B00099838883009721F41B821A821D821C82D5
:1022C000DF91CF9108950F931F93CF93DF938C01EC
:1022D000EB016C817D81FC01758364830E944F1149
:1022E000F80180819181009721F0688179810E94B5
:1022F0003818DF91CF911F910F9108950F931F937D
:10230000CF93DF938C01EB016115710511F4CBEBD9
:10231000D2E0FE0101900020E9F73197EC1BFD0BA4
:10232000D8011596FC93EE931497C801BF010E9443
:102330004F11F80180819181009719F0BE010E9430
:102340003818DF91CF911F910F9108950E94310E9F
:102350000E9422060E941106FDCF0F931F93CF9378
:10236000DF938C01EB0109C02196D801ED91FC911E
:102370000190F081E02DC801199568816623A1F7CD
:10238000DF91CF911F910F910895EF92FF920F93DC
:102390001F93CF93DF938C017B01EA010CC0D7011F
:1023A0006D917D01D801ED91FC910190F081E02DBE
:1023B000C80119952197209791F7DF91CF911F912F
:1023C0000F91FF90EF900895DC01ED91FC91028058
:1023D000F381E02D199508952F923F924F925F92CD
:1023E0006F927F928F929F92AF92BF92CF92DF9225
:1023F000EF92FF920F931F93DF93CF93CDB7DEB78A
:10240000A0970FB6F894DEBF0FBECDBF1C016A01C6
:102410007B01411551056105710549F440E350E028
:1024200060E070E020E030E00E94951256C0882401
:1024300099245401422E55246624772401E010E0AB
:102440000C0F1D1F080D191DC701B601A301920134
:102450000E94D915F80160830894811C911CA11C6D
:10246000B11CC701B601A30192010E94D915C9018F
:10247000DA016C017D01C114D104E104F104F1F62B
:1024800081E0E82EF12CEC0EFD1EE80CF91C3E015B
:102490000894611C711CD501C4010197A109B109FF
:1024A0006C01C818D90816C0F601EE0DFF1D408159
:1024B0004A3010F4405D01C0495C552747FD5095F6
:1024C000652F752FC10120E030E00E94951208941D
:1024D000E108F1086E147F0439F7A0960FB6F8945E
:1024E000DEBF0FBECDBFCF91DF911F910F91FF9047
:1024F000EF90DF90CF90BF90AF909F908F907F90A4
:102500006F905F904F903F902F900895DC012115C0
:10251000310541F4ED91FC910190F081E02D642FA3
:10252000199508950E94EC110895EF92FF920F9370
:102530001F93CF93DF93EC017A018B0121153105B5
:1025400041F4E881F9810190F081E02D642F199523
:102550001BC02A303105B1F477FF10C04DE250E0C6
:1025600060E070E020E030E00E9495121095009548
:10257000F094E094E11CF11C011D111DCE01B80185
:10258000A7012AE00E94EC11DF91CF911F910F91DA
:10259000FF90EF900895EF92FF920F931F937B01AE
:1025A0009A010027F7FC0095102FB801A7010E949F
:1025B00095121F910F91FF90EF9008950F931F9325
:1025C0008C014DE050E060E070E020E030E00E94DF
:1025D0009512C8014AE050E060E070E020E030E091
:1025E0000E9495121F910F9108959F92AF92BF92F2
:1025F000CF92DF92EF92FF920F931F93CF93DF93CF
:10260000EC017A018B01922ECB01BA0120E030E07F
:1026100040E050E00E94F41388236CF4CE014DE2B8
:1026200050E060E070E020E030E00E94951217FB7F
:10263000109517F91095AA2420E030E040E05FE300
:102640000BC0CA01B90120E030E040E251E40E9431
:10265000F8139B01AC01A394A91498F3C801B70126
:102660000E9490135B016C010E9465147B018C0138
:10267000CE01B801A7012AE030E00E94861299201D
:1026800029F0CE016CEB72E00E94E411C801B701A1
:102690000E9491149B01AC01C601B5010E948F13E9
:1026A00022C020E030E040E251E40E9443157B016B
:1026B0008C010E9460145B016C01CC24B7FCC094B7
:1026C000DC2CCE01B601A5012AE030E00E94951273
:1026D000C601B5010E9493149B01AC01C801B7016A
:1026E0000E948F139A949920E1F6DF91CF911F9168
:1026F0000F91FF90EF90DF90CF90BF90AF909F90A1
:1027000008950E94F51208950F931F938C010E9463
:10271000F512C8010E94DE121F910F9108955058C2
:10272000BB27AA270ED075C166D130F06BD120F03F
:1027300031F49F3F11F41EF45BC10EF4E095E7FB0A
:1027400051C1E92F77D180F3BA1762077307840765
:10275000950718F071F49EF58FC10EF4E0950B2EDD
:10276000BA2FA02D0B01B90190010C01CA01A001E3
:102770001124FF27591B99F0593F50F4503E68F13E
:102780001A16F040A22F232F342F4427585FF3CF7F
:10279000469537952795A795F0405395C9F77EF450
:1027A0001F16BA0B620B730B840BBAF09150A1F099
:1027B000FF0FBB1F661F771F881FC2F70EC0BA0F1F
:1027C000621F731F841F48F4879577956795B795A7
:1027D000F7959E3F08F0B3CF9395880F08F099279F
:1027E000EE0F979587950895D9D008F481E0089564
:1027F0000CD00FC107D140F0FED030F021F45F3F84
:1028000019F0F0C0511139C1F3C014D198F39923D4
:10281000C9F35523B1F3951B550BBB27AA276217A4
:102820007307840738F09F5F5F4F220F331F441FE9
:10283000AA1FA9F333D00E2E3AF0E0E830D0915021
:102840005040E695001CCAF729D0FE2F27D0660F0E
:10285000771F881FBB1F261737074807AB07B0E84D
:1028600009F0BB0B802DBF01FF2793585F4F2AF063
:102870009E3F510568F0B6C000C15F3FECF3983E43
:10288000DCF3869577956795B795F7959F5FC9F7C0
:10289000880F911D9695879597F90895E1E0660F49
:1028A000771F881FBB1F621773078407BA0720F0C2
:1028B000621B730B840BBA0BEE1F88F7E09508952B
:1028C00004D06894B111D9C00895BCD088F09F5746
:1028D00090F0B92F9927B751A0F0D1F0660F771F6C
:1028E000881F991F1AF0BA95C9F712C0B13081F04C
:1028F000C3D0B1E00895C0C0672F782F8827B85F94
:1029000039F0B93FCCF3869577956795B395D9F7AC
:102910003EF490958095709561957F4F8F4F9F4FB6
:102920000895E89409C097FB3EF4909580957095C2
:1029300061957F4F8F4F9F4F9923A9F0F92F96E90B
:10294000BB279395F695879577956795B795F11180
:10295000F8CFFAF4BB0F11F460FF1BC06F5F7F4F1D
:102960008F4F9F4F16C0882311F096E911C077232F
:1029700021F09EE8872F762F05C0662371F096E838
:10298000862F70E060E02AF09A95660F771F881F07
:10299000DAF7880F9695879597F90895990F0008AB
:1029A000550FAA0BE0E8FEEF16161706E807F90721
:1029B000C0F012161306E407F50798F0621B730BBC
:1029C000840B950B39F40A2661F0232B242B252B3D
:1029D00021F408950A2609F4A140A6958FEF811DE0
:1029E000811D089597F99F6780E870E060E0089581
:1029F0009FEF80EC089500240A9416161706180617
:102A00000906089500240A941216130614060506F2
:102A10000895092E0394000C11F4882352F0BB0F83
:102A200040F4BF2B11F460FF04C06F5F7F4F8F4FE6
:102A30009F4F089557FD9058440F551F59F05F3F21
:102A400071F04795880F97FB991F61F09F3F79F0D0
:102A500087950895121613061406551FF2CF469552
:102A6000F1DF08C0161617061806991FF1CF8695D4
:102A70007105610508940895E894BB2766277727B8
:102A8000CB0197F908950BD0C4CFB5DF28F0BADF9A
:102A900018F0952309F0A6CFABCF1124EECFCADFF3
:102AA000A0F3959FD1F3950F50E0551F629FF00161
:102AB000729FBB27F00DB11D639FAA27F00DB11DBA
:102AC000AA1F649F6627B00DA11D661F829F222743
:102AD000B00DA11D621F739FB00DA11D621F839FCA
:102AE000A00D611D221F749F3327A00D611D231FA0
:102AF000849F600D211D822F762F6A2F11249F57EE
:102B000050408AF0E1F088234AF0EE0FFF1FBB1F10
:102B1000661F771F881F91505040A9F79E3F5105AF
:102B200070F060CFAACF5F3FECF3983EDCF3869560
:102B300077956795B795F795E7959F5FC1F7FE2B5A
:102B4000880F911D9695879597F90895629FD001FA
:102B5000739FF001829FE00DF11D649FE00DF11D58
:102B6000929FF00D839FF00D749FF00D659FF00D07
:102B70009927729FB00DE11DF91F639FB00DE11DF4
:102B8000F91FBD01CF0111240895AA1BBB1B51E100
:102B900007C0AA1FBB1FA617B70710F0A61BB70BCD
:102BA000881F991F5A95A9F780959095BC01CD0172
:102BB0000895A1E21A2EAA1BBB1BFD010DC0AA1F7E
:102BC000BB1FEE1FFF1FA217B307E407F50720F096
:102BD000A21BB30BE40BF50B661F771F881F991F11
:102BE0001A9469F760957095809590959B01AC015A
:102BF000BD01CF01089597FB092E05260ED057FD84
:102C000004D0D7DF0AD0001C38F450954095309599
:102C100021953F4F4F4F5F4F0895F6F79095809560
:102C2000709561957F4F8F4F9F4F0895EE0FFF1F57
:102C30000590F491E02D1994CF93DF93BC0182307D
:102C4000910510F462E070E0A0914106B091420657
:102C5000ED01E0E0F0E040E050E021C088819981A2
:102C60008617970769F48A819B81309719F09383BF
:102C7000828304C09093420680934106FE0134C0D3
:102C80006817790738F44115510519F0841795072D
:102C900008F4AC01FE018A819B819C01E901209727
:102CA000E9F641155105A9F1CA01861B970B049756
:102CB00008F4BA01E0E0F0E02AC08D919C911197F0
:102CC00084179507F9F46417750781F412968D91AE
:102CD0009C911397309719F09383828304C090934B
:102CE000420680934106FD0132964FC0CA01861B01
:102CF000970BFD01E80FF91F6193719302978D9374
:102D00009C9343C0FD01828193819C01D90110975E
:102D1000A1F680913F0690914006892B41F4809165
:102D2000C0029091C1029093400680933F0640916B
:102D3000C2025091C3024115510541F44DB75EB72F
:102D40008091BE029091BF02481B590B20913F0613
:102D50003091400624173507B0F4CA01821B930B4B
:102D60008617970780F0AB014E5F5F4F841795077A
:102D700050F0420F531F5093400640933F06F90115
:102D80006193719302C0E0E0F0E0CF01DF91CF9159
:102D90000895CF93DF93009709F450C0EC01229778
:102DA0001B821A82A0914106B0914206109709F148
:102DB00040E050E0AC17BD0708F1BB83AA83FE01D9
:102DC00021913191E20FF31FAE17BF0779F48D9176
:102DD0009C911197280F391F2E5F3F4F398328830D
:102DE00012968D919C9113979B838A83411551056F
:102DF00071F4D0934206C093410620C012968D9183
:102E00009C911397AD01009711F0DC01D3CFFA012B
:102E1000D383C28321913191E20FF31FCE17DF07D5
:102E200069F488819981280F391F2E5F3F4FFA017D
:102E3000318320838A819B8193838283DF91CF9129
:102E400008958F929F92AF92BF92CF92DF92EF92AE
:102E5000FF920F931F93CF93DF938C01009729F478
:102E6000CB010E941C168C01BAC09EEFE92E9FEF89
:102E7000F92EE00EF11E5801A60EB71EAE14BF04C7
:102E800008F4ABC08EEF882E8FEF982E8A0C9B1C17
:102E9000E7014881598146175707B8F04530510579
:102EA00008F49DC0CA0104978617970708F497C0D5
:102EB00042505040461B570BF401518340837983A5
:102EC0006883C5010E94C9168AC06B01C41AD50A5D
:102ED000E0914106F0914206A0E0B0E0C0E0D0E011
:102EE00042C0E815F905A1F5208131812C153D0579
:102EF00078F1C90102968C159D05A8F04E5F5F4FD1
:102F0000420F531FE7015983488322813381109771
:102F100029F013963C932E93129761C0309342068A
:102F2000209341065CC0225030402C193D0931836A
:102F30002083109729F01396FC93EE93129704C008
:102F4000F0934206E0934106F7017183608347C026
:102F500080819181C817D90708F4EC01DF018281D3
:102F600093819C01F901309709F0BBCF400F511FAD
:102F700080913F069091400684179507E9F4C617A3
:102F8000D707D0F42091C2023091C3022115310538
:102F900041F42DB73EB78091BE029091BF02281B2D
:102FA000390BA216B306C8F4B0924006A0923F06B1
:102FB000E7017983688313C0CB010E941C16EC01E2
:102FC000009759F0F70140815181B8010E941B1808
:102FD000C8010E94C9168E0102C000E010E0C801BD
:102FE000DF91CF911F910F91FF90EF90DF90CF90E5
:102FF000BF90AF909F908F900895FC0188279927EC
:10300000E89421912032E9F3293010F02E30C8F3F2
:103010002B3241F02D3239F4689404C00E947A18A2
:10302000820F911D219120532A30C0F31EF49095F8
:1030300081959F4F0895FB01DC0102C001900D9224
:1030400041505040D8F70895FB01DC010D9000205D
:10305000E9F7119701900D920020E1F70895FB0127
:10306000DC018D91019080190110D9F3990B08951D
:10307000FB01DC0101900D920020E1F70895DC01D5
:10308000FB014150504058F049F001900D92002052
:10309000C1F7E61BF70B3197CF0108951C92019001
:1030A0000020E9F7F6CFFA01A191B081009719F459
:1030B0001097E1F0CD01DC01CD010D90002011F45D
:1030C000C00113C0FB012191222319F02015D9F76B
:1030D000F3CFFB012191201519F41E92119606C021
:1030E0002223C1F70D900020A1F7D001FA01A1938E
:1030F000B08308957AE0979F902D879F802D910D42
:0831000011240895F894FFCF9B
:10310800464646464600304646464600463046460F
:103118004600464630464600464646304600464645
:103128004646300000460030004630003046004633
:103138004646460030464646004630464600464625
:10314800304600464646300046460061646320002B
:1031580020006468743131200070696E006F7574E6
:10316800006F757470757400696E70757400300046
:10317800310070696E20000A00616463006C656448
:10318800006F6666006F6E0070776D00726373770C
:10319800697463686F6E0072637377697463686FCC
:1031A800666600646874313100696E006C6F770080
:1031B8006869676800737461746500002E002000F8
:1031C8004306000001000000001F10AD11C511C426
:0831D8000FEF0FD50F131000DB
:00000001FF
