:100000000C9426010C94FA120C942B130C945C1390
:100010000C948D130C94BE130C94EF130C942014B9
:100020000C9451140C9457010C9457010C945701E3
:100030000C9457010C94E0090C9457010C9457014F
:100040000C9457010C9457010C9457010C945701D0
:100050000C9457010C9457010C9457010C94821482
:100060000C9457010C94170B0C94070C0C9457012B
:100070000C9457010C9457010C9457010C945701A0
:100080000C9457010C9457010C9457010C94570190
:100090000C944B0B0C94460C0C9457010C94570188
:1000A0000C9457010C9457010C9457010C94570170
:1000B0000C9457010C9457010C9457010C94570160
:1000C0000C9457010C9457010C9457010C947F0B1E
:1000D0000C94850C0C9457010C94B30B0C94C40C29
:1000E0000C945701A710AA109D10A110E110AE109A
:1000F000B210B810BC10C010C610CA10CE10E1105B
:10010000D410D810DC10C411C911CE11D81151125D
:10011000E211EA11F211FC11061210121F1229123B
:10012000511233123D1247120000090A02080B0C4B
:100130000D0706030401000000000000000000009D
:1001400000000000000000000000000000000000AF
:100150000000000011100F0000000000000000006F
:10016000000000000000000000000000000001028C
:1001700010202008081020401020408002010201B9
:100180000804020101020408102040808040201071
:1001900008040201800402018040201008040201CA
:1001A0000804020101020408102040800102040832
:1001B000102040800505050507050808080802020B
:1001C00002020A0A080804040404010101010101F1
:1001D00001010303030303030303040707070C0CD4
:1001E0000C0C0C0C0C0C020202020606060606069B
:1001F00006060B0B0B0B0B0B0B0B00002000230058
:10020000260029002C002F0032000001000003010D
:100210000601090100002200250028002B002E0005
:100220003100340002010000050108010B0100004B
:100230002100240027002A002D0030003300010196
:100240000000040107010A018E03840D11241FBE62
:10025000CFEFD1E2DEBFCDBF00E00CBF12E0A0E0E7
:10026000B2E0E4E7F1E300E00BBF02C007900D92BB
:10027000A836B107D9F716E0A8E6B2E001C01D9292
:10028000AF39B107E1F712E0CCE4D2E000E006C0FC
:1002900022970109FE010BBF0E944A18C834D107FA
:1002A00080E00807A9F70E94550A0C94B8180C942E
:1002B0000000AF92BF92CF92DF92EF92FF920F9326
:1002C0001F938AE0A82EB12C98E8C92E93E1D92E6D
:1002D000E12CF12C00E010E020E047E152E063E087
:1002E00070E088E692E00E946D041F910F91FF90EC
:1002F000EF90DF90CF90BF90AF9008950F931F9332
:10030000CF93DF9328E030E03093D3032093D203E0
:1003100084E690E00E94DF092091DA033091DB034C
:100320004091DC035091DD03AAE0B0E00E94CC17BD
:1003300003C08B01D82FC92F2091D9032223C9F3E1
:100340004AE050E06BE070E084E494E00E94AA0F81
:1003500067E272E084E494E00E94F50EB8018D2F0C
:100360009C2F0E949E16AB01BC0122E030E084E489
:1003700094E00E948F1084E494E00E94000FDF91CB
:10038000CF911F910F9108958F929F92AF92BF923C
:10039000CF92DF92EF92FF92CF93DF9388E692E0C5
:1003A0000E94BC04EC01BC0184E393E00E94330989
:1003B0006091360370913703882777FD8095982FD9
:1003C0000E949E166B017C0160913403709135038D
:1003D000882777FD8095982F0E949E164B015C011F
:1003E0004AE050E06AE070E084E494E00E94AA0FE2
:1003F00067E272E084E494E00E94F50E4AE050E087
:10040000BE0184E494E00E94AA0F67E272E084E4F3
:1004100094E00E94F50E22E030E0B501A40184E4EE
:1004200094E00E948F1067E272E084E494E00E94FE
:10043000F50E22E030E0B701A60184E494E00E94CA
:100440008F1084E494E00E94000FDF91CF91FF9021
:10045000EF90DF90CF90BF90AF909F908F900895D6
:10046000CF93DF9388E692E00E94BC04EC014DE05C
:100470006EE173E088E692E00E948805BE018BE29F
:1004800093E00E94ED056EE173E08BE293E00E9441
:10049000A106DF91CF910895CF9388E692E00E9464
:1004A000BC04C82F88E692E00E94BC04BC018C2FDB
:1004B0000E94A011CF910895A0E0B0E0E2E6F2E042
:1004C0000C94171888E692E00E94BC04182F092F9C
:1004D0000E9477116C01EE24D7FCE094FE2CC3E659
:1004E000D0E0812F0E947711AC01662757FD6095FF
:1004F000762FC40ED51EE61EF71E219791F74AE00F
:1005000050E067E070E084E494E00E94AA0F67E2A4
:1005100072E084E494E00E94F50E4AE050E0612F1E
:10052000702F84E494E00E94AA0F67E272E084E4F2
:1005300094E00E94F50EC701B6010E949E1620E0CD
:1005400030E048EC52E40E940316AB01BC0122E00B
:1005500030E084E494E00E948F1084E494E00E94F0
:10056000000FCDB7DEB7E8E00C9433180F931F935C
:10057000CF93DF9388E692E00E94BC04182F092FE6
:100580000E944E11EC014AE050E066E070E084E425
:1005900094E00E94AA0F67E272E084E494E00E9473
:1005A000F50E4AE050E0612F702F84E494E00E9441
:1005B000AA0F67E272E084E494E00E94F50E4AE03C
:1005C00050E0BE0184E494E00E94AA0F84E494E029
:1005D0000E94000FDF91CF911F910F910895CF934B
:1005E00088E692E00E94BC04C82F69E272E088E6C7
:1005F00092E00E94AD0581111BC06DE272E088E6B9
:1006000092E00E94AD05811113C009C06FE272E053
:1006100088E692E00E94AD0581110CC00FC061E335
:1006200072E088E692E00E94AD05811103C0EECF32
:1006300060E001C061E08C2F0E941A11CF910895F3
:10064000CF9388E692E00E94BC04C82F66E372E074
:1006500088E692E00E94AD0581111BC06AE372E05A
:1006600088E692E00E94AD05811113C009C061E4E3
:1006700072E088E692E00E94AD0581110CC00FC0C7
:1006800067E472E088E692E00E94AD05811103C044
:10069000EECF61E001C060E08C2F0E94E210CF91AC
:1006A00008951F93CF93DF93EC0114E006C0612FF0
:1006B00088E692E00E94A1031F5F4991599141157C
:1006C0005105A9F7DF91CF911F91089540E052ECB9
:1006D00061E070E084E494E00E94030D88E692E01B
:1006E0000E94AD0369E571E088E692E00E949D03F7
:1006F00080E092E00E9451032FE088E190E00FB685
:10070000F894A895809360000FBE20936000089530
:1007100088E692E00E945605A89508958BE293E042
:100720000E94CD05209112024091130264E474E00E
:1007300088E692E00E94F0030895FC0174836383CD
:100740000895262F2150223338F4FC01E60FF11DC5
:10075000E60FF11D5483438308958B549F4F21E08E
:10076000FC0120830895FC01DC01A055BF4F6D936F
:100770007C93DC01AC54BF4F1C92DC01AB54BF4FE7
:100780001C92DC01AD54BF4F4C93DC01AE54BF4F03
:100790002C9380E481838FE382831082DF01A45550
:1007A000BF4F1D921C92DF01A255BF4F1D921C929C
:1007B000DF01A555BF4F81E08C931482138280E046
:1007C00090E0DF01A80FB91F16961C921E92159794
:1007D000029684369105A9F7E759FF4F10820895D4
:1007E0000E94B3030895A2E0B0E0E9EFF3E00C94B7
:1007F0001B188C011A821982FC01ED54FF4F808175
:100800008983F801E655FF4F8081882351F18130BB
:1008100031F4C80186599F4F22E0208302C080E056
:1008200090E0F801E555FF4F2081222369F0A801EF
:1008300042555F4FBE016F5F7F4F0E948918F801DC
:10084000E455FF4F91838083F801E455FF4F808189
:100850009181892B31F0F801E555FF4F108281E03D
:1008600001C080E02296E4E00C943718A0E0B0E0EC
:10087000ECE3F4E00C940F188C01EB010E94CC1413
:100880006B017C014B015C0100551F4F2E0166245A
:1008900057FC6094762CD8018D919C91DC01ED91F0
:1008A000FC910480F581E02D1995892B59F0D70131
:1008B000C60188199909AA09BB09481659066A068A
:1008C0007B0628F40E94CC144B015C01E4CF80E04D
:1008D000CDB7DEB7E0E10C942B18A0E0B0E0E3E781
:1008E000F4E00C941218EC014A01722E7C0189E6A6
:1008F000E80EF11C81E0F70180838E0100551F4F47
:100900004AE050E0F801808191810E94AA0FFE0127
:10091000ED54FF4F6081F801808191810E94F80EB3
:10092000B401F801808191810E94F50EFE01EE5420
:10093000FF4F6081F801808191810E94F80EFE01D5
:10094000EB54FF4F8081882329F0F8018081918149
:100950000E94000F772039F0B601CE010E943604C4
:100960001A141B04CCF3F701108280E090E0CDB79D
:10097000DEB7EDE00C942E18CF93DF93EC010E94CC
:10098000F303882369F0FE01E555FF4F81E0808382
:10099000C455DF4F888199810E944E189C0102C086
:1009A00020E030E0C901DF91CF910895CF93DF932C
:1009B000EC010E94BC0401978233910558F4FC01BC
:1009C000EE0FFF1FEC0FFD1F0580F681E02D309725
:1009D00009F002C0EB81FC811995DF91CF91089558
:1009E000CF93DF93FC01DC01A655BF4F1C92161676
:1009F00017060CF04EC0862FEF01CE54DF4F288132
:100A0000908162130BC0EF01C90FD11DC659DF4F92
:100A10001882992371F181E08C932BC0DF01A90F1B
:100A2000B11DA659BF4F6C939F5F9083228192178F
:100A300080F01082DF01A455BF4F1D921C92DF0190
:100A4000A255BF4F1D921C92DF01A555BF4F91E0EB
:100A50009C93DF01AC54BF4F9C919923D1F0DF01EF
:100A6000AD54BF4F9C918917A1F08A3011F08D30A1
:100A700081F41082DF01A455BF4F1D921C92DF014B
:100A8000A255BF4F1D921C92DF01A555BF4F81E0BB
:100A90008C93EF01C655DF4F8881813019F4CF0167
:100AA0000E94D6048881DF91CF910895EF92FF9242
:100AB0000F931F93CF93DF93EC017C0189E6E80E3F
:100AC000F11C8E0100551F4FD7018C9181111BC065
:100AD000F80180819181DC01ED91FC910480F58128
:100AE000E02D1995892B79F0F80180819181DC0145
:100AF000ED91FC910680F781E02D1995BC01CE01A6
:100B00000E94F004E1CFCDB7DEB7E6E00C943518D3
:100B1000A1E0B0E0EEE8F5E00C9419187C018B013F
:100B200049830E94F3034981882379F0F701E55551
:100B3000FF4F81E08083F701E455FF4F60817181B1
:100B400050E0C8010E94751804C0442311F0F80158
:100B500010822196E6E00C9435180F931F93CF93E3
:100B6000DF93EC018B010E94F303882379F0FE01EF
:100B7000E455FF4F60817181C8010E946C18009795
:100B800031F4C555DF4F81E0888302C001C080E0A9
:100B9000DF91CF911F910F910895FC018FEF9FEF8F
:100BA00091838083938382831092C4031092C50340
:100BB0001092C6031092C7038EE591E0958384835B
:100BC0008AE090E0978386838CE390E0909315020F
:100BD0008093140281E080870895FC01862F628350
:100BE000738361E00E94E2100895FC01808191818D
:100BF0008F3FFFEF9F0791F01092C4031092C5033F
:100C00001092C6031092C7031092C3031092C2033E
:100C100041E050E06AEB78E00E945A120895CF93C9
:100C2000DF93EC0188810E94D1128FEF9FEF9983AF
:100C30008883DF91CF910895EF92FF920F931F93D6
:100C4000CF93DF93EC017B018A018A819B8101961E
:100C500051F188819981019619F0CE010E940F0609
:100C600061E08A810E941A118C819D819C01E29E23
:100C7000C001E39E900DF29E900D11240E942E154E
:100C800060E08A810E941A118C819D819C01029FE3
:100C9000C001039F900D129F900D11240E942E15EC
:100CA000CE010E94F505CDB7DEB7E6E00C9435180D
:100CB000FC012085213019F44FE150E004C02230BE
:100CC00031F44AE050E061E070E00E941C060895B3
:100CD000CF93DF93EC0143E050E061E070E00E94CD
:100CE0001C0641E050E063E070E0CE010E941C066B
:100CF000DF91CF910895CF93DF93EC0141E050E075
:100D000063E070E00E941C0641E050E063E070E0A8
:100D1000CE010E941C06DF91CF910895CF93DF93FF
:100D2000EC0143E050E061E070E00E941C0643E00B
:100D300050E061E070E0CE010E941C06DF91CF918F
:100D40000895A0E0B0E0E7EAF6E00C941718EC0193
:100D50006B01E12CF12C1CC0813361F0863431F041
:100D6000803359F4CE010E948E0607C0CE010E9446
:100D7000680603C0CE010E947B06F80181918F01B5
:100D80008111EACFCE010E945806FFEFEF1AFF0A49
:100D90008E819F81E816F90614F48601EECFCDB757
:100DA000DEB7E8E00C943318ACE0B0E0EAEDF6E032
:100DB0000C940D181C0180913803909139036FE158
:100DC00070E00E94D7178B014B01A12CB12CA09190
:100DD0001402B09115029B010E94C5170E949C1637
:100DE0002AE037ED43E25CE30E9452170E9470163E
:100DF0006B017C019801A3E0B0E00E94B9179B0150
:100E0000AC012C193D094E095F0929833A834B83B4
:100E10005C8326013701460E571E681E791E21E0AD
:100E200030E080E090E0DC01B501A4014C195D09DF
:100E30006E097F094D835E836F837887B701A601B2
:100E4000480D591D6A1D7B1D49875A876B877C8712
:100E50006CC0F901EE0FFF1FE85CFC4F408151812F
:100E60004A01A12CB12CCD80DE80EF80F884C8141B
:100E7000D904EA04FB0408F549855A856B857C850D
:100E800084169506A606B706C0F4F901EE0FFF1FFB
:100E9000E65CFC4F4081518160E070E0C980DA80FF
:100EA000EB80FC80C416D506E606F70630F4441540
:100EB00055056605770508F42DC049815A816B8177
:100EC0007C81481559056A057B0548F5841495040D
:100ED000A604B70420F5F901EE0FFF1FE65CFC4FF6
:100EE000408151814A01A12CB12CCD80DE80EF8060
:100EF000F884C814D904EA04FB0488F449855A85A7
:100F00006B857C8584169506A606B70640F4019687
:100F1000A11DB11D880F991FAA1FBB1F04C09101FD
:100F200080E090E0DC012E5F3F4F2215330508F48E
:100F300090CFB695A7959795879557E025163104DC
:100F4000C0F08093C4039093C503A093C603B093ED
:100F5000C703369427943092C3032092C2031093A0
:100F6000C1030093C00321E030E03093BF0320931E
:100F7000BE0321E0892B8A2B8B2B09F420E0822FE2
:100F80002C96E2E10C942918A0E1B0E0EAECF7E03D
:100F90000C940D181C0180913803909139036AE07C
:100FA00070E00E94D7178B016B01E12CF12CA0910E
:100FB0001402B09115029B010E94C5170E949C1655
:100FC0002AE037ED43E25CE30E9452170E9470165C
:100FD0004B015C01B701A601440F551F661F771F27
:100FE0002A013B01481859086A087B08D501C40149
:100FF000840F951FA61FB71F8D839E83AF83B8876D
:1010000021E030E080E090E0DC01B701A601481962
:1010100059096A097B0949875A876B877C87B70119
:10102000A601480D591D6A1D7B1D4D875E876F8780
:10103000788B71C0F901EE0FFF1FE85CFC4F019047
:10104000F081E02DAF0160E070E089849A84AB8488
:10105000BC8484169506A606B70630F5AD84BE841A
:10106000CF84D8884A155B056C057D05E8F4F90145
:10107000EE0FFF1FE65CFC4FE080F1804701A12CE2
:10108000B12C89829A82AB82BC82481459046A04CA
:101090007B0450F4CD80DE80EF80F8848C149D04B6
:1010A000AE04BF0408F42CC0441655066606770645
:1010B00060F58D809E80AF80B884481559056A051B
:1010C0007B0518F5F901EE0FFF1FE65CFC4F8080F1
:1010D0009180A12CB12CC984DA84EB84FC84C814DF
:1010E000D904EA04FB0488F44D855E856F85788910
:1010F00084169506A606B70640F40196A11DB11DFB
:10110000880F991FAA1FBB1F04C0910180E090E0C7
:10111000DC012E5F3F4F2215330508F48BCFB695C7
:10112000A7959795879557E025163104C0F08093D1
:10113000C4039093C503A093C603B093C70336942A
:1011400027943092C3032092C2031093C1030093EB
:10115000C00322E030E03093BF032093BE0321E0C0
:10116000892B8A2B8B2B09F420E0822F6096E2E1F9
:101170000C942918A0E0B0E0E0ECF8E00C9417180B
:101180000E94DE146B017C018091C8039091C90319
:10119000E601C81BD90BD093CD03C093CC03C9384B
:1011A00083E1D807A0F180913803909139039C0125
:1011B000285C31092C173D0730F588539F4FC8171D
:1011C000D90708F58091CE039091CF0301969093B3
:1011D000CF038093CE030091D0031091D10301502F
:1011E00011091093D1030093D003029761F4C80151
:1011F0000E94D406811103C0C8010E94C407109246
:10120000CF031092CE031092D1031092D00380919D
:10121000D0039091D1038334910540F01092D10313
:101220001092D0031092CF031092CE038091D0037E
:101230009091D103FC01EE0FFF1FE85CFC4FD183BE
:10124000C08301969093D1038093D003C092C803CA
:10125000D092C903E092CA03F092CB03CDB7DEB7B8
:10126000E8E00C943318A5E0B0E0E9E3F9E00C9471
:101270000E188C01562E19821A821B821C821D8226
:1012800061E0852D0E94E21060E0852D0E941A1118
:1012900062E170E080E090E00E94081561E0852D39
:1012A0000E941A1188E290E00E942E1560E0852DC0
:1012B0000E94E21071E1E72E77E2F72E07C081E08D
:1012C000E81AF10819F42EEF3FEF74C0852D0E9443
:1012D0004E11892BA1F361E1E62E67E2F62E04C0E0
:1012E000E1E0EE1AF10879F3852D0E944E11019785
:1012F000B9F338E2A32EB12C312C47E0442E8824D8
:101300008394912C05C0F1E0EF1AF10829F4DBCFAA
:1013100021E1E22E27E2F22E852D0E944E11892B2B
:1013200091F30E94DE146B017C0191E1692E97E23A
:10133000792E05C081E0681A710809F4C4CF852DA3
:101340000E944E110197B1F30E94DE146C197D09C1
:101350008E099F09693271058105910578F0E1E0F8
:10136000F0E0EC0FFD1FE30DF11DC401042C01C0E2
:10137000880F0A94EAF79081982B9083411004C05B
:10138000339487E0482E01C04A94E1E0AE1AB108D8
:1013900009F0BECF8981F801808311829B819283FD
:1013A0001382890F9D81981719F02FEF3FEF02C02C
:1013B00020E030E0C9012596E1E10C942A18089557
:1013C0001F920F920FB60F9211240BB60F922F930C
:1013D0003F934F935F936F937F938F939F93AF93BD
:1013E000BF93EF93FF932091D6033091D703809161
:1013F000D4039091D5032817390790F18091D20337
:101400009091D3030E942E1580918100887F809354
:101410008100809170008D7F8093700080916E00BC
:10142000816080936E0081E08093D9038091D8031E
:10143000209184003091850090E0A0E0B0E0DC01D4
:1014400099278827820F931FA11DB11D8093DA036E
:101450009093DB03A093DC03B093DD031092D803D9
:101460008091D6039091D70301969093D7038093F0
:10147000D603B09B07C08091D8038F5F8093D803B9
:1014800081E086BBFF91EF91BF91AF919F918F91CA
:101490007F916F915F914F913F912F910F900BBE74
:1014A0000F900FBE0F901F9018950E9438150E9444
:1014B0006603C6EEDBE00E9488032097E1F30E94FA
:1014C000E60BF9CFFC0184859585FC01E05CFF4FBC
:1014D00020813181FC01EE5BFF4F80819181281BCF
:1014E000390B2F733327C9010895FC018485958535
:1014F000FC01E05CFF4F40815181FC01EE5BFF4F3E
:10150000208131814217530741F00190F081E02D95
:10151000E80FF91F208130E002C02FEF3FEFC90133
:101520000895FC0184859585FC01E05CFF4F4081B6
:101530005181FC01EE5BFF4F20813181421753073F
:1015400081F0A081B181A80FB91F8C9120813181D8
:101550002F5F3F4F2F73332731832083282F30E0B5
:1015600002C02FEF3FEFC9010895FC0181A188233C
:1015700029F0A489B5898C9186FFFBCF11A208952B
:10158000CF93DF93FC0126853785D901A05CBF4F3F
:101590008D919C91119701968F739927E901CE5BEC
:1015A000DF4F4881598184179507D9F30D90BC917D
:1015B000A02DA20FB31F6C93A685B785A05CBF4F6B
:1015C00011969C938E93A689B7892C9181E090E027
:1015D000078C02C0880F991F0A94E2F7282B2C93DE
:1015E00081E081A30488F589E02D80818064808377
:1015F00081E090E0DF91CF910895FB01E05CFF4F27
:10160000208131812F5F3F4F2F733327DB01AE5B8A
:10161000BF4F4D915C912417350739F0A081B181FE
:10162000A60FB71F8C9331832083089508951F92CE
:101630000F920FB60F9211240BB60F922F933F9378
:101640004F935F936F937F938F939F93AF93BF93CA
:10165000EF93FF938091C00082FD07C08091C60088
:1016600062E476E00E94FD0A02C08091C600FF910C
:10167000EF91BF91AF919F918F917F916F915F910A
:101680004F913F912F910F900BBE0F900FBE0F9077
:101690001F90189508951F920F920FB60F92112464
:1016A0000BB60F922F933F934F935F936F937F935C
:1016B0008F939F93AF93BF93EF93FF938091C80055
:1016C00082FD07C08091CE006AEB75E00E94FD0AA2
:1016D00002C08091CE00FF91EF91BF91AF919F9199
:1016E0008F917F916F915F914F913F912F910F90CB
:1016F0000BBE0F900FBE0F901F90189508951F926C
:101700000F920FB60F9211240BB60F922F933F93A7
:101710004F935F936F937F938F939F93AF93BF93F9
:10172000EF93FF938091D00082FD07C08091D60097
:1017300062E375E00E94FD0A02C08091D600FF912D
:10174000EF91BF91AF919F918F917F916F915F9139
:101750004F913F912F910F900BBE0F900FBE0F90A6
:101760001F90189508951F920F920FB60F92112493
:101770000BB60F922F933F934F935F936F937F938B
:101780008F939F93AF93BF93EF93FF93809130011B
:1017900082FD07C0809136016AEA74E00E94FD0A6A
:1017A00002C080913601FF91EF91BF91AF919F915F
:1017B0008F917F916F915F914F913F912F910F90FA
:1017C0000BBE0F900FBE0F901F90189584E494E00D
:1017D0000E94620A892B11F00E94160B82E294E0AB
:1017E0000E94620A892B11F00E944A0B80E094E06B
:1017F0000E94620A892B11F00E947E0B8EED93E00D
:101800000E94620A892B11F00E94B20B08951F9268
:101810000F920FB60F9211240BB60F922F933F9396
:101820008F939F93EF93FF9320913E0630913F0655
:1018300080914006909141062817390731F4809134
:10184000C1008F7D8093C10014C0E0914006F091EB
:101850004106E250FA4F2081809140069091410666
:1018600001968F73992790934106809340062093A9
:10187000C600FF91EF919F918F913F912F910F9013
:101880000BBE0F900FBE0F901F9018951F920F92D6
:101890000FB60F9211240BB60F922F933F938F9395
:1018A0009F93EF93FF932091B6053091B7058091F8
:1018B000B8059091B9052817390731F48091C9000E
:1018C0008F7D8093C90014C0E091B805F091B905EF
:1018D000EA58FA4F20818091B8059091B905019698
:1018E0008F7399279093B9058093B8052093CE0004
:1018F000FF91EF919F918F913F912F910F900BBE90
:101900000F900FBE0F901F9018951F920F920FB659
:101910000F9211240BB60F922F933F938F939F93A7
:10192000EF93FF9320912E0530912F058091300584
:10193000909131052817390731F48091D1008F7DBE
:101940008093D10014C0E0913005F0913105E2514F
:10195000FB4F2081809130059091310501968F7366
:10196000992790933105809330052093D600FF91FD
:10197000EF919F918F913F912F910F900BBE0F9000
:101980000FBE0F901F9018951F920F920FB60F92D7
:1019900011240BB60F922F933F938F939F93EF9346
:1019A000FF932091A6043091A7048091A804909100
:1019B000A9042817390731F4809131018F7D809374
:1019C000310114C0E091A804F091A904EA59FB4F39
:1019D00020818091A8049091A90401968F73992782
:1019E0009093A9048093A80420933601FF91EF916E
:1019F0009F918F913F912F910F900BBE0F900FBE33
:101A00000F901F901895CF92DF92EF92FF92CF9395
:101A1000DF93EC016A017B01411581EE58076105F6
:101A20007105F9F0EC89FD8981E090E008A002C021
:101A3000880F991F0A94E2F7808360E079E08DE3D4
:101A400090E0A70196010E94EB172150310941094E
:101A500051095695479537952795211580E1380707
:101A600098F0EC89FD89108260E874E88EE190E0DE
:101A7000A70196010E94EB17215031094109510934
:101A80005695479537952795E889F9893083EA89EE
:101A9000FB89208319A2EE89FF89408181E090E0D3
:101AA0009C010C8C02C0220F331F0A94E2F7422BD8
:101AB0004083EE89FF8940819C010D8C02C0220F7A
:101AC000331F0A94E2F7422B4083EE89FF8940815D
:101AD0009C010E8C02C0220F331F0A94E2F7422BA6
:101AE0004083EE89FF8920810F8C02C0880F991FE7
:101AF0000A94E2F7809582238083DF91CF91FF9053
:101B0000EF90DF90CF900895CF93109247041092FA
:101B1000460488EE93E0A0E0B0E080934804909300
:101B20004904A0934A04B0934B042EE432E030936E
:101B300045042093440442E456E0509351044093FA
:101B400050044EEF55E0509353044093520445EC3B
:101B500050E0509355044093540444EC50E05093AB
:101B600057044093560440EC50E05093590440937E
:101B7000580441EC50E050935B0440935A0442EC0B
:101B800050E050935D0440935C0446EC50E0509369
:101B90005F0440935E04C4E0C0936004F3E0F093FC
:101BA0006104E7E0E093620475E07093630461E030
:101BB00060936404109225041092240480932604F8
:101BC00090932704A0932804B0932904309323040E
:101BD000209322044AEB55E050932F0440932E04A7
:101BE00046E755E050933104409330044DEC50E00B
:101BF00050933304409332044CEC50E0509335043E
:101C00004093340448EC50E050933704409336043A
:101C100049EC50E050933904409338044AEC50E0CA
:101C200050933B0440933A044EEC50E050933D04F3
:101C300040933C04C0933E04F0933F04E09340047F
:101C400070934104609342041092030410920204C2
:101C50008093040490930504A0930604B0930704B2
:101C6000309301042093000442E355E050930D04A7
:101C700040930C044EEE54E050930F0440930E0436
:101C800045ED50E0509311044093100444ED50E0B2
:101C9000509313044093120440ED50E05093150408
:101CA0004093140441ED50E0509317044093160400
:101CB00042ED50E0509319044093180446ED50E073
:101CC00050931B0440931A04C0931C04F0931D040A
:101CD000E0931E0470931F04609320041092E103AC
:101CE0001092E0038093E2039093E303A093E40354
:101CF000B093E5033093DF032093DE038AEA94E098
:101D00009093EB038093EA0386E694E09093ED03CF
:101D10008093EC0385E391E09093EF038093EE03CF
:101D200084E391E09093F1038093F00380E391E0EA
:101D30009093F3038093F20381E391E09093F50392
:101D40008093F40382E391E09093F7038093F6038A
:101D500086E391E09093F9038093F803C093FA032C
:101D6000F093FB03E093FC037093FD036093FE0389
:101D7000CF910895A0E0B0E0E0ECFEE00C941718DD
:101D80006C01EB017A01E60EF71E00E010E00BC0DB
:101D90006991D601ED91FC910190F081E02DC60191
:101DA0001995080F191FCE15DF0591F7C801CDB79A
:101DB000DEB7E8E00C9433186115710591F0DB0192
:101DC0000D900020E9F7AD0141505109461B570B1A
:101DD000DC01ED91FC910280F381E02D19959C01CD
:101DE00002C020E030E0C90108950E94DC0E089591
:101DF000DC01ED91FC910190F081E02D19950895A1
:101E00000F931F93CF93DF93EC016DE00E94F80EC8
:101E10008C016AE0CE010E94F80E9C01200F311F58
:101E2000C901DF91CF911F910F9108954F925F9259
:101E30006F927F929F92AF92BF92CF92DF92EF927A
:101E4000FF920F931F93CF93DF93CDB7DEB7A19788
:101E50000FB6F894DEBF0FBECDBF5C016A017B01F7
:101E6000922E19A281E0821710F08AE0982E8E013E
:101E70000F5D1F4F492C512C612C712CC701B601ED
:101E8000A30192010E94EB178C2D929E80191124C0
:101E9000015011098A3014F4805D01C0895CF80199
:101EA000808369017A01C114D104E104F10431F79E
:101EB000B801C5010E94DC0EA1960FB6F894DEBFF2
:101EC0000FBECDBFDF91CF911F910F91FF90EF908B
:101ED000DF90CF90BF90AF909F907F906F905F907A
:101EE0004F900895A0E0B0E0E8E7FFE00C941718E9
:101EF000EC016A017B012115310541F4E881F9818A
:101F00000190F081E02D642F19951DC02A30310514
:101F1000A9F477FF12C06DE20E94F80E8C014427ED
:101F20005527BA014C195D096E097F092AE0CE01D7
:101F30000E94160F080F191F07C02AE0B701A6015B
:101F4000CE010E94160F8C01C801CDB7DEB7E8E0C4
:101F50000C9433189A01AB01662757FD6095762FD4
:101F60000E94720F0895A0E0B0E0E9EBFFE00C944E
:101F70001218EC016A017B01122F9A01AB01C70113
:101F8000B6010E94B517882319F06AE572E01AC0FD
:101F900046015701E894B7F82FEF3FEF4FE75FE7AF
:101FA000C501B4010E94B517811111C02FEF3FEF99
:101FB0004FE75FE7C501B4010E94FF1518163CF416
:101FC0006EE572E0CE010E94DC0E7C01A2C02FEF14
:101FD0003FEF4FE75FE4C701B6010E944E171816A6
:101FE0000CF40AC02FEF3FEF4FE75FECC701B601DB
:101FF0000E94FF1587FF03C062E672E0E3CF20E096
:1020000030E0A901C701B6010E94FF1587FF0AC091
:102010006DE2CE010E94F80E5C01F7FAF094F7F839
:10202000F09402C0A12CB12C00E060E070E080E0F0
:102030009FE307C020E030E040E251E40E94031635
:102040000F5F0113F7CF262F372F482F592FC701C6
:10205000B6010E949B15762E872E982EC92E0E94BF
:102060007016D62EE72EF82E092F0E949C169B0183
:10207000AC01672D782D892D9C2D0E949A15C62EB6
:10208000972E882E792E2AE04D2D5E2D6F2D702FE4
:10209000CE010E94160F7C01EA0CFB1C1123B9F142
:1020A00066E672E0CE010E94DC0EE80EF91E2FC03B
:1020B00020E030E040E251E46C2D792D882D972D01
:1020C0000E945217762E072F6C019D2D0E946B16D1
:1020D0004B01AA2497FCA094BA2C2AE030E0B50169
:1020E000A401CE010E94720FE80EF91EC501B401D1
:1020F0000E949E169B01AC01672D702F8C2D9D2D8B
:102100000E949A15C62E972E882E792E11501111E5
:10211000CFCFC701CDB7DEB7EDE00C942E180E94EB
:10212000B30F089590E0FC013197E131F10508F01B
:1021300048C0EE58FF4F0C944418809180008F7770
:1021400003C0809180008F7D80938000089584B5C6
:102150008F7702C084B58F7D84BD08958091B000D3
:102160008F7703C08091B0008F7D8093B000089579
:10217000809190008F7707C0809190008F7D03C081
:1021800080919000877F8093900008958091A000B7
:102190008F7707C08091A0008F7D03C08091A00041
:1021A000877F8093A0000895809120018F7707C0DA
:1021B000809120018F7D03C080912001877F8093D3
:1021C00020010895CF93DF9390E0FC01E259FE4F88
:1021D0004491FC01EC54FE4F8491882341F190E03E
:1021E000880F991FFC01E25DFD4F25913491D901C3
:1021F0008C5E9D4FFC0185919491C82FD92F9FB77C
:10220000F8948C91611106C0409584238C93888149
:10221000842308C0623041F4242F209582238C93BC
:102220008881842B888302C0842B8C939FBFDF918D
:10223000CF910895A1E0B0E0E0E2F1E10C941B1829
:10224000282F30E0F901E85DFE4F8491F901E25951
:10225000FE4F1491F901EC54FE4F04910023D1F08C
:10226000882321F069830E9492106981E02FF0E0B9
:10227000EE0FFF1FEC5EFD4F85919491DC019FB73F
:10228000F8948C91611103C01095812301C0812BBA
:102290008C939FBF2196E4E00C943718CF93DF9383
:1022A000282F30E0F901E85DFE4F8491F901E259F1
:1022B000FE4FD491F901EC54FE4FC491CC2389F028
:1022C00081110E949210EC2FF0E0EE0FFF1FE650FC
:1022D000FE4F85919491DC018C918D2321E030E0BB
:1022E00011F420E030E0C901DF91CF9108958633E9
:1022F00008F0865320917B00982F9870277F922BAF
:1023000090937B0087702091160240E4249F9001F7
:102310001124822B80937C0080917A0080648093CA
:102320007A0080917A0086FDFCCF20917800309170
:102330007900932F80E0AC01422B9A01C9010895E6
:102340001F93CF93DF93182FEB0161E00E94E210FF
:10235000209711F460E004C0CF3FD10529F461E07B
:10236000812F0E941A11A2C0E12FF0E0E85DFE4F1C
:10237000449150E0FA013197E131F10508F091C044
:10238000ED57FF4F0C94441884B5806884BDC7BDD9
:102390008DC084B5806284BDC8BD88C08091800036
:1023A000806880938000D0938900C09388007EC0AD
:1023B00080918000806280938000D0938B00C093D6
:1023C0008A0074C08091B00080688093B000C09390
:1023D000B3006CC08091B00080628093B000C09365
:1023E000B40064C080919000806880939000D09386
:1023F0009900C09398005AC08091900080628093A9
:102400009000D0939B00C0939A0050C080919000A0
:10241000886080939000D0939D00C0939C0046C03C
:102420008091A00080688093A0008091A0008F7BA5
:102430008093A000D093A900C093A80037C08091DA
:10244000A00080628093A000D093AB00C093AA004C
:102450002DC08091A00088608093A000D093AD0033
:10246000C093AC0023C0809120018068809320013C
:10247000D0932901C093280119C080912001806266
:1024800080932001D0932B01C0932A010FC080912B
:102490002001886080932001D0932D01C0932C01EE
:1024A00005C0C038D1050CF05ACF54CFDF91CF9181
:1024B0001F910895883008F073C0E82FF0E0EE0F08
:1024C000FF1FEA57F94F71836083843011F130F4B4
:1024D000823059F090F48130B1F53DC0863009F476
:1024E00046C020F1873079F54FC0809169008C7F1C
:1024F000842B80936900E89A089580916900440FC5
:10250000551F440F551F837F842B80936900E99AE0
:1025100008958091690074E0440F551F7A95E1F7A2
:102520008F7C842B80936900EA9A089580916900DA
:1025300066E0440F551F6A95E1F78F73842B8093F3
:102540006900EB9A089580916A008C7F842B8093B8
:102550006A00EC9A089580916A00440F551F440F59
:10256000551F837F842B80936A00ED9A0895809194
:102570006A0024E0440F551F2A95E1F78F7C842BD5
:1025800080936A00EE9A089580916A0096E0440F65
:10259000551F9A95E1F78F73842B80936A00EF9A09
:1025A0000895883030F5843089F030F4823051F06D
:1025B00058F4813079F410C0863081F048F08730CB
:1025C00049F40EC0E8980DC0E9980BC0EA9809C01C
:1025D000EB9807C0EC9805C0ED9803C0EE9801C0D9
:1025E000EF98E82FF0E0EE0FFF1FEA57F94F118246
:1025F000108208951F920F920FB60F9211240BB6FE
:102600000F922F933F934F935F936F937F938F938B
:102610009F93AF93BF93EF93FF9380918A0690911E
:102620008B06892B29F0E0918A06F0918B0619958B
:10263000FF91EF91BF91AF919F918F917F916F919A
:102640005F914F913F912F910F900BBE0F900FBE56
:102650000F901F9018951F920F920FB60F92112492
:102660000BB60F922F933F934F935F936F937F938C
:102670008F939F93AF93BF93EF93FF9380918C06BB
:1026800090918D06892B29F0E0918C06F0918D06B2
:102690001995FF91EF91BF91AF919F918F917F918C
:1026A0006F915F914F913F912F910F900BBE0F90C3
:1026B0000FBE0F901F9018951F920F920FB60F929A
:1026C00011240BB60F922F933F934F935F936F9309
:1026D0007F938F939F93AF93BF93EF93FF938091DB
:1026E0008E0690918F06892B29F0E0918E06F0914D
:1026F0008F061995FF91EF91BF91AF919F918F91A7
:102700007F916F915F914F913F912F910F900BBEF1
:102710000F900FBE0F901F9018951F920F920FB63B
:102720000F9211240BB60F922F933F934F935F9309
:102730006F937F938F939F93AF93BF93EF93FF9389
:102740008091900690919106892B29F0E091900656
:10275000F09191061995FF91EF91BF91AF919F91E3
:102760008F917F916F915F914F913F912F910F903A
:102770000BBE0F900FBE0F901F9018951F920F92D7
:102780000FB60F9211240BB60F922F933F934F93D6
:102790005F936F937F938F939F93AF93BF93EF93C9
:1027A000FF938091860690918706892B29F0E0910E
:1027B0008606F09187061995FF91EF91BF91AF9131
:1027C0009F918F917F916F915F914F913F912F9149
:1027D0000F900BBE0F900FBE0F901F9018951F9279
:1027E0000F920FB60F9211240BB60F922F933F93B7
:1027F0004F935F936F937F938F939F93AF93BF9309
:10280000EF93FF938091880690918906892B29F098
:10281000E0918806F09189061995FF91EF91BF919B
:10282000AF919F918F917F916F915F914F913F9168
:102830002F910F900BBE0F900FBE0F901F90189509
:102840001F920F920FB60F9211240BB60F922F9377
:102850003F934F935F936F937F938F939F93AF9328
:10286000BF93EF93FF938091920690919306892BEB
:1028700029F0E0919206F09193061995FF91EF915E
:10288000BF91AF919F918F917F916F915F914F9188
:102890003F912F910F900BBE0F900FBE0F901F9086
:1028A00018951F920F920FB60F9211240BB60F922C
:1028B0002F933F934F935F936F937F938F939F9348
:1028C000AF93BF93EF93FF938091940690919506F9
:1028D000892B29F0E0919406F09195061995FF91C6
:1028E000EF91BF91AF919F918F917F916F915F9188
:1028F0004F913F912F910F900BBE0F900FBE0F90F5
:102900001F9018951F920F920FB60F9211242F93BC
:102910003F938F939F93AF93BF938091960690912F
:102920009706A0919806B091990630919E06232FA4
:102930002D5F2D3720F40196A11DB11D05C0232F59
:102940002A570296A11DB11D20939E0680939606DC
:1029500090939706A0939806B093990680919A0653
:1029600090919B06A0919C06B0919D060196A11D99
:10297000B11D80939A0690939B06A0939C06B093FA
:102980009D06BF91AF919F918F913F912F910F9095
:102990000FBE0F901F9018950F931F938FB7F89449
:1029A000009196061091970620919806309199060D
:1029B0008FBFB801C9011F910F9108950F931F9305
:1029C0009FB7F89400919A0610919B0620919C065F
:1029D00030919D0686B5A89B06C08F3F21F00F5F02
:1029E0001F4F2F4F3F4F9FBF322F212F102F0027F8
:1029F000080F111D211D311D42E0000F111F221F64
:102A0000331F4A95D1F7B801C9011F910F9108955D
:102A1000CF92DF92EF92FF92CF93DF936B017C0115
:102A20000E94DE14EB010EC00E94DE146C1B7D0BB5
:102A3000683E734038F081E0C81AD108E108F10817
:102A4000C851DC4FC114D104E104F10469F7DF91EE
:102A5000CF91FF90EF90DF90CF900895019739F0DC
:102A6000880F991F880F991F02970197F1F7089512
:102A7000789484B5826084BD84B5816084BD85B559
:102A8000826085BD85B5816085BDEEE6F0E0808120
:102A900081608083E1E8F0E0108280818260808341
:102AA000808181608083E0E8F0E0808181608083C4
:102AB000E1EBF0E0808184608083E0EBF0E08081F6
:102AC00081608083E1E9F0E08081826080838081A1
:102AD00081608083E0E9F0E0808181608083E1EAC9
:102AE000F0E0808182608083808181608083E0EA81
:102AF000F0E0808181608083E1E2F1E080818260AA
:102B00008083808181608083E0E2F1E08081816068
:102B10008083EAE7F0E08081846080838081826046
:102B2000808380818160808380818068808310922F
:102B3000C10008955058BB27AA270ED075C166D191
:102B400030F06BD120F031F49F3F11F41EF45BC1E3
:102B50000EF4E095E7FB51C1E92F77D180F3BA1766
:102B6000620773078407950718F071F49EF58FC10B
:102B70000EF4E0950B2EBA2FA02D0B01B901900198
:102B80000C01CA01A0011124FF27591B99F0593FDC
:102B900050F4503E68F11A16F040A22F232F342F24
:102BA0004427585FF3CF469537952795A795F04072
:102BB0005395C9F77EF41F16BA0B620B730B840B87
:102BC000BAF09150A1F0FF0FBB1F661F771F881F3F
:102BD000C2F70EC0BA0F621F731F841F48F4879597
:102BE00077956795B795F7959E3F08F0B3CF939586
:102BF000880F08F09927EE0F979587950895D9D0FB
:102C000008F481E008950CD00FC107D140F0FED048
:102C100030F021F45F3F19F0F0C0511139C1F3C019
:102C200014D198F39923C9F35523B1F3951B550B90
:102C3000BB27AA2762177307840738F09F5F5F4F8F
:102C4000220F331F441FAA1FA9F333D00E2E3AF0D0
:102C5000E0E830D091505040E695001CCAF729D0EA
:102C6000FE2F27D0660F771F881FBB1F2617370739
:102C70004807AB07B0E809F0BB0B802DBF01FF2769
:102C800093585F4F2AF09E3F510568F0B6C000C1CF
:102C90005F3FECF3983EDCF3869577956795B795A3
:102CA000F7959F5FC9F7880F911D9695879597F9BE
:102CB0000895E1E0660F771F881FBB1F6217730737
:102CC0008407BA0720F0621B730B840BBA0BEE1F4C
:102CD00088F7E095089504D06894B111D9C008959B
:102CE000BCD088F09F5790F0B92F9927B751A0F02A
:102CF000D1F0660F771F881F991F1AF0BA95C9F790
:102D000012C0B13081F0C3D0B1E00895C0C0672FC8
:102D1000782F8827B85F39F0B93FCCF3869577953F
:102D20006795B395D9F73EF4909580957095619528
:102D30007F4F8F4F9F4F0895E89409C097FB3EF453
:102D400090958095709561957F4F8F4F9F4F9923F8
:102D5000A9F0F92F96E9BB279395F6958795779576
:102D60006795B795F111F8CFFAF4BB0F11F460FF36
:102D70001BC06F5F7F4F8F4F9F4F16C0882311F08E
:102D800096E911C0772321F09EE8872F762F05C0A2
:102D9000662371F096E8862F70E060E02AF09A953D
:102DA000660F771F881FDAF7880F9695879597F932
:102DB0000895990F0008550FAA0BE0E8FEEF1616CC
:102DC0001706E807F907C0F012161306E407F5071F
:102DD00098F0621B730B840B950B39F40A2661F093
:102DE000232B242B252B21F408950A2609F4A14036
:102DF000A6958FEF811D811D089597F99F6780E843
:102E000070E060E008959FEF80EC089500240A943C
:102E10001616170618060906089500240A941216B5
:102E20001306140605060895092E0394000C11F4E8
:102E3000882352F0BB0F40F4BF2B11F460FF04C095
:102E40006F5F7F4F8F4F9F4F089557FD9058440FEE
:102E5000551F59F05F3F71F04795880F97FB991FF9
:102E600061F09F3F79F087950895121613061406B6
:102E7000551FF2CF4695F1DF08C016161706180643
:102E8000991FF1CF86957105610508940895E8941E
:102E9000BB2766277727CB0197F908958ADF08F4C7
:102EA0008FEF08950BD0C0CFB1DF28F0B6DF18F058
:102EB000952309F0A2CFA7CF1124EACFC6DFA0F354
:102EC000959FD1F3950F50E0551F629FF001729FBF
:102ED000BB27F00DB11D639FAA27F00DB11DAA1FDE
:102EE000649F6627B00DA11D661F829F2227B00D2B
:102EF000A11D621F739FB00DA11D621F839FA00DB6
:102F0000611D221F749F3327A00D611D231F849F05
:102F1000600D211D822F762F6A2F11249F5750405C
:102F20008AF0E1F088234AF0EE0FFF1FBB1F661FF7
:102F3000771F881F91505040A9F79E3F510570F0B0
:102F40005CCFA6CF5F3FECF3983EDCF38695779598
:102F50006795B795F795E7959F5FC1F7FE2B880FAB
:102F6000911D9695879597F9089523DF880B990B06
:102F70000895A29FB001B39FC001A39F01D0B29F4B
:102F8000700D811D1124911D08950E94B917B7FF7E
:102F90000895821B930B08950E94B917A59F900D69
:102FA000B49F900DA49F800D911D11240895AA1B1C
:102FB000BB1B51E107C0AA1FBB1FA617B70710F024
:102FC000A61BB70B881F991F5A95A9F78095909556
:102FD000BC01CD010895A1E21A2EAA1BBB1BFD0165
:102FE0000DC0AA1FBB1FEE1FFF1FA217B307E407E8
:102FF000F50720F0A21BB30BE40BF50B661F771F40
:10300000881F991F1A9469F760957095809590951F
:103010009B01AC01BD01CF0108952F923F924F92C9
:103020005F926F927F928F929F92AF92BF92CF9258
:10303000DF92EF92FF920F931F93CF93DF93CDB761
:10304000DEB7CA1BDB0B0FB6F894DEBF0FBECDBFD9
:1030500019942A88398848885F846E847D848C849A
:103060009B84AA84B984C884DF80EE80FD800C81B3
:103070001B81AA81B981CE0FD11D0FB6F894DEBF96
:103080000FBECDBFED010895EE0FFF1F0590F49127
:10309000E02D19940790F691E02D1994FC018827F2
:1030A0009927E89421912032E9F3293010F02E304D
:1030B000C8F32B3241F02D3239F4689404C00E94D9
:1030C000B018820F911D219120532A30C0F31EF4B5
:1030D000909581959F4F0895FB01DC018D910190A2
:1030E00080190110D9F3990B0895DC01FB014150BF
:1030F000504058F049F001900D920020C1F7E61BB6
:10310000F70B3197CF0108951C9201900020E9F749
:10311000F6CFFA01A191B081009719F41097E1F070
:10312000CD01DC01CD010D90002011F4C00113C0D0
:10313000FB012191222319F02015D9F7F3CFFB01D0
:103140002191201519F41E92119606C02223C1F771
:103150000D900020A1F7D001FA01A193B08308954A
:103160007AE0979F902D879F802D910D11240895CF
:04317000F894FFCF01
:103174002003EF02B6025C024C023002C4017E015D
:1031840000003B203C0001556E6B6E6F776E206330
:103194006F6D6D616E640020006C6F7700300031DC
:1031A4000068696768006F7574006F757470757472
:1031B40000696E70757400696E0000000000C00A3A
:1031C400BA0E620A910A750AB50A6E616E00696EDA
:0831D40066006F7666002E0014
:00000001FF
