:100000000C9463000C94270E0C94540E0C948B00EB
:100010000C948B000C948B000C948B000C948B0034
:100020000C948B000C948B000C948B000C948B0024
:100030000C948B000C948B000C948B000C948B0014
:100040000C94110D0C948B000C94C8090C94F909B4
:100050000C948B000C948B000C948B000C948B00F4
:100060000C948B000C948B000000000024002700EF
:100070002A0000000000250028002B0000000000DE
:1000800023002600290004040404040404040202DA
:100090000202020203030303030301020408102007
:1000A0004080010204081020010204081020000012
:1000B0000007000201000003040600000000000029
:1000C00000006802BA0A11241FBECFEFD8E0DEBFDD
:1000D000CDBF11E0A0E0B1E0E2EBF4E202C0059098
:1000E0000D92AA35B107D9F713E0AAE5B1E001C036
:1000F0001D92A837B107E1F710E0C6ECD0E004C0CC
:100100002297FE010E94E911C23CD107C9F70E9463
:1001100000090C9457120C940000AF92BF92CF923A
:10012000DF92EF92FF920F931F9384E791E063E0D9
:1001300070E040E051E020E000E010E0EE24FF2419
:10014000E8E8CE2EE3E1DE2E3AE0A32EB12C0E94A9
:1001500040031F910F91FF90EF90DF90CF90BF90E1
:10016000AF900895EF92FF920F931F93CF93DF9379
:10017000C4E7D1E0CE010E948A037C0107E611E0CA
:10018000CE01B8014DE00E945804CEE5D1E0CE0189
:10019000B7010E94D204CE01B8010E948405CDB7F8
:1001A000DEB7E6E00C94D8111F93CF93DF93C4E73A
:1001B000D1E0CE010E948A03182FCE010E948A034B
:1001C000BC01812F0E94B10CDF91CF911F91089546
:1001D0001F9384E791E00E948A03182F84E791E03F
:1001E00060E171E00E947D04882341F484E791E09E
:1001F00064E171E00E947D04882381F0812F60E03A
:100200000AC084E791E066E171E00E947D048823E2
:1002100071F0812F61E00E94D20E09C084E791E065
:1002200068E171E00E947D04882399F7EACF1F916D
:1002300008951F9384E791E00E948A03182F84E7B2
:1002400091E06DE171E00E947D04882341F484E730
:1002500091E061E271E00E947D04882381F0812FAA
:1002600061E00AC084E791E068E271E00E947D04E9
:10027000882371F0812F60E00E94AE0E09C084E7F0
:1002800091E06EE271E00E947D04882399F7EACF45
:100290001F910895EF92FF921F93CF93DF93E82E63
:1002A000E7017E01F92EE70114E006C084E791E042
:1002B000612F0E94B3021F5F499159914115510569
:1002C000A9F7DF91CF911F91FF90EF900895CF9301
:1002D000DF938CE493E040E052EC61E070E00E9438
:1002E000400AC4E7D1E0CE010E94C102CE016DE810
:1002F00070E00E94AF0287E391E00E944A01DF9123
:10030000CF91089584E791E00E94250408950F930A
:100310001F938C014AE050E00E94CD0BC8011F9151
:100320000F910895A0E0B0E0E8E9F1E00C94BA1173
:1003300084E791E00E948A03D82EC92E0E94070FFD
:100340007C018CE493E066E070E00E948701EC01A0
:1003500001E311E0B8010E942C0BCE016D2D7C2D24
:100360000E948701EC01B8010E942C0BCE01B7015D
:100370000E9487010E94370BCDB7DEB7E8E00C94EE
:10038000D6110F931F938C0122E030E00E948D0C58
:10039000C8011F910F910895EF92FF920F931F9341
:1003A000CF93DF9384E791E00E948A038C018AE572
:1003B00091E0B8010E9421088CE493E06AE070E0CB
:1003C0000E948701EC01F1E3EF2EF1E0FF2EB7016F
:1003D0000E942C0BCE01B8010E948701EC01B701ED
:1003E0000E942C0B60915A0170915B01882777FD68
:1003F0008095982F0E943510AB01BC01CE010E9460
:10040000C101EC01B7010E942C0B60915C0170915D
:100410005D01882777FD8095982F0E943510AB01EC
:10042000BC01CE010E94C1010E94370BCDB7DEB7DF
:10043000E6E00C94D811A0E0B0E0E1E2F2E00C9428
:10044000BA1184E791E00E948A03D82EC92E0E9437
:10045000900C7C010027F7FC0095102FC3E6D0E03C
:100460008D2D0E94900CAA2797FDA095BA2FE80E1B
:10047000F91E0A1F1B1F219799F78CE493E067E090
:1004800070E00E948701EC0161E371E00E942C0B97
:10049000CE016D2D7C2D0E948701EC0161E371E09E
:1004A0000E942C0BC801B7010E94351020E030E0FB
:1004B00048EC52E40E949A0FAB01BC01CE010E94AD
:1004C000C1010E94370BCDB7DEB7E8E00C94D6111E
:1004D0008EE591E00E94AF0484E791E06CE473E064
:1004E00040913501209136010E9477020895FC0168
:1004F000DC01A055BF4F6D937C93DC01AC54BF4F22
:100500001C92DC01AB54BF4F1C92DC01AD54BF4FB9
:100510004C93DC01AE54BF4F2C9380E481838FE376
:1005200082831082DF01A455BF4F1D921C92DF0110
:10053000A255BF4F1D921C92DF01A555BF4F81E010
:100540008C9314821382DF01159682E390E01D9252
:100550001D920197E1F7E759FF4F10820895FC01C2
:10056000748363830895262F2150223348F4E62FA5
:10057000F0E03197EE0FFF1FE80FF91F5683458318
:100580000895FC01EB54FF4F81E080830895A2E0C1
:10059000B0E0EDECF2E00C94BE118C011A821982ED
:1005A000FC01ED54FF4F80818983F801E655FF4F30
:1005B0008081882351F1813031F4C80186599F4FE1
:1005C00022E0208302C080E090E0F801E555FF4F73
:1005D0002081222369F0A80142555F4FBE016F5F61
:1005E0007F4F0E942812F801E455FF4F91838083CA
:1005F000F801E455FF4F80819181009731F0F801B7
:10060000E555FF4F108281E001C080E02296E4E0D2
:100610000C94DA11A0E0B0E0E0E1F3E00C94B41146
:10062000EC014B010E94590D5B016C017B018C01B7
:10063000C055DF4FC4013C01882477FC8094982C7E
:1006400088819981DC01ED91FC910480F581E02D98
:100650000995009759F0D601C5018E199F09A00B85
:10066000B10B681679068A069B0628F40E94590D7C
:100670007B018C01E5CFCDB7DEB7EEE00C94D01155
:10068000A0E0B0E0E6E4F3E00C94B7118C017A014D
:10069000922EFC01E759FF4F81E08083E801C055AD
:1006A000DF4F888199814AE050E00E94CD0BF8012C
:1006B000ED54FF4F8881998160810E942F0B8881C2
:1006C0009981B7010E942C0BF801EE54FF4F8881ED
:1006D000998160810E942F0BF801EB54FF4F8081BC
:1006E000882321F0888199810E94370B992039F065
:1006F000C801B6010E940A031A141B04CCF3F801C6
:10070000E759FF4F108280E090E0CDB7DEB7EBE015
:100710000C94D311CF93DF93EC010E94C70288237E
:1007200069F0FE01E555FF4F81E08083C455DF4F3E
:10073000888199810E94ED119C0102C020E030E087
:10074000C901DF91CF910895CF93DF93EC010E940F
:100750008A03FC013197E233F10548F4EE0FFF1FE5
:10076000EC0FFD1F0580F681E02D309711F4EB8131
:10077000FC810995DF91CF910895CF93DF93EC0130
:10078000DC01A655BF4F1C92161617060CF04EC082
:10079000862FFE01EE54FF4F20819881621759F495
:1007A000FE01E90FF11DE659FF4F1082992371F107
:1007B00081E08C932BC0FE01E90FF11DE659FF4F3C
:1007C00060839F5F98832A81921780F01882FE01D0
:1007D000E455FF4F11821082FE01E255FF4F118256
:1007E0001082FE01E555FF4F91E09083FE01EC542D
:1007F000FF4F90819923D1F0FE01ED54FF4F90817E
:100800008917A1F08A3011F08D3081F41882FE0131
:10081000E455FF4F11821082FE01E255FF4F118215
:100820001082FE01E555FF4F81E08083FE01E65511
:10083000FF4F8081813019F4CE010E94A403C65578
:10084000DF4F8881DF91CF910895EF92FF920F9350
:100850001F93CF93DF93EC0149E6E42EF12CE80ED1
:10086000F91E8C0100551F4FD7018C918823D9F4B4
:10087000F80180819181DC01ED91FC910480F5818A
:10088000E02D0995009779F0F80180819181DC01D4
:10089000ED91FC910680F781E02D0995BC01CE0118
:1008A0000E94BD03E1CFCDB7DEB7E6E00C94D811CE
:1008B000A1E0B0E0EEE5F4E00C94BC117C018B010A
:1008C00049830E94C7024981882379F0F701E555E1
:1008D000FF4F81E08083F701E455FF4F6081718114
:1008E000C80150E00E94141204C0442311F0F80122
:1008F00010822196E6E00C94D8110F931F93CF93AA
:10090000DF93EC018B010E94C702882379F0FE017E
:10091000E455FF4F60817181C8010E940B1200975E
:1009200031F4C555DF4F81E0888302C001C080E00B
:10093000DF91CF911F910F910895FC016087613085
:10094000710529F48EE591E09583848308956230E2
:10095000710521F48AE892E0958384830895FC016F
:100960008FEF9FEF918380839383828310922A027B
:1009700010922B0210922C0210922D028EE591E023
:10098000958384838AE090E0978386838CE390E06C
:100990009093480180934701CF0161E070E00E948D
:1009A0009D040895FC01862F6283738361E00E9499
:1009B000AE0E0895FC0180819181FFEF8F3F9F076C
:1009C00091F010922A0210922B0210922C02109297
:1009D0002D0210922F0210922E0267EA77E041E07A
:1009E00050E00E94F70D0895EF92FF920F931F932E
:1009F000CF93DF93EC017B018A018A819B812FEFEA
:100A00008F3F920779F1888199813FEF8F3F93075C
:100A100031F00E94170E8FEF9FEF998388838A81B0
:100A200061E00E94D20E8C819D819C01E29EC001FA
:100A3000E39E900DF29E900D11240E94B20D8A81CA
:100A400060E00E94D20E8C819D819C01029FC001BA
:100A5000039F900D129F900D11240E94B20DCE01A4
:100A60000E94DA04CDB7DEB7E6E00C94D811FC01A1
:100A70002085213039F461E070E04FE150E00E94C0
:100A8000F4040895223031F461E070E04AE050E06F
:100A90000E94F4040895CF93DF93EC0161E070E0CD
:100AA00043E050E00E94F404CE0163E070E041E0D6
:100AB00050E00E94F404DF91CF910895CF93DF932B
:100AC000EC0163E070E041E050E00E94F404CE01EC
:100AD00063E070E041E050E00E94F404DF91CF91C8
:100AE0000895CF93DF93EC0161E070E043E050E0C4
:100AF0000E94F404CE0161E070E043E050E00E9407
:100B0000F404DF91CF910895A0E0B0E0EAE8F5E0C9
:100B10000C94BA11EC01D62EC72E00E010E01BC0D9
:100B2000813361F0863431F0803359F4CE010E9474
:100B3000710507C0CE010E944B0503C0CE010E9483
:100B40005E05F70181917F01882351F7CE010E9454
:100B500037050F5F1F4F8E819F810817190724F4F7
:100B6000C601E92EFC2CEDCFCDB7DEB7E8E00C9442
:100B7000D611ACE0B0E0EFEBF5E00C94B0114C0115
:100B800080913402909135026FE170E00E9467110C
:100B90001B017B0100E010E02091470130914801EA
:100BA000442737FD4095542FC801B7010E944811D2
:100BB0000E9433102AE037ED43E25CE30E94E51027
:100BC0000E9407109B01AC01D801C701880F991F33
:100BD000AA1FBB1F8E0D9F1DA01FB11F5C016D01C1
:100BE000A21AB30AC40AD50AA982BA82CB82DC82CD
:100BF00029013A01480E591E6A1E7B1E61E070E011
:100C000080E090E0DC0157016801A21AB30AC40A2F
:100C1000D50AAD82BE82CF82D88659016A01AE0C58
:100C2000BF1CC01ED11EA986BA86CB86DC8669C0D1
:100C3000FB01EE0FFF1FEC5CFD4F2081318140E096
:100C400050E0CD80DE80EF80F884C216D306E40643
:100C5000F50600F5E984FA840B851C852E153F0501
:100C600040075107B8F4FB01EE0FFF1FEA5CFD4F90
:100C7000E080F18000E010E0A980BA80CB80DC80C9
:100C8000AE14BF04C006D10628F4E414F50406052A
:100C9000170560F1C980DA80EB80FC80C216D306AC
:100CA000E406F50640F5241535054605570518F503
:100CB000FB01EE0FFF1FEA5CFD4F2081318140E018
:100CC00050E0ED80FE800F811885E216F3060407E0
:100CD000150788F4A984BA84CB84DC842A153B05E3
:100CE0004C055D0540F40196A11DB11D880F991FAB
:100CF000AA1FBB1F04C0B40180E090E0DC016E5F5E
:100D00007F4F6815790508F493CF9C01AD01569586
:100D100047953795279507E080169104C0F02093FA
:100D20002A0230932B0240932C0250932D0296946A
:100D3000879490922F0280922E023092310220925C
:100D4000300281E090E0909333028093320281E0A0
:100D5000211531054105510509F480E02C96E2E1A9
:100D60000C94CC11ACE0B0E0E8EBF6E00C94B011E0
:100D70004C0180913402909135026AE070E00E944B
:100D800067111B017B0100E010E0209147013091C9
:100D90004801442737FD4095542FC801B7010E94F0
:100DA00048110E9433102AE037ED43E25CE30E94D1
:100DB000E5100E9407109B01AC01D801C701880F04
:100DC000991FAA1FBB1F5C016D01A21AB30AC40AB6
:100DD000D50AA982BA82CB82DC8229013A01480E67
:100DE000591E6A1E7B1E61E070E080E090E0DC012D
:100DF00057016801A21AB30AC40AD50AAD82BE829D
:100E0000CF82D88659016A01AE0CBF1CC01ED11E0C
:100E1000A986BA86CB86DC8669C0FB01EE0FFF1F70
:100E2000EC5CFD4F2081318140E050E0CD80DE80E0
:100E3000EF80F884C216D306E406F50600F5E984CF
:100E4000FA840B851C852E153F0540075107B8F421
:100E5000FB01EE0FFF1FEA5CFD4FE080F18000E038
:100E600010E0A980BA80CB80DC80AE14BF04C0063D
:100E7000D10628F4E414F5040605170560F1C980CD
:100E8000DA80EB80FC80C216D306E406F50640F556
:100E9000241535054605570518F5FB01EE0FFF1F14
:100EA000EA5CFD4F2081318140E050E0ED80FE8022
:100EB0000F811885E216F3060407150788F4A98444
:100EC000BA84CB84DC842A153B054C055D0540F4CF
:100ED0000196A11DB11D880F991FAA1FBB1F04C039
:100EE000B40180E090E0DC016E5F7F4F681579050A
:100EF00008F493CF9C01AD015695479537952795FA
:100F000007E080169104C0F020932A0230932B0250
:100F100040932C0250932D029694879490922F0226
:100F200080922E02309231022092300282E090E0D4
:100F3000909333028093320281E0211531054105FF
:100F4000510509F480E02C96E2E10C94CC11A0E06C
:100F5000B0E0EDEAF7E00C94BA110E94670D6B0166
:100F60007C018091BC029091BD02E601C81BD90BA7
:100F7000D093C302C093C20283E1C938D807A8F155
:100F800080913402909135029C01285C30402C17EE
:100F90003D0738F588539F4FC817D90710F5809142
:100FA000BA029091BB0201969093BB028093BA0261
:100FB0000091C0021091C102015010401093C10273
:100FC0000093C0028230910561F4C8010E94B90506
:100FD000882319F4C8010E94B2061092BB02109235
:100FE000BA021092C1021092C0028091C002909188
:100FF000C1028334910540F01092C1021092C002E8
:101000001092BB021092BA028091C0029091C1026C
:10101000FC01EE0FFF1FEC5CFD4FD183C0830196F6
:101020009093C1028093C002C092BC02D092BD02D4
:10103000E092BE02F092BF02CDB7DEB7E8E00C94BA
:10104000D6112F923F924F925F926F927F929F9212
:10105000AF92BF92CF92DF92EF92FF920F931F93C6
:10106000DF93CF9300D000D00F92CDB7DEB78C01C5
:10107000B62E19821A821B821C821D82862F61E085
:101080000E94AE0E8B2D60E00E94D20E62E170E0F5
:1010900080E090E00E948D0D8B2D61E00E94D20EC9
:1010A00088E290E00E94B20D8B2D60E00E94AE0EAF
:1010B00070E1E72E77E2F72E07C0E114F10409F49E
:1010C00082C00894E108F1088B2D0E94070F009759
:1010D000A1F360E1E62E67E2F62E07C0E114F10409
:1010E00009F471C00894E108F1088B2D0E94070FE4
:1010F0008130910599F358E2C52ED12C992447E00F
:10110000A42E31E0632E712C08C0E114F10409F41F
:101110005AC00894E108F10804C020E1E22E27E259
:10112000F22E8B2D0E94070F009779F30E94670D16
:101130001B012C0190E1E92E97E2F92E07C0E11482
:10114000F10409F440C00894E108F1088B2D0E94D5
:10115000070F8130910599F30E94670D6219730999
:1011600084099509693271058105910580F0E1E0F6
:10117000F0E0EC0FFD1FE90DF11DC3010A2C02C0C8
:10118000880F991F0A94E2F72081282B2083AA2038
:1011900021F4939487E0A82E01C0AA940894C10872
:1011A000D108C114D10409F0B8CF8981F801808336
:1011B00011829B8192831382890F9D81981731F050
:1011C0002FEF3FEF05C02EEF3FEF02C020E030E0F1
:1011D000C9010F900F900F900F900F90CF91DF915A
:1011E0001F910F91FF90EF90DF90CF90BF90AF9045
:1011F0009F907F906F905F904F903F902F900895B9
:10120000CF93DF930E94BC0D0E946701C0EFD9E02D
:101210000E9482012097E1F30E94F009F9CFFC01BE
:1012200084859585FC01E05CFF4F208131818E5BD8
:101230009F4FFC0180819181281B390B2F733070E7
:10124000C9010895FC0184859585FC01E05CFF4F90
:1012500040815181FC01EE5BFF4F208131814217BB
:10126000530741F00190F081E02DE80FF91F208134
:1012700030E002C02FEF3FEFC9010895FC018485E3
:101280009585FC01E05CFF4F40815181FC01EE5BE4
:10129000FF4F208131814217530771F0A081B18146
:1012A000A80FB91F2C918081918101968F73907046
:1012B0009183808330E002C02FEF3FEFC901089592
:1012C000DC011E968D919C911F97FC01E05CFF4F05
:1012D0008E5B9F4F40815181DC012D913C91119794
:1012E00042175307B9F708951F93FC01162F26855F
:1012F0003785D901A05CBF4F8D919C91019660E428
:1013000070E00E947B11D901AE5BBF4F4D915C91A3
:10131000119784179507D1F3D901A05CBF4F0D90A9
:10132000BC91A02DA20FB31F1C93A685B785A05C0E
:10133000BF4F11969C938E93A689B7892C9181E01B
:1013400090E0058C02C0880F991F0A94E2F7282BC1
:101350002C9381E090E01F910895FB01E05CFF4F2A
:10136000208131812F5F3F4F2F733070DB01AE5BE7
:10137000BF4F4D915C9111972417350739F0A0812B
:10138000B181A60FB71F8C933183208308950895F0
:101390001F920F920FB60F9211242F933F934F93EA
:1013A0005F936F937F938F939F93AF93BF93EF93CD
:1013B000FF938091C60064EC72E00E94AD09FF913A
:1013C000EF91BF91AF919F918F917F916F915F91BD
:1013D0004F913F912F910F900FBE0F901F90189536
:1013E0008CE493E00E940F09009711F00E94C70956
:1013F00008951F920F920FB60F9211242F933F93CF
:101400005F936F937F938F939F93AF93BF93EF936C
:10141000FF93209148033091490380914A039091B2
:101420004B032817390731F48091C1008F7D8093D9
:10143000C10016C0E0914A03F0914B03E85FFC4FF6
:10144000208180914A0390914B03019660E470E003
:101450000E947B1190934B0380934A032093C60014
:10146000FF91EF91BF91AF919F918F917F916F917C
:101470005F913F912F910F900FBE0F901F90189585
:10148000A0E0B0E0E6E4FAE00C94BB11EC017A01D4
:101490008B01DD24D394403081EE580780E068074B
:1014A00080E0780749F4DD24EC89FD89108260E84A
:1014B00074E88EE190E00FC0EC89FD8981E090E056
:1014C0000E8C02C0880F991F0A94E2F7808360E0B7
:1014D00079E08DE390E0A80197010E948E112150E0
:1014E000304040405040569547953795279580E1CC
:1014F0002030380710F0DD20B1F6E889F989308313
:10150000EA89FB892083EE89FF89408181E090E0B0
:101510009C010A8C02C0220F331F0A94E2F7422B6F
:101520004083EE89FF8940819C010B8C02C0220F11
:10153000331F0A94E2F7422B4083EE89FF894081F2
:101540009C010C8C02C0220F331F0A94E2F7422B3D
:101550004083EE89FF8920810D8C02C0880F991F7E
:101560000A94E2F7809582238083CDB7DEB7E7E067
:101570000C94D71110924F0310924E0388EE93E013
:10158000A0E0B0E08093500390935103A0935203E6
:10159000B0935303EEE4F3E08EE491E092938293F0
:1015A00084EC92E09587848788E093E0978786872C
:1015B00085EC90E0918B808B84EC90E0938B828B18
:1015C00080EC90E0958B848B81EC90E0978B868B00
:1015D00086EC90E0918F808F84E0828F83E0838F10
:1015E00087E0848F85E0858F81E0868F0895A0E075
:1015F000B0E0EDEFFAE00C94BA116C017B018A01C6
:10160000C0E0D0E00FC0D7016D917D01D601ED9112
:10161000FC910190F081E02DC6010995C80FD91FFA
:10162000015010400115110571F7CE01CDB7DEB79D
:10163000E8E00C94D611DB010D900020E9F7AD0134
:1016400041505040461B570BDC01ED91FC9102804C
:10165000F381E02D099508950E941B0B0895DC018C
:10166000ED91FC910190F081E02D099508950F9383
:101670001F93CF93DF93EC016DE00E942F0B8C0141
:10168000CE016AE00E942F0B080F191FC801DF91DD
:10169000CF911F910F910895A1E2B0E0E2E5FBE048
:1016A0000C94B6116C01042FE52FCB01122F19A257
:1016B000223008F41AE021E2E22EF12CEC0EFD1E9D
:1016C000812E9924AA24BB2403C0022FE32FCA0130
:1016D000602F7E2FA50194010E948E11129F802DF4
:1016E0001124081B0894E108F1080A3014F4005D85
:1016F00001C0095CF7010083211531054105510541
:1017000021F7C601B7010E941B0BA196ECE00C94D7
:10171000D2112115310549F4DC01ED91FC910190C4
:10172000F081E02D642F099508950E944C0B0895D7
:10173000A0E0B0E0EEE9FBE00C94BA11EC017A0114
:101740008B012115310541F4E881F9810190F08187
:10175000E02D642F09951AC02A303105A9F477FFCE
:1017600012C06DE20E942F0B6C0144275527BA016D
:101770004E195F09600B710BCE012AE00E944C0BE1
:10178000C80ED91E04C02AE00E944C0B6C01C60191
:10179000CDB7DEB7E8E00C94D6119A01FB01AF019A
:1017A000662757FD6095762F0E94980B08956F92DB
:1017B0007F929F92AF92BF92CF92DF92EF92FF9271
:1017C0000F931F93CF93DF933C017A018B01C22EBD
:1017D000CB01BA0120E030E0A9010E94960F87FFFB
:1017E0000AC0C3016DE20E942F0BEC0117FB10959C
:1017F00017F9109502C0C0E0D0E0DD2450E040E0D1
:1018000030E02FE311C0DA01F9016B2F742F8F2F15
:10181000922F20E030E040E251E40E949A0F562FD0
:10182000472F382F292FD394DC1468F3C801B70150
:10183000DA01F9012B2F342F4F2F5E2F0E94320F28
:101840005B01F82E992E7B2D0E940710162FD72EA4
:10185000E82E092F0E9433109B01AC016A2D7B2DCD
:101860008F2D992D0E94310F962EA72EB82EF92E6E
:10187000C301412F5D2D6E2D702F2AE030E00E94B4
:10188000890BC80FD91FCC20B9F1C30163E371E004
:101890000E941B0BC80FD91F2FC0692D7A2D8B2DCD
:1018A0009F2D20E030E040E251E40E94E510D62E6A
:1018B000B72EA82E992E0E9402107B010027F7FC5C
:1018C0000095102FC301B801A7012AE030E00E9463
:1018D000980BC80FD91FC801B7010E9435109B0192
:1018E000AC016D2D7B2D8A2D992D0E94310F962EE6
:1018F000A72EB82EF92ECA94CC2079F6CE01DF910E
:10190000CF911F910F91FF90EF90DF90CF90BF90FC
:10191000AF909F907F906F9008950E94D70B08958D
:101920008E3008F08E508770909149019295990FF2
:10193000990F907C982B90937C0080917A00806422
:1019400080937A0080917A0086FDFCCF2091780008
:1019500030917900932F80E030E0282B392BC9019A
:1019600008951F93CF93DF93182FEB0161E00E943E
:10197000AE0E209709F44AC0CF3FD10509F449C003
:10198000E12FF0E0E255FF4FE491E330C1F0E430A5
:1019900028F4E13051F0E230B1F50CC0E63019F135
:1019A000E73049F1E43079F514C084B5806884BD2E
:1019B000C7BD33C084B5806284BDC8BD2EC08091D0
:1019C0008000806880938000D0938900C093880055
:1019D00024C080918000806280938000D0938B002F
:1019E000C0938A001AC08091B00080688093B000D4
:1019F000C093B30012C08091B00080628093B000A9
:101A0000C093B4000AC0C038D1051CF4812F60E037
:101A100002C0812F61E00E94D20EDF91CF911F9111
:101A200008951F920F920FB60F9211242F933F9398
:101A30008F939F93AF93BF9380916F0390917003A7
:101A4000A0917103B0917203309173030196A11DAF
:101A5000B11D232F2D5F2D3720F02D570196A11D8D
:101A6000B11D2093730380936F0390937003A09331
:101A70007103B093720380916B0390916C03A091FA
:101A80006D03B0916E030196A11DB11D80936B0390
:101A900090936C03A0936D03B0936E03BF91AF91CD
:101AA0009F918F913F912F910F900FBE0F901F909C
:101AB00018958FB7F89420916F033091700340917F
:101AC0007103509172038FBFB901CA0108959FB786
:101AD000F89420916B0330916C0340916D03509109
:101AE0006E0386B5A89B06C08F3F21F02F5F3F4F46
:101AF0004F4F5F4F9FBF542F432F322F2227280F66
:101B0000311D411D511D82E0220F331F441F551FFF
:101B10008A95D1F7B901CA010895EF92FF920F9308
:101B20001F93CF93DF937B018C010E94670DEB0124
:101B30000FC00E94670D6C1B7D0B83E0683E780729
:101B400038F00894E108F10801091109C851DC4F87
:101B5000E114F1040105110561F7CDB7DEB7E6E048
:101B60000C94D811019739F0880F991F880F991F8D
:101B700002970197F1F70895789484B5826084BD47
:101B800084B5816084BD85B5826085BD85B5816081
:101B900085BDEEE6F0E0808181608083E1E8F0E0E1
:101BA0001082808182608083808181608083E0E810
:101BB000F0E0808181608083E1EBF0E080818460EF
:101BC0008083E0EBF0E0808181608083EAE7F0E0F1
:101BD0008081846080838081826080838081816055
:101BE00080838081806880831092C1000895823054
:101BF000E8F4E82FF0E0EE0FFF1FEC58FC4F718384
:101C00006083813041F0809169008C7F842B8093C8
:101C10006900E89A089580916900440F551F440FA8
:101C2000551F837F842B80936900E99A0895823041
:101C300068F4813011F0E89801C0E998E82FF0E0ED
:101C4000EE0FFF1FEC58FC4F1182108208951F9277
:101C50000F920FB60F9211242F933F934F935F93E0
:101C60006F937F938F939F93AF93BF93EF93FF9364
:101C70008091740390917503009729F0E0917403AB
:101C8000F09175030995FF91EF91BF91AF919F91ED
:101C90008F917F916F915F914F913F912F910F9015
:101CA0000FBE0F901F9018951F920F920FB60F92B4
:101CB00011242F933F934F935F936F937F938F9351
:101CC0009F93AF93BF93EF93FF938091760390918F
:101CD0007703009729F0E0917603F0917703099557
:101CE000FF91EF91BF91AF919F918F917F916F91F4
:101CF0005F914F913F912F910F900FBE0F901F90CA
:101D00001895833071F0843028F48130A1F082304E
:101D100021F514C08630B1F08730D1F08430E9F479
:101D200004C0809180008F7703C0809180008F7DF8
:101D300080938000089584B58F7702C084B58F7D2D
:101D400084BD08958091B0008F778093B00008958E
:101D50008091B0008F7D8093B000089590E0FC01E9
:101D6000E656FF4F2491FC01EA57FF4FE491EE2322
:101D7000C1F0F0E0EE0FFF1FE859FF4F85919491FD
:101D8000DC01662341F49FB7F8948C91209582235F
:101D90008C939FBF08959FB7F8948C91822B8C935E
:101DA0009FBF0895A1E0B0E0E8EDFEE00C94BE1105
:101DB000282F30E0F901E255FF4F8491F901E656F2
:101DC000FF4F14912A573F4FF90104910023D9F096
:101DD000882321F069830E94810E6981E02FF0E061
:101DE000EE0FFF1FEE58FF4F85919491DC019FB7D6
:101DF000F894662321F48C911095812302C08C9174
:101E0000812B8C939FBF2196E4E00C94DA110F9301
:101E10001F93282F30E0F901E255FF4F8491F9011B
:101E2000E656FF4F04912A573F4FF90114911123B1
:101E300091F0882311F00E94810EE12FF0E0EE0F67
:101E4000FF1FE458FF4F85919491DC018C91802312
:101E500021E030E011F420E030E0C9011F910F9142
:101E600008955058BB27AA270ED075C166D130F00F
:101E70006BD120F031F49F3F11F41EF45BC10EF4DE
:101E8000E095E7FB51C1E92F77D180F3BA176207DC
:101E900073078407950718F071F49EF58FC10EF44F
:101EA000E0950B2EBA2FA02D0B01B90190010C016A
:101EB000CA01A0011124FF27591B99F0593F50F482
:101EC000503E68F11A16F040A22F232F342F4427DA
:101ED000585FF3CF469537952795A795F0405395D2
:101EE000C9F77EF41F16BA0B620B730B840BBAF0A2
:101EF0009150A1F0FF0FBB1F661F771F881FC2F70D
:101F00000EC0BA0F621F731F841F48F48795779520
:101F10006795B795F7959E3F08F0B3CF9395880FD7
:101F200008F09927EE0F979587950895D9D008F472
:101F300081E008950CD00FC107D140F0FED030F001
:101F400021F45F3F19F0F0C0511139C1F3C014D131
:101F500098F39923C9F35523B1F3951B550BBB2770
:101F6000AA2762177307840738F09F5F5F4F220F1D
:101F7000331F441FAA1FA9F333D00E2E3AF0E0E816
:101F800030D091505040E695001CCAF729D0FE2F62
:101F900027D0660F771F881FBB1F261737074807F4
:101FA000AB07B0E809F0BB0B802DBF01FF279358AA
:101FB0005F4F2AF09E3F510568F0B6C000C15F3FF9
:101FC000ECF3983EDCF3869577956795B795F79592
:101FD0009F5FC9F7880F911D9695879597F908958A
:101FE000E1E0660F771F881FBB1F62177307840726
:101FF000BA0720F0621B730B840BBA0BEE1F88F735
:10200000E095089504D06894B111D9C00895BCD06A
:1020100088F09F5790F0B92F9927B751A0F0D1F0D1
:10202000660F771F881F991F1AF0BA95C9F712C05B
:10203000B13081F0C3D0B1E00895C0C0672F782FD0
:102040008827B85F39F0B93FCCF3869577956795C7
:10205000B395D9F73EF490958095709561957F4F33
:102060008F4F9F4F0895E89409C097FB3EF49095D9
:102070008095709561957F4F8F4F9F4F9923A9F061
:10208000F92F96E9BB279395F695879577956795F0
:10209000B795F111F8CFFAF4BB0F11F460FF1BC034
:1020A0006F5F7F4F8F4F9F4F16C0882311F096E9C7
:1020B00011C0772321F09EE8872F762F05C0662375
:1020C00071F096E8862F70E060E02AF09A95660F2E
:1020D000771F881FDAF7880F9695879597F90895E7
:1020E000990F0008550FAA0BE0E8FEEF1616170629
:1020F000E807F907C0F012161306E407F50798F091
:10210000621B730B840B950B39F40A2661F0232BA9
:10211000242B252B21F408950A2609F4A140A69525
:102120008FEF811D811D089597F99F6780E870E00A
:1021300060E008959FEF80EC089500240A9416163D
:10214000170618060906089500240A9412161306A5
:10215000140605060895092E0394000C11F4882333
:1021600052F0BB0F40F4BF2B11F460FF04C06F5F4F
:102170007F4F8F4F9F4F089557FD9058440F551F25
:1021800059F05F3F71F04795880F97FB991F61F0F9
:102190009F3F79F087950895121613061406551F70
:1021A000F2CF4695F1DF08C0161617061806991FDC
:1021B000F1CF86957105610508940895E894BB27D1
:1021C00066277727CB0197F908950BD0C4CFB5DFE9
:1021D00028F0BADF18F0952309F0A6CFABCF112471
:1021E000EECFCADFA0F3959FD1F3950F50E0551FB6
:1021F000629FF001729FBB27F00DB11D639FAA275C
:10220000F00DB11DAA1F649F6627B00DA11D661FAA
:10221000829F2227B00DA11D621F739FB00DA11DCB
:10222000621F839FA00D611D221F749F3327A00D85
:10223000611D231F849F600D211D822F762F6A2F21
:1022400011249F5750408AF0E1F088234AF0EE0FA6
:10225000FF1FBB1F661F771F881F91505040A9F7B3
:102260009E3F510570F060CFAACF5F3FECF3983EE0
:10227000DCF3869577956795B795F795E7959F5F1A
:10228000C1F7FE2B880F911D9695879597F90895B4
:10229000629FD001739FF001829FE00DF11D649F4A
:1022A000E00DF11D929FF00D839FF00D749FF00DD6
:1022B000659FF00D9927729FB00DE11DF91F639F77
:1022C000B00DE11DF91FBD01CF0111240895AA1B16
:1022D000BB1B51E107C0AA1FBB1FA617B70710F011
:1022E000A61BB70B881F991F5A95A9F78095909543
:1022F000BC01CD01089597FB092E07260AD077FD72
:1023000004D0E5DF06D000201AF4709561957F4F68
:102310000895F6F7909581959F4F0895A1E21A2EA2
:10232000AA1BBB1BFD010DC0AA1FBB1FEE1FFF1F79
:10233000A217B307E407F50720F0A21BB30BE40BC9
:10234000F50B661F771F881F991F1A9469F7609510
:102350007095809590959B01AC01BD01CF010895CA
:102360002F923F924F925F926F927F928F929F92A5
:10237000AF92BF92CF92DF92EF92FF920F931F9393
:10238000CF93DF93CDB7DEB7CA1BDB0B0FB6F89444
:10239000DEBF0FBECDBF09942A88398848885F8484
:1023A0006E847D848C849B84AA84B984C884DF80F5
:1023B000EE80FD800C811B81AA81B981CE0FD11DD9
:1023C0000FB6F894DEBF0FBECDBFED010895EE0F3E
:1023D000FF1F0590F491E02D0994FC0188279927AF
:1023E000E89421912032E9F3293010F02E30C8F31F
:1023F0002B3241F02D3239F4689404C00E944F1200
:10240000820F911D219120532A30C0F31EF4909524
:1024100081959F4F0895FB01DC018D9101908019FA
:102420000110D9F3990B0895DC01FB014150504094
:1024300058F049F001900D920020C1F7E61BF70B10
:102440003197CF0108951C9201900020E9F7F6CF53
:10245000FA01A191B081009719F41097E1F0CD0134
:10246000DC01CD010D90002011F4C00113C0FB016F
:102470002191222319F02015D9F7F3CFFB012191E7
:10248000201519F41E92119606C02223C1F70D9053
:102490000020A1F7D001FA01A193B08308957AE05A
:1024A000979F902D879F802D910D11240895F8946A
:0224B000FFCF5C
:1024B200556E6B6E6F776E20636F6D6D616E64002B
:1024C2006C6F77003000310068696768006F75745F
:1024D200006F757470757400696E70757400696E42
:1024E2000020002E00203B1901E80092011B02D4BB
:1024F20000B200CC0100003C0001000000007409A1
:0A250200F70A0F093E0922096009DB
:00000001FF
