:100000000C9463000C943F0F0C946C0F0C948B00B9
:100010000C948B000C948B000C948B000C9489092D
:100020000C948B000C948B000C948B000C948B0024
:100030000C948B000C948B000C948B000C948B0014
:100040000C94990F0C948B000C94A30A0C94E60A60
:100050000C948B000C948B000C948B000C948B00F4
:100060000C948B000C948B00000000070002010030
:100070000003040600000000000000000102040864
:100080001020408001020408102001020408102002
:10009000040404040404040402020202020203032E
:1000A00003030303000000002300260029000000D2
:1000B0000000250028002B0000000000240027007D
:1000C0002A00C202A20B11241FBECFEFD8E0DEBF70
:1000D000CDBF11E0A0E0B1E0ECE4F7E202C0059092
:1000E0000D92A836B107D9F713E0A8E6B1E001C038
:1000F0001D92A539B107E1F710E0C6ECD0E004C0CD
:100100002297FE010E943613C23CD107C9F70E9414
:10011000FA090C94A4130C940000AF92BF92CF92F2
:10012000DF92EF92FF920F931F938AE0A82EB12CDB
:1001300098E8C92E93E1D92EE12CF12C00E010E0D3
:1001400020E047E151E063E070E088E691E00E9442
:10015000A1031F910F91FF90EF90DF90CF90BF9080
:10016000AF9008950F931F93CF93DF9328E030E073
:100170003093D3022093D20284E690E00E941309C8
:100180002091DA023091DB024091DC025091DD02D5
:10019000AAE0B0E00E94BC1203C08B01D82FC92F87
:1001A0002091D9022223C9F34AE050E06BE070E0CD
:1001B0008EED92E00E94E80C67E271E08EED92E035
:1001C0000E94330CB8018D2F9C2F0E948E11AB0121
:1001D000BC0122E030E08EED92E00E94CD0D8EED6C
:1001E00092E00E943E0CDF91CF911F910F910895F4
:1001F0008F929F92AF92BF92CF92DF92EF92FF9237
:10020000CF93DF9388E691E00E94F003EC01BC01FC
:1002100084E392E00E946708609136027091370291
:10022000882777FD8095982F0E948E116B017C01A5
:100230006091340270913502882777FD8095982F60
:100240000E948E114B015C014AE050E06AE070E0D0
:100250008EED92E00E94E80C67E271E08EED92E094
:100260000E94330C4AE050E0BE018EED92E00E9405
:10027000E80C67E271E08EED92E00E94330C22E020
:1002800030E0B501A4018EED92E00E94CD0D67E251
:1002900071E08EED92E00E94330C22E030E0B70175
:1002A000A6018EED92E00E94CD0D8EED92E00E94AF
:1002B0003E0CDF91CF91FF90EF90DF90CF90BF90F9
:1002C000AF909F908F900895CF93DF9388E691E051
:1002D0000E94F003EC014DE06EE172E088E691E0EF
:1002E0000E94BC04BE018BE292E00E9421056EE1F7
:1002F00072E08BE292E00E94D505DF91CF910895E4
:10030000CF9388E691E00E94F003C82F88E691E041
:100310000E94F003BC018C2F0E94B00ECF91089573
:10032000A0E0B0E0E6E9F1E00C94071388E691E084
:100330000E94F003182F092F0E948F0E6C01EE24EB
:10034000D7FCE094FE2CC3E6D0E0812F0E948F0EF4
:10035000AC01662757FD6095762FC40ED51EE61EAC
:10036000F71E219791F74AE050E067E070E08EEDCC
:1003700092E00E94E80C67E271E08EED92E00E944C
:10038000330C4AE050E0612F702F8EED92E00E9416
:10039000E80C67E271E08EED92E00E94330CC70139
:1003A000B6010E948E1120E030E048EC52E40E9439
:1003B000F310AB01BC0122E030E08EED92E00E9430
:1003C000CD0D8EED92E00E943E0CCDB7DEB7E8E099
:1003D0000C9423130F931F93CF93DF9388E691E040
:1003E0000E94F003182F092F0E94660EEC014AE0CC
:1003F00050E066E070E08EED92E00E94E80C67E26B
:1004000071E08EED92E00E94330C4AE050E0612FE3
:10041000702F8EED92E00E94E80C67E271E08EEDA5
:1004200092E00E94330C4AE050E0BE018EED92E073
:100430000E94E80C8EED92E00E943E0CDF91CF917D
:100440001F910F910895CF9388E691E00E94F003E9
:10045000C82F69E271E088E691E00E94E104811111
:100460001BC06DE271E088E691E00E94E104811119
:1004700013C009C06FE271E088E691E00E94E104D8
:1004800081110CC00FC061E371E088E691E00E9429
:10049000E104811103C0EECF60E001C061E08C2F68
:1004A0000E94320ECF910895CF9388E691E00E948A
:1004B000F003C82F66E371E088E691E00E94E10452
:1004C00081111BC06AE371E088E691E00E94E104BB
:1004D000811113C009C061E471E088E691E00E94D7
:1004E000E10481110CC00FC067E471E088E691E07F
:1004F0000E94E104811103C0EECF61E001C060E021
:100500008C2F0E94FA0DCF9108951F93CF93DF9304
:10051000EC0114E006C0612F88E691E00E94D5024C
:100520001F5F4991599141155105A9F7DF91CF916D
:100530001F91089540E052EC61E070E08EED92E092
:100540000E94210B88E691E00E94E1026DE870E0D4
:1005500088E691E00E94D10280E091E00E9485024D
:100560002FE088E190E00FB6F894A89580936000A2
:100570000FBE20936000089588E691E00E948A04EF
:10058000A89508958BE292E00E9401052091120146
:10059000409113016EED72E088E691E00E94240321
:1005A0000895FC01748363830895262F215022331C
:1005B00038F4FC01E60FF11DE60FF11D548343836F
:1005C00008958B549F4F21E0FC0120830895FC0186
:1005D000DC01A055BF4F6D937C93DC01AC54BF4F41
:1005E0001C92DC01AB54BF4F1C92DC01AD54BF4FD9
:1005F0004C93DC01AE54BF4F2C9380E481838FE396
:1006000082831082DF01A455BF4F1D921C92DF012F
:10061000A255BF4F1D921C92DF01A555BF4F81E02F
:100620008C931482138280E090E0DF01A80FB91F41
:1006300016961C921E921597029684369105A9F77C
:10064000E759FF4F108208950E94E7020895A2E043
:10065000B0E0EDE2F3E00C940B138C011A821982E6
:10066000FC01ED54FF4F80818983F801E655FF4F6F
:100670008081882351F1813031F4C80186599F4F20
:1006800022E0208302C080E090E0F801E555FF4FB2
:100690002081222369F0A80142555F4FBE016F5FA0
:1006A0007F4F0E947513F801E455FF4F91838083BB
:1006B000F801E455FF4F80819181892B31F0F801D9
:1006C000E555FF4F108281E001C080E02296E4E012
:1006D0000C942713A0E0B0E0E0E7F3E00C94FF12E5
:1006E0008C01EB010E94E30F6B017C014B015C016B
:1006F00000551F4F2E01662457FC6094762CD801BC
:100700008D919C91DC01ED91FC910480F581E02DAF
:100710000995892B59F0D701C60188199909AA09A9
:10072000BB09481659066A067B0628F40E94E30FA7
:100730004B015C01E4CF80E0CDB7DEB7E0E10C9483
:100740001B13A0E0B0E0E7EAF3E00C940213EC0125
:100750004A01722E7C0189E6E80EF11C81E0F70166
:1007600080838E0100551F4F4AE050E0F8018081E0
:1007700091810E94E80CFE01ED54FF4F6081F80169
:10078000808191810E94360CB401F80180819181B1
:100790000E94330CFE01EE54FF4F6081F80180810E
:1007A00091810E94360CFE01EB54FF4F808188231B
:1007B00029F0F801808191810E943E0C772039F068
:1007C000B601CE010E946A031A141B04CCF3F70190
:1007D000108280E090E0CDB7DEB7EDE00C941E1300
:1007E000CF93DF93EC010E942703882369F0FE0179
:1007F000E555FF4F81E08083C455DF4F88819981A3
:100800000E943A139C0102C020E030E0C901DF9150
:10081000CF910895CF93DF93EC010E94F0030197ED
:100820008233910558F4FC01EE0FFF1FEC0FFD1F02
:100830000580F681E02D309709F002C0EB81FC8144
:100840000995DF91CF910895CF93DF93FC01DC01EF
:10085000A655BF4F1C92161617060CF04EC0862FD9
:10086000EF01CE54DF4F2881908162130BC0EF015E
:10087000C90FD11DC659DF4F1882992371F181E04C
:100880008C932BC0DF01A90FB11DA659BF4F6C93EC
:100890009F5F90832281921780F01082DF01A45520
:1008A000BF4F1D921C92DF01A255BF4F1D921C929B
:1008B000DF01A555BF4F91E09C93DF01AC54BF4FC2
:1008C0009C919923D1F0DF01AD54BF4F9C918917C2
:1008D000A1F08A3011F08D3081F41082DF01A4552F
:1008E000BF4F1D921C92DF01A255BF4F1D921C925B
:1008F000DF01A555BF4F81E08C93EF01C655DF4F57
:100900008881813019F4CF010E940A048881DF9127
:10091000CF910895EF92FF920F931F93CF93DF93A0
:10092000EC017C0189E6E80EF11C8E0100551F4F99
:10093000D7018C9181111BC0F80180819181DC016C
:10094000ED91FC910480F581E02D0995892B79F0DA
:10095000F80180819181DC01ED91FC910680F781A5
:10096000E02D0995BC01CE010E942404E1CFCDB752
:10097000DEB7E6E00C942513A1E0B0E0E2ECF4E091
:100980000C9409137C018B0149830E942703498140
:10099000882379F0F701E555FF4F81E08083F70167
:1009A000E455FF4F6081718150E0C8010E946113DE
:1009B00004C0442311F0F80110822196E6E00C9463
:1009C00025130F931F93CF93DF93EC018B010E94AC
:1009D0002703882379F0FE01E455FF4F6081718180
:1009E000C8010E945813009731F4C555DF4F81E0CC
:1009F000888302C001C080E0DF91CF911F910F91E9
:100A00000895FC018FEF9FEF91838083938382830E
:100A10001092C4021092C5021092C6021092C70230
:100A20008EE591E0958384838AE090E097838683C6
:100A30008CE390E0909315018093140181E080870E
:100A40000895FC01862F6283738361E00E94FA0D92
:100A50000895FC01808191818F3FFFEF9F0791F006
:100A60001092C4021092C5021092C6021092C702E0
:100A70001092C3021092C20241E050E06EEE77E0A5
:100A80000E940F0F0895CF93DF93EC0188810E949D
:100A90002F0F8FEF9FEF99838883DF91CF91089578
:100AA000EF92FF920F931F93CF93DF93EC017B01A3
:100AB0008A018A819B81019651F1888199810196F1
:100AC00019F0CE010E94430561E08A810E94320E36
:100AD0008C819D819C01E29EC001E39E900DF29E5F
:100AE000900D11240E94451060E08A810E94320E10
:100AF0008C819D819C01029FC001039F900D129FDC
:100B0000900D11240E944510CE010E942905CDB7F9
:100B1000DEB7E6E00C942513FC012085213019F4A2
:100B20004FE150E004C0223031F44AE050E061E08F
:100B300070E00E9450050895CF93DF93EC0143E0ED
:100B400050E061E070E00E94500541E050E063E059
:100B500070E0CE010E945005DF91CF910895CF93B0
:100B6000DF93EC0141E050E063E070E00E9450054B
:100B700041E050E063E070E0CE010E945005DF915B
:100B8000CF910895CF93DF93EC0143E050E061E013
:100B900070E00E94500543E050E061E070E0CE015B
:100BA0000E945005DF91CF910895A0E0B0E0EBEDF9
:100BB000F5E00C940713EC016B01E12CF12C1CC047
:100BC000813361F0863431F0803359F4CE010E94D4
:100BD000C20507C0CE010E949C0503C0CE010E9441
:100BE000AF05F80181918F018111EACFCE010E94FA
:100BF0008C05FFEFEF1AFF0A8E819F81E816F90638
:100C000014F48601EECFCDB7DEB7E8E00C942313E1
:100C1000ACE0B0E0EEE0F6E00C94FD121C01809137
:100C20003802909139026FE170E00E94C7128B0187
:100C30004B01A12CB12CA0911401B09115019B0185
:100C40000E94B5120E948C112AE037ED43E25CE36A
:100C50000E9442120E9460116B017C019801A3E086
:100C6000B0E00E94A9129B01AC012C193D094E096C
:100C70005F0929833A834B835C8326013701460E43
:100C8000571E681E791E21E030E080E090E0DC0114
:100C9000B501A4014C195D096E097F094D835E837E
:100CA0006F837887B701A601480D591D6A1D7B1D0A
:100CB00049875A876B877C876CC0F901EE0FFF1F4D
:100CC000E85CFD4F408151814A01A12CB12CCD80BF
:100CD000DE80EF80F884C814D904EA04FB0408F528
:100CE00049855A856B857C8584169506A606B706C8
:100CF000C0F4F901EE0FFF1FE65CFD4F408151810A
:100D000060E070E0C980DA80EB80FC80C416D50614
:100D1000E606F70630F4441555056605770508F430
:100D20002DC049815A816B817C81481559056A051E
:100D30007B0548F584149504A604B70420F5F90151
:100D4000EE0FFF1FE65CFD4F408151814A01A12C4F
:100D5000B12CCD80DE80EF80F884C814D904EA0479
:100D6000FB0488F449855A856B857C858416950635
:100D7000A606B70640F40196A11DB11D880F991F64
:100D8000AA1FBB1F04C0910180E090E0DC012E5F30
:100D90003F4F2215330508F490CFB695A795979548
:100DA000879557E025163104C0F08093C4029093D4
:100DB000C502A093C602B093C7023694279430921E
:100DC000C3022092C2021093C1020093C00221E02C
:100DD00030E03093BF022093BE0221E0892B8A2BA2
:100DE0008B2B09F420E0822F2C96E2E10C9419134E
:100DF000A0E1B0E0EEEFF6E00C94FD121C01809152
:100E00003802909139026AE070E00E94C7128B01AB
:100E10006B01E12CF12CA0911401B09115019B0103
:100E20000E94B5120E948C112AE037ED43E25CE388
:100E30000E9442120E9460114B015C01B701A601A1
:100E4000440F551F661F771F2A013B014818590898
:100E50006A087B08D501C401840F951FA61FB71F20
:100E60008D839E83AF83B88721E030E080E090E0FF
:100E7000DC01B701A601481959096A097B094987AC
:100E80005A876B877C87B701A601480D591D6A1DDB
:100E90007B1D4D875E876F87788B71C0F901EE0FE0
:100EA000FF1FE85CFD4F0190F081E02DAF0160E095
:100EB00070E089849A84AB84BC8484169506A60667
:100EC000B70630F5AD84BE84CF84D8884A155B055B
:100ED0006C057D05E8F4F901EE0FFF1FE65CFD4FA0
:100EE000E080F1804701A12CB12C89829A82AB82EB
:100EF000BC82481459046A047B0450F4CD80DE801F
:100F0000EF80F8848C149D04AE04BF0408F42CC058
:100F1000441655066606770660F58D809E80AF8084
:100F2000B884481559056A057B0518F5F901EE0FD7
:100F3000FF1FE65CFD4F80809180A12CB12CC984FD
:100F4000DA84EB84FC84C814D904EA04FB0488F432
:100F50004D855E856F85788984169506A606B70649
:100F600040F40196A11DB11D880F991FAA1FBB1F38
:100F700004C0910180E090E0DC012E5F3F4F22151C
:100F8000330508F48BCFB695A7959795879557E0CD
:100F900025163104C0F08093C4029093C502A0933B
:100FA000C602B093C702369427943092C3022092AF
:100FB000C2021093C1020093C00222E030E03093DD
:100FC000BF022093BE0221E0892B8A2B8B2B09F4D0
:100FD00020E0822F6096E2E10C941913A0E0B0E0CB
:100FE000E4EFF7E00C9407130E94F50F6B017C010E
:100FF0008091C8029091C902E601C81BD90BD09319
:10100000CD02C093CC02C93883E1D807A0F180910A
:101010003802909139029C01285C31092C173D0758
:1010200030F588539F4FC817D90708F58091CE0235
:101030009091CF0201969093CF028093CE020091BF
:10104000D0021091D102015011091093D1020093E6
:10105000D002029761F4C8010E940806811103C002
:10106000C8010E94F8061092CF021092CE02109290
:10107000D1021092D0028091D0029091D10283349B
:10108000910540F01092D1021092D0021092CF023E
:101090001092CE028091D0029091D102FC01EE0F0D
:1010A000FF1FE85CFD4FD183C08301969093D1026E
:1010B0008093D002C092C802D092C902E092CA02C4
:1010C000F092CB02CDB7DEB7E8E00C942313A5E095
:1010D000B0E0EDE6F8E00C94FE128C01562E198279
:1010E0001A821B821C821D8261E0852D0E94FA0DEE
:1010F00060E0852D0E94320E62E170E080E090E0B9
:101100000E941F1061E0852D0E94320E88E290E05F
:101110000E94451060E0852D0E94FA0D71E1E72ED6
:1011200077E2F72E07C081E0E81AF10819F42EEFF4
:101130003FEF74C0852D0E94660E892BA1F361E1FB
:10114000E62E67E2F62E04C0E1E0EE1AF10879F32C
:10115000852D0E94660E0197B9F338E2A32EB12CBB
:10116000312C47E0442E88248394912C05C0F1E073
:10117000EF1AF10829F4DBCF21E1E22E27E2F22E6B
:10118000852D0E94660E892B91F30E94F50F6B014D
:101190007C0191E1692E97E2792E05C081E0681A01
:1011A000710809F4C4CF852D0E94660E0197B1F332
:1011B0000E94F50F6C197D098E099F09693271052E
:1011C0008105910578F0E1E0F0E0EC0FFD1FE30D03
:1011D000F11DC401042C01C0880F0A94EAF7908124
:1011E000982B9083411004C0339487E0482E01C0AF
:1011F0004A94E1E0AE1AB10809F0BECF8981F80146
:10120000808311829B8192831382890F9D8198171D
:1012100019F02FEF3FEF02C020E030E0C901259622
:10122000E1E10C941A13CF93DF93D82FC92F2091AB
:101230006E002E7F20936E0082E390E00E944510A6
:101240002D2F3C2F3093D5022093D4028091D202CF
:101250009091D302892B31F481E090E09093D302F6
:101260008093D2021092800010928100109285002B
:101270001092840080918100816080938100809130
:1012800081008260809381008091810084608093DE
:1012900081001092B0001092B1008091B100816085
:1012A0008093B1008091B1008D7F8093B1008091D7
:1012B000B10084608093B1008091B0008E7F8093F4
:1012C000B0008091B00082608093B0008091B00047
:1012D000877F8093B0008CE78093B3001092D9028F
:1012E0001092D7021092D60282E083BD1092B20013
:1012F000109285001092840080917000826080932B
:10130000700080918100876080938100DF91CF9190
:1013100008951F920F920FB60F9211242F933F93AF
:101320004F935F936F937F938F939F93AF93BF93ED
:10133000EF93FF932091D6023091D7028091D4028F
:101340009091D5022817390790F18091D20290919F
:10135000D3020E94451080918100887F8093810094
:10136000809170008D7F8093700080916E0081600D
:1013700080936E0081E08093D9028091D802209101
:1013800084003091850090E0A0E0B0E0DC01992776
:101390008827820F931FA11DB11D8093DA029093BD
:1013A000DB02A093DC02B093DD021092D8028091A0
:1013B000D6029091D70201969093D7028093D602DD
:1013C000B09B07C08091D8028F5F8093D80281E0E4
:1013D00086BBFF91EF91BF91AF919F918F917F91CC
:1013E0006F915F914F913F912F910F900FBE0F9092
:1013F0001F9018950E944F100E949A02CDEDDAE0DE
:101400000E94BC022097E1F30E94DD0AF9CFFC01A3
:1014100084859585FC01E05CFF4F20813181FC01D2
:10142000EE5BFF4F80819181281B390B2F7333278F
:10143000C9010895FC0184859585FC01E05CFF4F9E
:1014400040815181FC01EE5BFF4F208131814217C9
:10145000530741F00190F081E02DE80FF91F208142
:1014600030E002C02FEF3FEFC9010895FC018485F1
:101470009585FC01E05CFF4F40815181FC01EE5BF2
:10148000FF4F208131814217530781F0A081B18144
:10149000A80FB91F8C91208131812F5F3F4F2F738F
:1014A000332731832083282F30E002C02FEF3FEF16
:1014B000C9010895FC0181A1882329F0A489B58977
:1014C0008C9186FFFBCF11A20895CF93DF93FC018F
:1014D00026853785D901A05CBF4F8D919C911197CE
:1014E00001968F739927E901CE5BDF4F48815981BF
:1014F00084179507D9F30D90BC91A02DA20FB31FAF
:101500006C93A685B785A05CBF4F11969C938E9374
:10151000A689B7892C9181E090E0078C02C0880FE2
:10152000991F0A94E2F7282B2C9381E081A3048869
:10153000F589E02D80818064808381E090E0DF91F7
:10154000CF91089508951F920F920FB60F92112414
:101550002F933F934F938F939F93EF93FF9380919C
:10156000C00082FD1CC04091C60080918403909110
:10157000850301968F739927209186033091870305
:101580008217930771F0E0918403F0918503EC5B7F
:10159000FC4F4083909385038093840302C0809125
:1015A000C600FF91EF919F918F914F913F912F91A5
:1015B0000F900FBE0F901F9018958EED92E00E9435
:1015C000070A892B11F00E94A20A08951F920F9218
:1015D0000FB60F9211242F933F938F939F93EF9306
:1015E000FF932091400330914103809142039091F9
:1015F00043032817390731F48091C1008F7D809310
:10160000C10014C0E0914203F0914303E050FD4F4C
:101610002081809142039091430301968F73992713
:1016200090934303809342032093C600FF91EF9170
:101630009F918F913F912F910F900FBE0F901F9010
:101640001895CF92DF92EF92FF92CF93DF93EC0148
:101650006A017B01411581EE580761057105F9F0BA
:10166000EC89FD8981E090E008A002C0880F991FF5
:101670000A94E2F7808360E079E08DE390E0A701CF
:1016800096010E94DB1221503109410951095695FA
:10169000479537952795211580E1380798F0EC8913
:1016A000FD89108260E874E88EE190E0A701960160
:1016B0000E94DB1221503109410951095695479585
:1016C00037952795E889F9893083EA89FB89208352
:1016D00019A2EE89FF89408181E090E09C010C8C89
:1016E00002C0220F331F0A94E2F7422B4083EE8997
:1016F000FF8940819C010D8C02C0220F331F0A9488
:10170000E2F7422B4083EE89FF8940819C010E8CD9
:1017100002C0220F331F0A94E2F7422B4083EE8966
:10172000FF8920810F8C02C0880F991F0A94E2F76D
:10173000809582238083DF91CF91FF90EF90DF909F
:10174000CF9008951092E1021092E00288EE93E0AB
:10175000A0E0B0E08093E2029093E302A093E40261
:10176000B093E5028EE491E09093DF028093DE0275
:1017700084E493E09093EB028093EA0280E093E0AC
:101780009093ED028093EC0285EC90E09093EF0251
:101790008093EE0284EC90E09093F1028093F0024B
:1017A00080EC90E09093F3028093F20281EC90E061
:1017B0009093F5028093F40282EC90E09093F7020C
:1017C0008093F60286EC90E09093F9028093F80201
:1017D00084E08093FA0283E08093FB0287E08093A9
:1017E000FC0285E08093FD0281E08093FE02089573
:1017F000A0E0B0E0EEEFFBE00C9407136C01EB010E
:101800007A01E60EF71E00E010E00BC06991D601E8
:10181000ED91FC910190F081E02DC6010995080F32
:10182000191FCE15DF0591F7C801CDB7DEB7E8E087
:101830000C9423136115710591F0DB010D900020CC
:10184000E9F7AD0141505109461B570BDC01ED9101
:10185000FC910280F381E02D09959C0102C020E0FB
:1018600030E0C90108950E941A0C0895DC01ED9141
:10187000FC910190F081E02D099508950F931F933D
:10188000CF93DF93EC016DE00E94360C8C016AE08F
:10189000CE010E94360C9C01200F311FC901DF913F
:1018A000CF911F910F9108954F925F926F927F9207
:1018B0009F92AF92BF92CF92DF92EF92FF920F93DF
:1018C0001F93CF93DF93CDB7DEB7A1970FB6F894F0
:1018D000DEBF0FBECDBF5C016A017B01922E19A253
:1018E00081E0821710F08AE0982E8E010F5D1F4F65
:1018F000492C512C612C712CC701B601A301920116
:101900000E94DB128C2D929E801911240150110926
:101910008A3014F4805D01C0895CF801808369011C
:101920007A01C114D104E104F10431F7B801C50111
:101930000E941A0CA1960FB6F894DEBF0FBECDBF61
:10194000DF91CF911F910F91FF90EF90DF90CF909B
:10195000BF90AF909F907F906F905F904F90089551
:10196000A0E0B0E0E6EBFCE00C940713EC016A01A8
:101970007B012115310541F4E881F9810190F08165
:10198000E02D642F09951DC02A303105A9F477FF99
:1019900012C06DE20E94360C8C0144275527BA0113
:1019A0004C195D096E097F092AE0CE010E94540C92
:1019B000080F191F07C02AE0B701A601CE010E9437
:1019C000540C8C01C801CDB7DEB7E8E00C942313AA
:1019D0009A01AB01662757FD6095762F0E94B00CE7
:1019E0000895A0E0B0E0E7EFFCE00C940213EC01F6
:1019F0006A017B01122F9A01AB01C701B6010E9457
:101A0000A512882319F06AE571E01AC04601570152
:101A1000E894B7F82FEF3FEF4FE75FE7C501B40158
:101A20000E94A512811111C02FEF3FEF4FE75FE732
:101A3000C501B4010E94EF1018163CF46EE571E088
:101A4000CE010E941A0C7C01A2C02FEF3FEF4FE79E
:101A50005FE4C701B6010E943E1218160CF40AC0DA
:101A60002FEF3FEF4FE75FECC701B6010E94EF1089
:101A700087FF03C062E671E0E3CF20E030E0A90118
:101A8000C701B6010E94EF1087FF0AC06DE2CE01C8
:101A90000E94360C5C01F7FAF094F7F8F09402C05B
:101AA000A12CB12C00E060E070E080E09FE307C073
:101AB00020E030E040E251E40E94F3100F5F011398
:101AC000F7CF262F372F482F592FC701B6010E9475
:101AD0008B10762E872E982EC92E0E946011D62E3E
:101AE000E72EF82E092F0E948C119B01AC01672D67
:101AF000782D892D9C2D0E948A10C62E972E882E17
:101B0000792E2AE04D2D5E2D6F2D702FCE010E9473
:101B1000540C7C01EA0CFB1C1123B9F166E671E060
:101B2000CE010E941A0CE80EF91E2FC020E030E012
:101B300040E251E46C2D792D882D972D0E944212A0
:101B4000762E072F6C019D2D0E945B114B01AA245C
:101B500097FCA094BA2C2AE030E0B501A401CE0194
:101B60000E94B00CE80EF91EC501B4010E948E114E
:101B70009B01AC01672D702F8C2D9D2D0E948A102A
:101B8000C62E972E882E792E11501111CFCFC70156
:101B9000CDB7DEB7EDE00C941E130E94F10C089552
:101BA000833069F028F48130A1F0823011F514C03F
:101BB0008630B1F08730C1F08430D9F404C0809110
:101BC00080008F7703C0809180008F7D809380009C
:101BD000089584B58F7702C084B58F7D84BD089544
:101BE0008091B0008F7703C08091B0008F7D80938B
:101BF000B0000895CF93DF9390E0FC01E458FF4FCD
:101C00004491FC01E057FF4F8491882341F190E01B
:101C1000880F991FFC01E854FF4F25913491D90199
:101C200082559F4FFC0185919491C82FD92F9FB762
:101C3000F8948C91611106C0409584238C9388811F
:101C4000842308C0623041F4242F209582238C9392
:101C50008881842B888302C0842B8C939FBFDF9163
:101C6000CF910895A1E0B0E0E8E3FEE00C940B13FF
:101C7000282F30E0F901E859FF4F8491F901E45829
:101C8000FF4F1491F901E057FF4F04910023D1F069
:101C9000882321F069830E94D00D6981E02FF0E054
:101CA000EE0FFF1FE255FF4F85919491DC019FB726
:101CB000F8948C91611103C01095812301C0812B90
:101CC0008C939FBF2196E4E00C942713CF93DF936E
:101CD000282F30E0F901E859FF4F8491F901E458C9
:101CE000FF4FD491F901E057FF4FC491CC2389F005
:101CF00081110E94D00DEC2FF0E0EE0FFF1FEC558C
:101D0000FF4F85919491DC018C918D2321E030E08F
:101D100011F420E030E0C901DF91CF9108958E30B9
:101D200008F08E5087702091160140E4249F9001A6
:101D30001124822B80937C0080917A0080648093B0
:101D40007A0080917A0086FDFCCF20917800309156
:101D50007900932F80E0AC01422B9A01C9010895CC
:101D60001F93CF93DF93182FEB0161E00E94FA0DD0
:101D7000209711F460E004C0CF3FD10529F461E061
:101D8000812F0E94320E47C0E12FF0E0E859FF4F4B
:101D9000E491E330B9F028F4E13051F0E230B1F5EC
:101DA0000CC0E63019F1E73049F1E43079F514C0A0
:101DB00084B5806884BDC7BD2EC084B5806284BDF3
:101DC000C8BD29C080918000806880938000D09336
:101DD0008900C09388001FC080918000806280933A
:101DE0008000D0938B00C0938A0015C08091B00012
:101DF00080688093B000C093B3000DC08091B000A4
:101E000080628093B000C093B40005C0C038D10593
:101E10000CF0B5CFAFCFDF91CF911F9108958230F5
:101E2000E8F4E82FF0E0EE0FFF1FE857FC4F718356
:101E30006083813041F0809169008C7F842B809396
:101E40006900E89A089580916900440F551F440F76
:101E5000551F837F842B80936900E99A089582300F
:101E600068F4813011F0E89801C0E998E82FF0E0BB
:101E7000EE0FFF1FE857FC4F1182108208951F924A
:101E80000F920FB60F9211242F933F934F935F93AE
:101E90006F937F938F939F93AF93BF93EF93FF9332
:101EA0008091880390918903892B29F0E091880320
:101EB000F09189030995FF91EF91BF91AF919F91A7
:101EC0008F917F916F915F914F913F912F910F90E3
:101ED0000FBE0F901F9018951F920F920FB60F9282
:101EE00011242F933F934F935F936F937F938F931F
:101EF0009F93AF93BF93EF93FF9380918A03909149
:101F00008B03892B29F0E0918A03F0918B030995CB
:101F1000FF91EF91BF91AF919F918F917F916F91C1
:101F20005F914F913F912F910F900FBE0F901F9097
:101F300018951F920F920FB60F9211242F933F9373
:101F40008F939F93AF93BF9380918C0390918D0358
:101F5000A0918E03B0918F0330919403232F2D5FB6
:101F60002D3720F40196A11DB11D05C0232F2A573E
:101F70000296A11DB11D2093940380938C0390932E
:101F80008D03A0938E03B0938F0380919003909163
:101F90009103A0919203B09193030196A11DB11DED
:101FA0008093900390939103A0939203B093930333
:101FB000BF91AF919F918F913F912F910F900FBE45
:101FC0000F901F9018950F931F938FB7F89400915F
:101FD0008C0310918D0320918E0330918F038FBF5E
:101FE000B801C9011F910F9108950F931F939FB7D7
:101FF000F8940091900310919103209192033091F5
:10200000930386B5A89B06C08F3F21F00F5F1F4F3B
:102010002F4F3F4F9FBF322F212F102F0027080F28
:10202000111D211D311D42E0000F111F221F331F02
:102030004A95D1F7B801C9011F910F910895CF9228
:10204000DF92EF92FF92CF93DF936B017C010E94AE
:10205000F50FEB010EC00E94F50F6C1B7D0B683E67
:10206000734038F081E0C81AD108E108F108C8517E
:10207000DC4FC114D104E104F10469F7DF91CF9181
:10208000FF90EF90DF90CF900895019739F0880F7F
:10209000991F880F991F02970197F1F70895789477
:1020A00084B5826084BD84B5816084BD85B582605D
:1020B00085BD85B5816085BDEEE6F0E080818160FB
:1020C0008083E1E8F0E010828081826080838081FB
:1020D00081608083E0E8F0E0808181608083E1EBD3
:1020E000F0E0808184608083E0EBF0E080818160BB
:1020F0008083EAE7F0E08081846080838081826071
:102100008083808181608083808180688083109259
:10211000C10008955058BB27AA270ED075C166D1BB
:1021200030F06BD120F031F49F3F11F41EF45BC10D
:102130000EF4E095E7FB51C1E92F77D180F3BA1790
:10214000620773078407950718F071F49EF58FC135
:102150000EF4E0950B2EBA2FA02D0B01B9019001C2
:102160000C01CA01A0011124FF27591B99F0593F06
:1021700050F4503E68F11A16F040A22F232F342F4E
:102180004427585FF3CF469537952795A795F0409C
:102190005395C9F77EF41F16BA0B620B730B840BB1
:1021A000BAF09150A1F0FF0FBB1F661F771F881F69
:1021B000C2F70EC0BA0F621F731F841F48F48795C1
:1021C00077956795B795F7959E3F08F0B3CF9395B0
:1021D000880F08F09927EE0F979587950895D9D025
:1021E00008F481E008950CD00FC107D140F0FED073
:1021F00030F021F45F3F19F0F0C0511139C1F3C044
:1022000014D198F39923C9F35523B1F3951B550BBA
:10221000BB27AA2762177307840738F09F5F5F4FB9
:10222000220F331F441FAA1FA9F333D00E2E3AF0FA
:10223000E0E830D091505040E695001CCAF729D014
:10224000FE2F27D0660F771F881FBB1F2617370763
:102250004807AB07B0E809F0BB0B802DBF01FF2793
:1022600093585F4F2AF09E3F510568F0B6C000C1F9
:102270005F3FECF3983EDCF3869577956795B795CD
:10228000F7959F5FC9F7880F911D9695879597F9E8
:102290000895E1E0660F771F881FBB1F6217730761
:1022A0008407BA0720F0621B730B840BBA0BEE1F76
:1022B00088F7E095089504D06894B111D9C00895C5
:1022C000BCD088F09F5790F0B92F9927B751A0F054
:1022D000D1F0660F771F881F991F1AF0BA95C9F7BA
:1022E00012C0B13081F0C3D0B1E00895C0C0672FF3
:1022F000782F8827B85F39F0B93FCCF3869577956A
:102300006795B395D9F73EF4909580957095619552
:102310007F4F8F4F9F4F0895E89409C097FB3EF47D
:1023200090958095709561957F4F8F4F9F4F992322
:10233000A9F0F92F96E9BB279395F69587957795A0
:102340006795B795F111F8CFFAF4BB0F11F460FF60
:102350001BC06F5F7F4F8F4F9F4F16C0882311F0B8
:1023600096E911C0772321F09EE8872F762F05C0CC
:10237000662371F096E8862F70E060E02AF09A9567
:10238000660F771F881FDAF7880F9695879597F95C
:102390000895990F0008550FAA0BE0E8FEEF1616F6
:1023A0001706E807F907C0F012161306E407F50749
:1023B00098F0621B730B840B950B39F40A2661F0BD
:1023C000232B242B252B21F408950A2609F4A14060
:1023D000A6958FEF811D811D089597F99F6780E86D
:1023E00070E060E008959FEF80EC089500240A9467
:1023F0001616170618060906089500240A941216E0
:102400001306140605060895092E0394000C11F412
:10241000882352F0BB0F40F4BF2B11F460FF04C0BF
:102420006F5F7F4F8F4F9F4F089557FD9058440F18
:10243000551F59F05F3F71F04795880F97FB991F23
:1024400061F09F3F79F087950895121613061406E0
:10245000551FF2CF4695F1DF08C01616170618066D
:10246000991FF1CF86957105610508940895E89448
:10247000BB2766277727CB0197F908958ADF08F4F1
:102480008FEF08950BD0C0CFB1DF28F0B6DF18F082
:10249000952309F0A2CFA7CF1124EACFC6DFA0F37E
:1024A000959FD1F3950F50E0551F629FF001729FE9
:1024B000BB27F00DB11D639FAA27F00DB11DAA1F08
:1024C000649F6627B00DA11D661F829F2227B00D55
:1024D000A11D621F739FB00DA11D621F839FA00DE0
:1024E000611D221F749F3327A00D611D231F849F30
:1024F000600D211D822F762F6A2F11249F57504087
:102500008AF0E1F088234AF0EE0FFF1FBB1F661F21
:10251000771F881F91505040A9F79E3F510570F0DA
:102520005CCFA6CF5F3FECF3983EDCF386957795C2
:102530006795B795F795E7959F5FC1F7FE2B880FD5
:10254000911D9695879597F9089523DF880B990B30
:102550000895A29FB001B39FC001A39F01D0B29F75
:10256000700D811D1124911D08950E94A912B7FFBD
:102570000895821B930B08950E94A912A59F900DA8
:10258000B49F900DA49F800D911D11240895AA1B46
:10259000BB1B51E107C0AA1FBB1FA617B70710F04E
:1025A000A61BB70B881F991F5A95A9F78095909580
:1025B000BC01CD010895A1E21A2EAA1BBB1BFD018F
:1025C0000DC0AA1FBB1FEE1FFF1FA217B307E40712
:1025D000F50720F0A21BB30BE40BF50B661F771F6A
:1025E000881F991F1A9469F760957095809590954A
:1025F0009B01AC01BD01CF0108952F923F924F92F4
:102600005F926F927F928F929F92AF92BF92CF9282
:10261000DF92EF92FF920F931F93CF93DF93CDB78B
:10262000DEB7CA1BDB0B0FB6F894DEBF0FBECDBF03
:1026300009942A88398848885F846E847D848C84D4
:102640009B84AA84B984C884DF80EE80FD800C81DD
:102650001B81AA81B981CE0FD11D0FB6F894DEBFC0
:102660000FBECDBFED010895EE0FFF1F0590F49151
:10267000E02D0994FC0188279927E89421912032C4
:10268000E9F3293010F02E30C8F32B3241F02D320F
:1026900039F4689404C00E949C13820F911D21910B
:1026A00020532A30C0F31EF4909581959F4F0895D2
:1026B000FB01DC018D91019080190110D9F3990B78
:1026C0000895DC01FB014150504058F049F0019061
:1026D0000D920020C1F7E61BF70B3197CF0108954B
:1026E0001C9201900020E9F7F6CFFA01A191B08188
:1026F000009719F41097E1F0CD01DC01CD010D90A8
:10270000002011F4C00113C0FB012191222319F014
:102710002015D9F7F3CFFB012191201519F41E9252
:10272000119606C02223C1F70D900020A1F7D00119
:10273000FA01A193B08308957AE0979F902D879F27
:0C274000802D910D11240895F894FFCF16
:10274C0054022302EA01900180016401F800B200F6
:10275C0000003B203C0001556E6B6E6F776E206362
:10276C006F6D6D616E640020006C6F77003000310E
:10277C000068696768006F7574006F7574707574A4
:10278C0000696E70757400696E0000000000650AC7
:10279C00F80B070A360A1A0A5A0A6E616E00696E3D
:0827AC0066006F7666002E0046
:00000001FF
