:100000000C9463000C945B0F0C94880F0C948B0081
:100010000C948B000C948B000C948B000C94C109F5
:100020000C948B000C948B000C948B000C948B0024
:100030000C948B000C948B000C948B000C948B0014
:100040000C94450E0C948B000C94FC0A0C942D0B14
:100050000C948B000C948B000C948B000C948B00F4
:100060000C948B000C948B000000000024002700EF
:100070002A0000000000250028002B0000000000DE
:1000800023002600290004040404040404040202DA
:100090000202020203030303030301020408102007
:1000A0004080010204081020010204081020000012
:1000B0000007000201000003040600000000000029
:1000C0000000B602EE0B11241FBECFEFD8E0DEBF5A
:1000D000CDBF11E0A0E0B1E0EAE1F7E202C0059097
:1000E0000D92AC35B107D9F713E0ACE5B1E001C032
:1000F0001D92A638B107E1F710E0C6ECD0E004C0CD
:100100002297FE010E941D13C23CD107C9F70E942D
:10011000340A0C948B130C940000AF92BF92CF92D0
:10012000DF92EF92FF920F931F9386E791E063E0D7
:1001300070E040E051E020E000E010E0EE24FF2419
:10014000E8E8CE2EE3E1DE2E3AE0A32EB12C0E94A9
:100150008E031F910F91FF90EF90DF90CF90BF9093
:10016000AF900895EF92FF920F931F93CF93DF9379
:10017000C6E7D1E0CE010E94D8037C0109E611E078
:10018000CE01B8014DE00E94A604C0E6D1E0CE0148
:10019000B7010E942005CE01B8010E94D205CDB75B
:1001A000DEB7E6E00C940C131F93CF93DF93C6E702
:1001B000D1E0CE010E94D803182FCE010E94D803AF
:1001C000BC01812F0E94E50DDF91CF911F91089511
:1001D0001F9386E791E00E94D803182F86E791E0ED
:1001E00060E171E00E94CB04882341F486E791E04E
:1001F00064E171E00E94CB04882381F0812F60E0EC
:100200000AC086E791E066E171E00E94CB04882392
:1002100071F0812F61E00E94061009C086E791E02D
:1002200068E171E00E94CB04882399F7EACF1F911F
:1002300008951F9386E791E00E94D803182F86E760
:1002400091E06DE171E00E94CB04882341F486E7E0
:1002500091E061E271E00E94CB04882381F0812F5C
:1002600061E00AC086E791E068E271E00E94CB0499
:10027000882371F0812F60E00E94E20F09C086E7B9
:1002800091E06EE271E00E94CB04882399F7EACFF7
:100290001F910895EF92FF921F93CF93DF93E82E63
:1002A000E7017E01F92EE70114E006C086E791E040
:1002B000612F0E9401031F5F49915991411551051A
:1002C000A9F7DF91CF911F91FF90EF900895CF9301
:1002D000DF938AE593E040E052EC61E070E00E9439
:1002E000740BC6E7D1E0CE010E940F03CE016DE88A
:1002F00070E00E94FD0287E391E00E944A012FE036
:1003000088E190E00FB6F894A895809360000FBE46
:1003100020936000DF91CF91089586E791E00E94DD
:100320007304A89508950F931F938C014AE050E041
:100330000E94010DC8011F910F910895A0E0B0E047
:10034000E4EAF1E00C94EE1286E791E00E94D80313
:10035000D82EC92E0E943B107C018AE593E066E00E
:1003600070E00E949301EC0101E311E0B8010E94EA
:10037000600CCE016D2D7C2D0E949301EC01B80123
:100380000E94600CCE01B7010E9493010E946B0C89
:10039000CDB7DEB7E8E00C940A130F931F938C01DE
:1003A00022E030E00E94C10DC8011F910F91089515
:1003B000EF92FF920F931F93CF93DF9388E090E02B
:1003C0009093D1028093D00284E690E00E944E097F
:1003D0006091C6027091C7028091C8029091C902D3
:1003E0002AE030E040E050E00E947C1203C08B0124
:1003F000F82EE92E2091CA022223C9F38AE593E060
:100400006BE070E00E949301EC0161E371E00E94F7
:10041000600CB8018F2D9E2D0E946911AB01BC01AB
:10042000CE010E94CD010E946B0CCDB7DEB7E6E095
:100430000C940C13EF92FF920F931F93CF93DF93C3
:1004400086E791E00E94D8038C018CE591E0B80129
:100450000E946F088AE593E06AE070E00E949301D1
:10046000EC01F1E3EF2EF1E0FF2EB7010E94600CEA
:10047000CE01B8010E949301EC01B7010E94600C0B
:1004800060915C0170915D01882777FD8095982FC0
:100490000E946911AB01BC01CE010E94CD01EC01AB
:1004A000B7010E94600C60915E0170915F01882726
:1004B00077FD8095982F0E946911AB01BC01CE0198
:1004C0000E94CD010E946B0CCDB7DEB7E6E00C9424
:1004D0000C13A0E0B0E0EFE6F2E00C94EE1286E739
:1004E00091E00E94D803D82EC92E0E94C40D7C0131
:1004F0000027F7FC0095102FC3E6D0E08D2D0E9459
:10050000C40DAA2797FDA095BA2FE80EF91E0A1F61
:100510001B1F219799F78AE593E067E070E00E943E
:100520009301EC0161E371E00E94600CCE016D2D3E
:100530007C2D0E949301EC0161E371E00E94600C4C
:10054000C801B7010E94691120E030E048EC52E494
:100550000E94CE10AB01BC01CE010E94CD010E94D1
:100560006B0CCDB7DEB7E8E00C940A1380E691E09F
:100570000E94FD0486E791E06AE573E04091350151
:10058000209136010E94C5020895FC01DC01A055AE
:10059000BF4F6D937C93DC01AC54BF4F1C92DC01C8
:1005A000AB54BF4F1C92DC01AD54BF4F4C93DC01E8
:1005B000AE54BF4F2C9380E481838FE382831082FB
:1005C000DF01A455BF4F1D921C92DF01A255BF4F02
:1005D0001D921C92DF01A555BF4F81E08C931482C0
:1005E0001382DF01159682E390E01D921D92019720
:1005F000E1F7E759FF4F10820895FC01748363838C
:100600000895262F2150223348F4E62FF0E0319749
:10061000EE0FFF1FE80FF91F568345830895FC0175
:10062000EB54FF4F81E080830895A2E0B0E0EBE15E
:10063000F3E00C94F2128C011A821982FC01ED5441
:10064000FF4F80818983F801E655FF4F8081882321
:1006500051F1813031F4C80186599F4F22E0208347
:1006600002C080E090E0F801E555FF4F2081222391
:1006700069F0A80142555F4FBE016F5F7F4F0E9436
:100680005C13F801E455FF4F91838083F801E45532
:10069000FF4F80819181009731F0F801E555FF4FC0
:1006A000108281E001C080E02296E4E00C940E13F9
:1006B000A0E0B0E0EEE5F3E00C94E812EC014B01B1
:1006C0000E948D0E5B016C017B018C01C055DF4FD8
:1006D000C4013C01882477FC8094982C88819981FE
:1006E000DC01ED91FC910480F581E02D09950097E6
:1006F00059F0D601C5018E199F09A00BB10B6816E0
:1007000079068A069B0628F40E948D0E7B018C01D7
:10071000E5CFCDB7DEB7EEE00C940413A0E0B0E077
:10072000E4E9F3E00C94EB128C017A01922EFC01C7
:10073000E759FF4F81E08083E801C055DF4F888192
:1007400099814AE050E00E94010DF801ED54FF4FFD
:100750008881998160810E94630C88819981B701A9
:100760000E94600CF801EE54FF4F888199816081EE
:100770000E94630CF801EB54FF4F8081882321F025
:10078000888199810E946B0C992039F0C801B601CB
:100790000E9458031A141B04CCF3F801E759FF4FC9
:1007A000108280E090E0CDB7DEB7EBE00C94071349
:1007B000CF93DF93EC010E941503882369F0FE01BB
:1007C000E555FF4F81E08083C455DF4F88819981D3
:1007D0000E9421139C0102C020E030E0C901DF919A
:1007E000CF910895CF93DF93EC010E94D803FC01D1
:1007F0003197E233F10548F4EE0FFF1FEC0FFD1FB8
:100800000580F681E02D309711F4EB81FC8109958C
:10081000DF91CF910895CF93DF93EC01DC01A655D2
:10082000BF4F1C92161617060CF04EC0862FFE0105
:10083000EE54FF4F20819881621759F4FE01E90FB1
:10084000F11DE659FF4F1082992371F181E08C93DD
:100850002BC0FE01E90FF11DE659FF4F60839F5F3A
:1008600098832A81921780F01882FE01E455FF4F89
:1008700011821082FE01E255FF4F11821082FE01AB
:10088000E555FF4F91E09083FE01EC54FF4F9081BE
:100890009923D1F0FE01ED54FF4F90818917A1F00B
:1008A0008A3011F08D3081F41882FE01E455FF4F3B
:1008B00011821082FE01E255FF4F11821082FE016B
:1008C000E555FF4F81E08083FE01E655FF4F8081B3
:1008D000813019F4CE010E94F203C655DF4F8881A2
:1008E000DF91CF910895EF92FF920F931F93CF93D3
:1008F000DF93EC0149E6E42EF12CE80EF91E8C01A1
:1009000000551F4FD7018C918823D9F4F8018081BD
:100910009181DC01ED91FC910480F581E02D099538
:10092000009779F0F80180819181DC01ED91FC91D3
:100930000680F781E02D0995BC01CE010E940B04D1
:10094000E1CFCDB7DEB7E6E00C940C13A1E0B0E048
:10095000ECEAF4E00C94F0127C018B0149830E94D4
:1009600015034981882379F0F701E555FF4F81E0B0
:100970008083F701E455FF4F60817181C80150E029
:100980000E94481304C0442311F0F80110822196FC
:10099000E6E00C940C130F931F93CF93DF93EC01BD
:1009A0008B010E941503882379F0FE01E455FF4F67
:1009B00060817181C8010E943F13009731F4C555D1
:1009C000DF4F81E0888302C001C080E0DF91CF91DA
:1009D0001F910F910895FC0160876130710529F422
:1009E0008EE591E09583848308956230710521F44A
:1009F0008AE892E0958384830895FC018FEF9FEF4E
:100A0000918380839383828310922C0210922D0213
:100A100010922E0210922F028EE591E0958384832E
:100A20008AE090E0978386838CE390E090934A017C
:100A300080934901CF0161E070E00E94EB040895CA
:100A4000FC01862F6283738361E00E94E20F0895A8
:100A5000FC0180819181FFEF8F3F9F0791F0109201
:100A60002C0210922D0210922E0210922F02109240
:100A700031021092300265EF77E041E050E00E94D1
:100A80002B0F0895EF92FF920F931F93CF93DF9355
:100A9000EC017B018A018A819B812FEF8F3F9207B6
:100AA00079F1888199813FEF8F3F930731F00E9460
:100AB0004B0F8FEF9FEF998388838A8161E00E94BB
:100AC00006108C819D819C01E29EC001E39E900DE9
:100AD000F29E900D11240E94E60E8A8160E00E9431
:100AE00006108C819D819C01029FC001039F900D87
:100AF000129F900D11240E94E60ECE010E9428053F
:100B0000CDB7DEB7E6E00C940C13FC012085213054
:100B100039F461E070E04FE150E00E944205089531
:100B2000223031F461E070E04AE050E00E9442057A
:100B30000895CF93DF93EC0161E070E043E050E073
:100B40000E944205CE0163E070E041E050E00E9467
:100B50004205DF91CF910895CF93DF93EC0163E0DD
:100B600070E041E050E00E944205CE0163E070E099
:100B700041E050E00E944205DF91CF910895CF936C
:100B8000DF93EC0161E070E043E050E00E94420539
:100B9000CE0161E070E043E050E00E944205DF9149
:100BA000CF910895A0E0B0E0E8EDF5E00C94EE12EE
:100BB000EC01D62EC72E00E010E01BC0813361F09F
:100BC000863431F0803359F4CE010E94BF0507C04E
:100BD000CE010E94990503C0CE010E94AC05F70129
:100BE00081917F01882351F7CE010E9485050F5F17
:100BF0001F4F8E819F810817190724F4C601E92E23
:100C0000FC2CEDCFCDB7DEB7E8E00C940A13ACE0D6
:100C1000B0E0EDE0F6E00C94E4124C018091360275
:100C2000909137026FE170E00E949B121B017B01E3
:100C300000E010E02091490130914A01442737FD3E
:100C40004095542FC801B7010E947C120E94671181
:100C50002AE037ED43E25CE30E9419120E943B1147
:100C60009B01AC01D801C701880F991FAA1FBB1FA8
:100C70008E0D9F1DA01FB11F5C016D01A21AB30A4A
:100C8000C40AD50AA982BA82CB82DC8229013A0140
:100C9000480E591E6A1E7B1E61E070E080E090E005
:100CA000DC0157016801A21AB30AC40AD50AAD8251
:100CB000BE82CF82D88659016A01AE0CBF1CC01E0D
:100CC000D11EA986BA86CB86DC8669C0FB01EE0FF1
:100CD000FF1FEA5CFD4F2081318140E050E0CD8074
:100CE000DE80EF80F884C216D306E406F50600F530
:100CF000E984FA840B851C852E153F0540075107B2
:100D0000B8F4FB01EE0FFF1FE85CFD4FE080F180BF
:100D100000E010E0A980BA80CB80DC80AE14BF0474
:100D2000C006D10628F4E414F5040605170560F1A1
:100D3000C980DA80EB80FC80C216D306E406F50693
:100D400040F5241535054605570518F5FB01EE0F4E
:100D5000FF1FE85CFD4F2081318140E050E0ED80D5
:100D6000FE800F811885E216F3060407150788F444
:100D7000A984BA84CB84DC842A153B054C055D0527
:100D800040F40196A11DB11D880F991FAA1FBB1F1A
:100D900004C0B40180E090E0DC016E5F7F4F681515
:100DA000790508F493CF9C01AD0156954795379589
:100DB000279507E080169104C0F020932C02309311
:100DC0002D0240932E0250932F0296948794909276
:100DD000310280923002309233022092320281E05E
:100DE00090E0909335028093340281E02115310523
:100DF0004105510509F480E02C96E2E10C940013C2
:100E0000ACE0B0E0E6E0F7E00C94E4124C01809135
:100E10003602909137026AE070E00E949B121B013B
:100E20007B0100E010E02091490130914A01442704
:100E300037FD4095542FC801B7010E947C120E94D3
:100E400067112AE037ED43E25CE30E9419120E9429
:100E50003B119B01AC01D801C701880F991FAA1F44
:100E6000BB1F5C016D01A21AB30AC40AD50AA9828C
:100E7000BA82CB82DC8229013A01480E591E6A1ED1
:100E80007B1E61E070E080E090E0DC0157016801CA
:100E9000A21AB30AC40AD50AAD82BE82CF82D8860E
:100EA00059016A01AE0CBF1CC01ED11EA986BA86AC
:100EB000CB86DC8669C0FB01EE0FFF1FEA5CFD4FAD
:100EC0002081318140E050E0CD80DE80EF80F884E9
:100ED000C216D306E406F50600F5E984FA840B850C
:100EE0001C852E153F0540075107B8F4FB01EE0F96
:100EF000FF1FE85CFD4FE080F18000E010E0A9807A
:100F0000BA80CB80DC80AE14BF04C006D10628F4C2
:100F1000E414F5040605170560F1C980DA80EB805A
:100F2000FC80C216D306E406F50640F52415350507
:100F30004605570518F5FB01EE0FFF1FE85CFD4F56
:100F40002081318140E050E0ED80FE800F811885E6
:100F5000E216F3060407150788F4A984BA84CB8443
:100F6000DC842A153B054C055D0540F40196A11D66
:100F7000B11D880F991FAA1FBB1F04C0B40180E0D8
:100F800090E0DC016E5F7F4F6815790508F493CF20
:100F90009C01AD01569547953795279507E080163A
:100FA0009104C0F020932C0230932D0240932E0226
:100FB00050932F029694879490923102809230023F
:100FC000309233022092320282E090E09093350218
:100FD0008093340281E0211531054105510509F462
:100FE00080E02C96E2E10C940013A0E0B0E0EBEF7F
:100FF000F7E00C94EE120E949B0E6B017C01809135
:10100000BE029091BF02E601C81BD90BD093C50266
:10101000C093C40283E1C938D807A8F18091360291
:10102000909137029C01285C30402C173D0738F521
:1010300088539F4FC817D90710F58091BC02909133
:10104000BD0201969093BD028093BC020091C20242
:101050001091C302015010401093C3020093C202CA
:101060008230910561F4C8010E940706882319F4B3
:10107000C8010E9400071092BD021092BC0210929B
:10108000C3021092C2028091C2029091C3028334C3
:10109000910540F01092C3021092C2021092BD025C
:1010A0001092BC028091C2029091C302FC01EE0F2B
:1010B000FF1FEA5CFD4FD183C08301969093C3026A
:1010C0008093C202C092BE02D092BF02E092C002E0
:1010D000F092C102CDB7DEB7E8E00C940A132F926C
:1010E0003F924F925F926F927F929F92AF92BF9288
:1010F000CF92DF92EF92FF920F931F93DF93CF93E4
:1011000000D000D00F92CDB7DEB78C01B62E198279
:101110001A821B821C821D82862F61E00E94E20FD0
:101120008B2D60E00E94061062E170E080E090E0AC
:101130000E94C10E8B2D61E00E94061088E290E0B3
:101140000E94E60E8B2D60E00E94E20F70E1E72E18
:1011500077E2F72E07C0E114F10409F482C0089485
:10116000E108F1088B2D0E943B100097A1F360E18C
:10117000E62E67E2F62E07C0E114F10409F471C00F
:101180000894E108F1088B2D0E943B1081309105F5
:1011900099F358E2C52ED12C992447E0A42E31E0D2
:1011A000632E712C08C0E114F10409F45AC00894AC
:1011B000E108F10804C020E1E22E27E2F22E8B2D97
:1011C0000E943B10009779F30E949B0E1B012C019B
:1011D00090E1E92E97E2F92E07C0E114F10409F439
:1011E00040C00894E108F1088B2D0E943B1081302B
:1011F000910599F30E949B0E621973098409950960
:10120000693271058105910580F0E1E0F0E0EC0FB5
:10121000FD1FE90DF11DC3010A2C02C0880F991FA3
:101220000A94E2F72081282B2083AA2021F49394AA
:1012300087E0A82E01C0AA940894C108D108C1145F
:10124000D10409F0B8CF8981F801808311829B8194
:1012500092831382890F9D81981731F02FEF3FEF12
:1012600005C02EEF3FEF02C020E030E0C9010F9033
:101270000F900F900F900F90CF91DF911F910F91D2
:10128000FF90EF90DF90CF90BF90AF909F907F90B6
:101290006F905F904F903F902F9008950F931F9302
:1012A0008C0180916E008E7F80936E0082E390E0CF
:1012B0000E94E60E1093CF020093CE028091D002DE
:1012C0009091D102009731F481E090E09093D102A7
:1012D0008093D002109280001092810010928500BD
:1012E00010928400809181008160809381008091C0
:1012F000810082608093810080918100846080936E
:1013000081001092B0001092B1008091B100816014
:101310008093B1008091B1008D7F8093B100809166
:10132000B10084608093B1008091B0008E7F809383
:10133000B0008091B00082608093B0008091B000D6
:10134000877F8093B0008CE78093B3001092CA022D
:101350001092CD021092CC0282E083BD1092B200B6
:1013600010928500109284008091700082608093BA
:101370007000809181008760809381001F910F91A0
:1013800008951F920F920FB60F9211242F933F933F
:101390004F935F936F937F938F939F93AF93BF937D
:1013A000EF93FF932091CC023091CD028091CE0239
:1013B0009091CF0228173907A0F18091D002909127
:1013C000D1020E94E60E80918100887F8093810087
:1013D000809170008D7F8093700080916E0081609D
:1013E00080936E0081E08093CA028091CB022091AD
:1013F00084003091850090E0A0E0B0E0DC01992706
:10140000882740E050E0820F931FA41FB51F8093F0
:10141000C6029093C702A093C802B093C90210926B
:10142000CB028091CC029091CD0201969093CD0297
:101430008093CC02B09B07C08091CB028F5F8093DA
:10144000CB0281E086BBFF91EF91BF91AF919F915D
:101450008F917F916F915F914F913F912F910F905D
:101460000FBE0F901F901895CF93DF930E94F00E40
:101470000E946701C4E2DBE00E948D012097E1F346
:101480000E94240BF9CFFC0184859585FC01E05C6A
:10149000FF4F208131818E5B9F4FFC0180819181C4
:1014A000281B390B2F733070C9010895FC01848506
:1014B0009585FC01E05CFF4F40815181FC01EE5BB2
:1014C000FF4F208131814217530741F00190F08195
:1014D000E02DE80FF91F208130E002C02FEF3FEF31
:1014E000C9010895FC0184859585FC01E05CFF4FEE
:1014F00040815181FC01EE5BFF4F20813181421719
:10150000530771F0A081B181A80FB91F2C91808180
:10151000918101968F7390709183808330E002C037
:101520002FEF3FEFC9010895DC011E968D919C912C
:101530001F97FC01E05CFF4F8E5B9F4F4081518104
:10154000DC012D913C91119742175307B9F708958B
:101550001F93FC01162F26853785D901A05CBF4F4C
:101560008D919C91019660E470E00E94AF12D901C8
:10157000AE5BBF4F4D915C91119784179507D1F3E6
:10158000D901A05CBF4F0D90BC91A02DA20FB31F3D
:101590001C93A685B785A05CBF4F11969C938E9334
:1015A000A689B7892C9181E090E0058C02C0880F54
:1015B000991F0A94E2F7282B2C9381E090E01F9169
:1015C0000895FB01E05CFF4F208131812F5F3F4F89
:1015D0002F733070DB01AE5BBF4F4D915C91119763
:1015E0002417350739F0A081B181A60FB71F8C935E
:1015F00031832083089508951F920F920FB60F92A2
:1016000011242F933F934F935F936F937F938F9307
:101610009F93AF93BF93EF93FF938091C60062EDCA
:1016200072E00E94E10AFF91EF91BF91AF919F910B
:101630008F917F916F915F914F913F912F910F907B
:101640000FBE0F901F9018958AE593E00E94430A01
:10165000009711F00E94FB0A08951F920F920FB697
:101660000F9211242F933F935F936F937F938F93E8
:101670009F93AF93BF93EF93FF93209156033091C5
:10168000570380915803909159032817390731F473
:101690008091C1008F7D8093C10016C0E0915803F6
:1016A000F0915903EA5EFC4F20818091580390919C
:1016B0005903019660E470E00E94AF1290935903C1
:1016C000809358032093C600FF91EF91BF91AF9193
:1016D0009F918F917F916F915F913F912F910F908B
:1016E0000FBE0F901F901895A0E0B0E0EAE7FBE076
:1016F0000C94EF12EC017A018B01DD24D39440307D
:1017000081EE580780E0680780E0780749F4DD241F
:10171000EC89FD89108260E874E88EE190E00FC0EA
:10172000EC89FD8981E090E00E8C02C0880F991F42
:101730000A94E2F7808360E079E08DE390E0A8010D
:1017400097010E94C21221503040404050405695AF
:1017500047953795279580E12030380710F0DD2038
:10176000B1F6E889F9893083EA89FB892083EE891B
:10177000FF89408181E090E09C010A8C02C0220F29
:10178000331F0A94E2F7422B4083EE89FF894081A0
:101790009C010B8C02C0220F331F0A94E2F7422BEC
:1017A0004083EE89FF8940819C010C8C02C0220F8E
:1017B000331F0A94E2F7422B4083EE89FF89208190
:1017C0000D8C02C0880F991F0A94E2F7809582233E
:1017D0008083CDB7DEB7E7E00C940B1310925D0366
:1017E00010925C0388EE93E0A0E0B0E080935E038B
:1017F00090935F03A0936003B0936103ECE5F3E083
:1018000080E591E09293829382ED92E095878487C0
:1018100086E193E09787868785EC90E0918B808BBB
:1018200084EC90E0938B828B80EC90E0958B848BA2
:1018300081EC90E0978B868B86EC90E0918F808F87
:1018400084E0828F83E0838F87E0848F85E0858FBB
:1018500081E0868F0895A0E0B0E0E1E3FCE00C9425
:10186000EE126C017B018A01C0E0D0E00FC0D7010D
:101870006D917D01D601ED91FC910190F081E02DFB
:10188000C6010995C80FD91F015010400115110557
:1018900071F7CE01CDB7DEB7E8E00C940A13DB0197
:1018A0000D900020E9F7AD0141505040461B570B09
:1018B000DC01ED91FC910280F381E02D0995089502
:1018C0000E944F0C0895DC01ED91FC910190F08194
:1018D000E02D099508950F931F93CF93DF93EC01AB
:1018E0006DE00E94630C8C01CE016AE00E94630CE3
:1018F000080F191FC801DF91CF911F910F91089513
:10190000A1E2B0E0E6E8FCE00C94EA126C01042FDE
:10191000E52FCB01122F19A2223008F41AE021E2A0
:10192000E22EF12CEC0EFD1E812E9924AA24BB245C
:1019300003C0022FE32FCA01602F7E2FA50194015F
:101940000E94C212129F802D1124081B0894E108E6
:10195000F1080A3014F4005D01C0095CF70100834E
:10196000211531054105510521F7C601B7010E9436
:101970004F0CA196ECE00C9406132115310549F4A7
:10198000DC01ED91FC910190F081E02D642F09952F
:1019900008950E94800C0895A0E0B0E0E2EDFCE024
:1019A0000C94EE12EC017A018B012115310541F402
:1019B000E881F9810190F081E02D642F09951AC02A
:1019C0002A303105A9F477FF12C06DE20E94630C42
:1019D0006C0144275527BA014E195F09600B710B42
:1019E000CE012AE00E94800CC80ED91E04C02AE055
:1019F0000E94800C6C01C601CDB7DEB7E8E00C9404
:101A00000A139A01FB01AF01662757FD6095762FF7
:101A10000E94CC0C08956F927F929F92AF92BF92DA
:101A2000CF92DF92EF92FF920F931F93CF93DF93AA
:101A30003C017A018B01C22ECB01BA0120E030E0DB
:101A4000A9010E94CA1087FF0AC0C3016DE20E946B
:101A5000630CEC0117FB109517F9109502C0C0E05C
:101A6000D0E0DD2450E040E030E02FE311C0DA01A7
:101A7000F9016B2F742F8F2F922F20E030E040E27E
:101A800051E40E94CE10562F472F382F292FD39480
:101A9000DC1468F3C801B701DA01F9012B2F342FE8
:101AA0004F2F5E2F0E9466105B01F82E992E7B2D22
:101AB0000E943B11162FD72EE82E092F0E94671186
:101AC0009B01AC016A2D7B2D8F2D992D0E946510F5
:101AD000962EA72EB82EF92EC301412F5D2D6E2D07
:101AE000702F2AE030E00E94BD0CC80FD91FCC2017
:101AF000B9F1C30163E371E00E944F0CC80FD91F15
:101B00002FC0692D7A2D8B2D9F2D20E030E040E2F3
:101B100051E40E941912D62EB72EA82E992E0E949B
:101B200036117B010027F7FC0095102FC301B80187
:101B3000A7012AE030E00E94CC0CC80FD91FC801D1
:101B4000B7010E9469119B01AC016D2D7B2D8A2D7F
:101B5000992D0E946510962EA72EB82EF92ECA94A4
:101B6000CC2079F6CE01DF91CF911F910F91FF909C
:101B7000EF90DF90CF90BF90AF909F907F906F904D
:101B800008950E940B0D08958E3008F08E508770D6
:101B900090914B019295990F990F907C982B90936F
:101BA0007C0080917A00806480937A0080917A0032
:101BB00086FDFCCF2091780030917900932F80E052
:101BC00030E0282B392BC90108951F93CF93DF9361
:101BD000182FEB0161E00E94E20F209709F44AC040
:101BE000CF3FD10509F449C0E12FF0E0E255FF4FA6
:101BF000E491E330C1F0E43028F4E13051F0E23018
:101C0000B1F50CC0E63019F1E73049F1E43079F56F
:101C100014C084B5806884BDC7BD33C084B58062FC
:101C200084BDC8BD2EC080918000806880938000F4
:101C3000D0938900C093880024C080918000806286
:101C400080938000D0938B00C0938A001AC080914B
:101C5000B00080688093B000C093B30012C0809140
:101C6000B00080628093B000C093B4000AC0C03856
:101C7000D1051CF4812F60E002C0812F61E00E9439
:101C80000610DF91CF911F9108951F920F920FB60A
:101C90000F9211242F933F938F939F93AF93BF93F2
:101CA00080917D0390917E03A0917F03B09180038A
:101CB000309181030196A11DB11D232F2D5F2D377A
:101CC00020F02D570196A11DB11D20938103809313
:101CD0007D0390937E03A0937F03B0938003809154
:101CE000790390917A03A0917B03B0917C030196D4
:101CF000A11DB11D8093790390937A03A0937B0378
:101D0000B0937C03BF91AF919F918F913F912F91A1
:101D10000F900FBE0F901F9018958FB7F8942091D9
:101D20007D0330917E0340917F03509180038FBFEC
:101D3000B901CA0108959FB7F894209179033091B1
:101D40007A0340917B0350917C0386B5A89B06C023
:101D50008F3F21F02F5F3F4F4F4F5F4F9FBF542F5B
:101D6000432F322F2227280F311D411D511D82E0A4
:101D7000220F331F441F551F8A95D1F7B901CA019D
:101D80000895EF92FF920F931F93CF93DF937B0100
:101D90008C010E949B0EEB010FC00E949B0E6C1BDE
:101DA0007D0B83E0683E780738F00894E108F1087D
:101DB00001091109C851DC4FE114F10401051105B5
:101DC00061F7CDB7DEB7E6E00C940C13019739F05C
:101DD000880F991F880F991F02970197F1F70895AF
:101DE000789484B5826084BD84B5816084BD85B5F6
:101DF000826085BD85B5816085BDEEE6F0E08081BD
:101E000081608083E1E8F0E01082808182608083DD
:101E1000808181608083E0E8F0E080818160808360
:101E2000E1EBF0E0808184608083E0EBF0E0808192
:101E300081608083EAE7F0E0808184608083808134
:101E400082608083808181608083808180688083DC
:101E50001092C10008958230E8F4E82FF0E0EE0F10
:101E6000FF1FEE57FC4F71836083813041F08091FA
:101E700069008C7F842B80936900E89A0895809193
:101E80006900440F551F440F551F837F842B809397
:101E90006900E99A0895823068F4813011F0E89879
:101EA00001C0E998E82FF0E0EE0FFF1FEE57FC4F5E
:101EB0001182108208951F920F920FB60F92112473
:101EC0002F933F934F935F936F937F938F939F9342
:101ED000AF93BF93EF93FF9380918203909183031D
:101EE000009729F0E0918203F09183030995FF9117
:101EF000EF91BF91AF919F918F917F916F915F9182
:101F00004F913F912F910F900FBE0F901F901895FA
:101F10001F920F920FB60F9211242F933F934F935E
:101F20005F936F937F938F939F93AF93BF93EF9341
:101F3000FF938091840390918503009729F0E091AD
:101F40008403F09185030995FF91EF91BF91AF91C3
:101F50009F918F917F916F915F914F913F912F91C1
:101F60000F900FBE0F901F901895833071F0843042
:101F700028F48130A1F0823021F514C08630B1F010
:101F80008730D1F08430E9F404C0809180008F77ED
:101F900003C0809180008F7D80938000089584B578
:101FA0008F7702C084B58F7D84BD08958091B00085
:101FB0008F778093B00008958091B0008F7D8093DB
:101FC000B000089590E0FC01E656FF4F2491FC011B
:101FD000EA57FF4FE491EE23C1F0F0E0EE0FFF1F50
:101FE000E859FF4F85919491DC01662341F49FB736
:101FF000F8948C91209582238C939FBF08959FB76E
:10200000F8948C91822B8C939FBF0895A1E0B0E04F
:10201000ECE0F0E10C94F212282F30E0F901E255E7
:10202000FF4F8491F901E656FF4F14912A573F4F15
:10203000F90104910023D9F0882321F069830E94DB
:10204000B50F6981E02FF0E0EE0FFF1FEE58FF4F54
:1020500085919491DC019FB7F894662321F48C91CB
:102060001095812302C08C91812B8C939FBF219668
:10207000E4E00C940E130F931F93282F30E0F90126
:10208000E255FF4F8491F901E656FF4F04912A571C
:102090003F4FF9011491112391F0882311F00E9410
:1020A000B50FE12FF0E0EE0FFF1FE458FF4F8591D1
:1020B0009491DC018C91802321E030E011F420E048
:1020C00030E0C9011F910F9108955058BB27AA27EE
:1020D0000ED075C166D130F06BD120F031F49F3F46
:1020E00011F41EF45BC10EF4E095E7FB51C1E92F3A
:1020F00077D180F3BA17620773078407950718F042
:1021000071F49EF58FC10EF4E0950B2EBA2FA02D21
:102110000B01B90190010C01CA01A0011124FF2794
:10212000591B99F0593F50F4503E68F11A16F0408F
:10213000A22F232F342F4427585FF3CF469537958E
:102140002795A795F0405395C9F77EF41F16BA0B53
:10215000620B730B840BBAF09150A1F0FF0FBB1F01
:10216000661F771F881FC2F70EC0BA0F621F731F4A
:10217000841F48F4879577956795B795F7959E3FA7
:1021800008F0B3CF9395880F08F09927EE0F979535
:1021900087950895D9D008F481E008950CD00FC137
:1021A00007D140F0FED030F021F45F3F19F0F0C0CD
:1021B000511139C1F3C014D198F39923C9F35523B0
:1021C000B1F3951B550BBB27AA276217730784072A
:1021D00038F09F5F5F4F220F331F441FAA1FA9F3E0
:1021E00033D00E2E3AF0E0E830D091505040E695D2
:1021F000001CCAF729D0FE2F27D0660F771F881F33
:10220000BB1F261737074807AB07B0E809F0BB0B21
:10221000802DBF01FF2793585F4F2AF09E3F510545
:1022200068F0B6C000C15F3FECF3983EDCF38695E2
:1022300077956795B795F7959F5FC9F7880F911DBB
:102240009695879597F90895E1E0660F771F881FA7
:10225000BB1F621773078407BA0720F0621B730B5A
:10226000840BBA0BEE1F88F7E095089504D06894AC
:10227000B111D9C00895BCD088F09F5790F0B92F04
:102280009927B751A0F0D1F0660F771F881F991FCB
:102290001AF0BA95C9F712C0B13081F0C3D0B1E0DD
:1022A0000895C0C0672F782F8827B85F39F0B93FED
:1022B000CCF3869577956795B395D9F73EF49095CD
:1022C0008095709561957F4F8F4F9F4F0895E8944B
:1022D00009C097FB3EF490958095709561957F4F6E
:1022E0008F4F9F4F9923A9F0F92F96E9BB2793951C
:1022F000F695879577956795B795F111F8CFFAF42C
:10230000BB0F11F460FF1BC06F5F7F4F8F4F9F4F5C
:1023100016C0882311F096E911C0772321F09EE8BA
:10232000872F762F05C0662371F096E8862F70E020
:1023300060E02AF09A95660F771F881FDAF7880FFA
:102340009695879597F90895990F0008550FAA0B50
:10235000E0E8FEEF16161706E807F907C0F01216B8
:102360001306E407F50798F0621B730B840B950BBB
:1023700039F40A2661F0232B242B252B21F4089510
:102380000A2609F4A140A6958FEF811D811D0895AD
:1023900097F99F6780E870E060E008959FEF80EC18
:1023A000089500240A9416161706180609060895BB
:1023B00000240A9412161306140605060895092E21
:1023C0000394000C11F4882352F0BB0F40F4BF2B90
:1023D00011F460FF04C06F5F7F4F8F4F9F4F0895D0
:1023E00057FD9058440F551F59F05F3F71F04795C6
:1023F000880F97FB991F61F09F3F79F087950895AB
:10240000121613061406551FF2CF4695F1DF08C0C9
:10241000161617061806991FF1CF869571056105E6
:1024200008940895E894BB2766277727CB0197F98E
:1024300008950BD0C4CFB5DF28F0BADF18F095238C
:1024400009F0A6CFABCF1124EECFCADFA0F3959F42
:10245000D1F3950F50E0551F629FF001729FBB278B
:10246000F00DB11D639FAA27F00DB11DAA1F649F37
:102470006627B00DA11D661F829F2227B00DA11DEA
:10248000621F739FB00DA11D621F839FA00D611D70
:10249000221F749F3327A00D611D231F849F600D91
:1024A000211D822F762F6A2F11249F5750408AF0CA
:1024B000E1F088234AF0EE0FFF1FBB1F661F771F56
:1024C000881F91505040A9F79E3F510570F060CF92
:1024D000AACF5F3FECF3983EDCF38695779567953E
:1024E000B795F795E7959F5FC1F7FE2B880F911D74
:1024F0009695879597F90895629FD001739FF00193
:10250000829FE00DF11D649FE00DF11D929FF00D83
:10251000839FF00D749FF00D659FF00D9927729FBA
:10252000B00DE11DF91F639FB00DE11DF91FBD0145
:10253000CF0111240895AA1BBB1B51E107C0AA1F9C
:10254000BB1FA617B70710F0A61BB70B881F991F54
:102550005A95A9F780959095BC01CD01089597FBF8
:10256000092E07260AD077FD04D0E5DF06D000202B
:102570001AF4709561957F4F0895F6F790958195BF
:102580009F4F0895A1E21A2EAA1BBB1BFD010DC08F
:10259000AA1FBB1FEE1FFF1FA217B307E407F50713
:1025A00020F0A21BB30BE40BF50B661F771F881FEF
:1025B000991F1A9469F760957095809590959B0185
:1025C000AC01BD01CF0108952F923F924F925F92CF
:1025D0006F927F928F929F92AF92BF92CF92DF9233
:1025E000EF92FF920F931F93CF93DF93CDB7DEB798
:1025F000CA1BDB0B0FB6F894DEBF0FBECDBF09942C
:102600002A88398848885F846E847D848C849B8482
:10261000AA84B984C884DF80EE80FD800C811B8190
:10262000AA81B981CE0FD11D0FB6F894DEBF0FBEBF
:10263000CDBFED010895EE0FFF1F0590F491E02D41
:102640000994FC0188279927E89421912032E9F325
:10265000293010F02E30C8F32B3241F02D3239F4EE
:10266000689404C00E948313820F911D219120530E
:102670002A30C0F31EF4909581959F4F0895FB0179
:10268000DC018D91019080190110D9F3990B089507
:10269000DC01FB014150504058F049F001900D928F
:1026A0000020C1F7E61BF70B3197CF0108951C926C
:1026B00001900020E9F7F6CFFA01A191B0810097CF
:1026C00019F41097E1F0CD01DC01CD010D9000204F
:1026D00011F4C00113C0FB012191222319F0201530
:1026E000D9F7F3CFFB012191201519F41E92119611
:1026F00006C02223C1F70D900020A1F7D001FA01F6
:10270000A193B08308957AE0979F902D879F802DA5
:0A271000910D11240895F894FFCFF5
:10271A00556E6B6E6F776E20636F6D6D616E6400C0
:10272A006C6F77003000310068696768006F7574F4
:10273A00006F757470757400696E70757400696ED7
:10274A000020002E00203B1901E8009E016902D4F6
:10275A0000B2001A02D80100003C0001000000008B
:0C276A00A80A2B0C430A720A560A940AB3
:00000001FF
