:100000000C9463000C94210A0C944E0A0C948B00FF
:100010000C948B000C948B000C948B000C948B0034
:100020000C948B000C948B000C948B000C948B0024
:100030000C948B000C948B000C948B000C948B0014
:100040000C947B0A0C948B000C94540B0C948B0036
:100050000C948B000C948B000C948B000C948B00F4
:100060000C948B000C948B000000000024002700EF
:100070002A0000000000250028002B0000000000DE
:1000800023002600290004040404040404040202DA
:100090000202020203030303030301020408102007
:1000A0004080010204081020010204081020000012
:1000B0000007000201000003040600000000000029
:1000C0000000C804500C11241FBECFEFD8E0DEBFE3
:1000D000CDBF11E0A0E0B1E0EAE6F8E202C0059091
:1000E0000D92A83DB107D9F713E0A8EDB1E001C02A
:1000F0001D92A237B107E1F710E0C6ECD0E004C0D2
:100100002297FE010E94A011C23CD107C9F70E94AC
:100110002E0D0C9433140C940000FC018FEF9FEF14
:1001200091838083938382838EE591E0958384839A
:100130008AE090E09783868308952F923F924F92B2
:100140005F926F927F928F929F92AF92BF92CF9267
:10015000DF92EF92FF920F931F93DF93CF93CDB770
:10016000DEB766970FB6F894DEBF0FBECDBF0E9414
:10017000C30A6D877E878F87988B8091DC01909171
:10018000DD012D853E85281B390B309369022093B4
:10019000680243E12938340708F412C14091E001B4
:1001A0005091E101CA01885C90408217930708F0E2
:1001B00003C1CA0188539F4F2817390708F0FCC0B4
:1001C0008091DA019091DB0101969093DB0180939D
:1001D000DA01A0916602B09167021197BE8BAD8BD8
:1001E000B0936702A0936602029709F0E5C0CA01C6
:1001F0006FE170E00E944D112B015B01CC24DD24E6
:10020000C601B5010E9419102AE939E949E95EE3FE
:100210000E94CB100E94ED0F7B018C01D601C5011D
:10022000880F991FAA1FBB1F8A0D9B1DAC1DBD1DEA
:100230009C01AD012E193F09400B510B29873A87CC
:100240004B875C87A8019701280F391F4A1F5B1F46
:100250002D833E834F835887C801B701A6019501BE
:100260000E942E1169837A838B839C836624772472
:10027000430161E070E092E0292E312CD601C501E6
:100280008E199F09A00BB10B898B9A8BAB8BBC8B02
:10029000EA0CFB1C0C1D1D1D6FC0FB01EE0FFF1FA8
:1002A000E052FE4F808191819C0140E050E0A9889E
:1002B000BA88CB88DC88A216B306C406D50600F53A
:1002C0002E153F0540075107D8F4FB01EE0FFF1F25
:1002D000EE51FE4F80819181A0E0B0E0A984BA8404
:1002E000CB84DC84A816B906CA06DB0648F4AD80C8
:1002F000BE80CF80D8848A159B05AC05BD0570F102
:1003000089859A85AB85BC8582179307A407B507B5
:1003100050F5A980BA80CB80DC802A153B054C05BE
:100320005D0508F5FB01EE0FFF1FEE51FE4F8081CA
:100330009181A0E0B0E029893A894B895C8928172E
:1003400039074A075B0778F48E159F05A007B107A8
:1003500050F40894611C711C811C911C660C771C64
:10036000881C991C07C06D897E8966247724430107
:10037000222433246E5F7F4F4D895E896417750791
:1003800008F48BCF3092DB012092DA0196948794A7
:1003900077946794569547955E8B4D8BE091D80185
:1003A000F091D901C401B301920100EE11E0099569
:1003B0001092DB011092DA0110926702109266022D
:1003C00080916602909167028334910540F010920B
:1003D0006702109266021092DB011092DA0180919E
:1003E000660290916702FC01EE0FFF1FE052FE4F84
:1003F00020916802309169023183208301969093A5
:100400006702809366028D859E85AF85B88980934B
:10041000DC019093DD01A093DE01B093DF016696CD
:100420000FB6F894DEBF0FBECDBFCF91DF911F9105
:100430000F91FF90EF90DF90CF90BF90AF909F9083
:100440008F907F906F905F904F903F902F90089586
:100450000F931F938C01FC0180810E940E0A8FEF85
:100460009FEFF801918380831F910F9108950F935F
:100470001F93FC01862F8A01608371836DE970E010
:1004800041E050E00E94EB091093D9010093D8019C
:100490001F910F910895CF92DF92EF92FF920F93E9
:1004A0001F93CF93DF93EC017B016A018A819B81CB
:1004B0008F5F9F4FA9F1088119813FEF0F3F13070D
:1004C00019F0CE010E9428028A8161E00E9404098D
:1004D0008C819D819C01E29EC001E39E900DF29E65
:1004E000900D11240E940F0B8A8160E00E94040984
:1004F0008C819D819C01C29EC001C39E900DD29EA5
:10050000900D11240E940F0B3FEF0F3F130741F096
:100510004091D8015091D901CE01B8010E94370213
:10052000DF91CF911F910F91FF90EF90DF90CF90CF
:10053000089561E070E04FE150E00E944B020895A1
:100540000F931F938C0161E070E043E050E00E9444
:100550004B02C80163E070E041E050E00E944B02B2
:100560001F910F9108950F931F938C0163E070E02A
:1005700041E050E00E944B02C80163E070E041E0BE
:1005800050E00E944B021F910F9108950F931F930B
:100590008C0161E070E043E050E00E944B02C80132
:1005A00061E070E043E050E00E944B021F910F9128
:1005B0000895CF92DF92EF92FF920F931F93CF9304
:1005C000DF938C016B01EE24FF2424C0C601BE0121
:1005D0000E948A0CFC01E081E13361F0E63431F0E5
:1005E000E03359F4C8010E94C60207C0C8010E9446
:1005F000A00203C0C8010E94B3022196F6018481C3
:100600009581C817D90710F3C8010E949902089470
:10061000E11CF11CF80186819781E816F9061CF4AB
:10062000C0E0D0E0EBCFDF91CF911F910F91FF9011
:10063000EF90DF90CF9008950F931F93182F092FFD
:10064000CB01BA010E949F0CBC01812F902F0E9408
:10065000EB0C812F902F1F910F9108950F931F93F3
:100660008C01FC01808191810E945112F80113825A
:100670001282158214821F910F9108953F924F921A
:100680005F926F927F928F929F92AF92BF92CF9222
:10069000DF92EF92FF920F931F93DF93CF93CDB72B
:1006A000DEB7C854D0400FB6F894DEBF0FBECDBF42
:1006B000582E492E3A016901302E8E010B5D1F4FD5
:1006C000C80160E071E00E94060DCE018B9666E0E5
:1006D00071E00E94060DCE01C1966CE071E00E94AF
:1006E000060DCE01C79662E171E00E94060DCE01B3
:1006F000CD9668E171E00E94060DC8014E966EE14C
:1007000071E00E94060DF30184819581059741F403
:100710001C141D042CF4F6E0CF16D1040CF47DC09B
:10072000852D942D64E271E00E94060D67C0C3011F
:10073000B7010E948A0CFC018081803359F4C80102
:1007400065E271E00E94060DC401B8010E949F0C91
:10075000C8010AC0C50167E271E00E94060DC4012C
:10076000B5010E949F0CC5010E942E030894E11C54
:10077000F11C85E0E816F104D1F68E010D5E1F4FE5
:10078000C801BE016F5F7F4F0E94EB0CAE014B5D55
:100790005F4FC601880F991F8C0D9D1D880F991FF3
:1007A000480F591FCE014996B8010E941C03E1E091
:1007B0003E1619F069E271E002C06CE271E08E0150
:1007C000015E1F4FC8010E94060D49E1E42EF12C85
:1007D000EC0EFD1E852D942DB701A8010E941C036F
:1007E000C8010E942E03C7010E942E03CE0143962A
:1007F0000E942E03CE0101960E942E03CE01859603
:100800008C010C5D1F4F7C0106501040C8010E94F6
:100810002E030E151F05C1F714C08E010F5F1F4F69
:10082000C80164E271E00E94060DEE24FF24480135
:100830003DE0A32EB12CAC0EBD1E8E01095F1F4FF3
:1008400076CF852D942DC85BDF4F0FB6F894DEBFB1
:100850000FBECDBFCF91DF911F910F91FF90EF9011
:10086000DF90CF90BF90AF909F908F907F906F90D0
:100870005F904F903F900895AF92BF92CF92DF92DA
:10088000EF92FF920F931F93DF93CF93CDB7DEB715
:100890002C970FB6F894DEBF0FBECDBF5C018A0166
:1008A0006E010894C11CD11CC6010E94EB0C47E0EC
:1008B000E42EF12CEC0EFD1EC701B501A601980136
:1008C00000E00E943E03C501B7010E94D902C701A2
:1008D0000E942E03C6010E942E032C960FB6F89498
:1008E000DEBF0FBECDBFCF91DF911F910F91FF9063
:1008F000EF90DF90CF90BF90AF900895AF92BF92EE
:10090000CF92DF92EF92FF920F931F93DF93CF93DB
:10091000CDB7DEB72C970FB6F894DEBF0FBECDBFB4
:100920005C018A016E010894C11CD11CC6010E94A1
:10093000EB0C57E0E52EF12CEC0EFD1EC701B501C6
:10094000A601980101E00E943E03C501B7010E9483
:10095000D902C7010E942E03C6010E942E032C96C5
:100960000FB6F894DEBF0FBECDBFCF91DF911F91C0
:100970000F91FF90EF90DF90CF90BF90AF900895D0
:10098000FC01862F6283738361E00E94B1080895A1
:100990008EE692E00E948D008CE792E00E94EA07CA
:1009A0000895CF92DF92EF92FF920F931F93CF9310
:1009B000DF93D82EC92E0E9469097C010027F7FC1D
:1009C0000095102FC1E0D0E08D2D0E946909AA2763
:1009D00097FDA095BA2FE80EF91E0A1F1B1F21963E
:1009E000C436D10589F78AE593E06BE471E00E9493
:1009F0006C0D8AE593E06D2D7C2D4AE050E00E945D
:100A0000530E8AE593E060E571E00E946C0DC80129
:100A1000B7010E941B1020E030E048EC52E40E9435
:100A2000800FAB01BC018AE593E022E030E00E9438
:100A30000C0FDF91CF911F910F91FF90EF90DF90FE
:100A4000CF900895EF92FF920F931F937C018AE657
:100A500092E0B7010E9407070AE513E0C80162E5CA
:100A600071E00E946C0DC801B7014AE050E00E949D
:100A7000530E80E5E82E81E0F82EC801B7010E94F0
:100A80006C0D60916A0270916B02882777FD8095EA
:100A9000982F0E941B10AB01BC01C80122E030E07E
:100AA0000E94090FC801B7010E946C0D60916C0291
:100AB00070916D02882777FD8095982F0E941B10FA
:100AC000AB01BC01C80122E030E00E940C0F1F9175
:100AD0000F91FF90EF90089509C08AE593E00E947E
:100AE0000D0CBC018CE792E00E94F2078AE593E0CE
:100AF0000E94E20B892B89F708958AE593E040E094
:100B000052EC61E070E00E94850B8CE792E06CE8AB
:100B100075E00E94EE070895EF92FF920F931F93E6
:100B2000DF93CF93CDB7DEB72C970FB6F894DEBF27
:100B30000FBECDBF2FC18CE792E069E571E00E9446
:100B40006108882309F465C08CE792E00E949C0844
:100B50007C018CE792E06DE571E00E9461088823DA
:100B600049F48CE792E061E671E00E946108882315
:100B700009F418C18E2D61E00BC08CE792E068E6A5
:100B800071E00E946108882309F416C18E2D60E08F
:100B90000E94B1082FC18CE792E06EE671E00E94DE
:100BA0006108882309F412C18E2D53C08CE792E0AE
:100BB00060E771E00E946108882309F411C18E2D5D
:100BC00061E00E94040916C18E2D0E9439098C0132
:100BD0008AE593E062E771E00E946C0D8AE593E09C
:100BE000B7014AE050E00E94530E8AE593E060E5C9
:100BF00071E00E946C0D8AE593E0B8014AE050E094
:100C00000E94530E8AE593E067E771E00E946C0D45
:100C1000F1C08CE792E069E771E00E9461088823E7
:100C200039F08CE792E00E949C080E94D104E2C057
:100C30008CE792E06DE771E00E9461088823A9F0DB
:100C40008CE792E061E871E00E946108882319F066
:100C50008DE060E0B6CF8CE792E065E871E00E943D
:100C60006108882311F08DE0ABCF8CE792E068E853
:100C700071E00E946108882371F08CE792E00E9485
:100C80009C08182F8CE792E00E949C08BC01812FE1
:100C90000E948B09AFC08CE792E06CE871E00E9483
:100CA0006108882399F18CE792E00E949C088C01EE
:100CB0008CE792E066E772E046E00E947C088CE7F1
:100CC00092E00E949C087C018EE692E0B8010E94AE
:100CD000C0048E010F5F1F4FC80166E772E00E94DB
:100CE000060D8EE692E0B801A7010E947E0489817C
:100CF0009A810E9451121C821B821E821D8268EE04
:100D000073E080E090E00E94E90A74C08CE792E012
:100D100067E971E00E946108882349F18CE792E05D
:100D20000E949C088C018CE792E066E772E046E046
:100D30000E947C088CE792E00E949C087C018EE671
:100D400092E0B8010E94C0048E01095F1F4FC801E4
:100D500066E772E00E94060D8EE692E0B801A701F8
:100D60000E943C048F8198850E94511243C08CE7F9
:100D700092E063EA71E00E946108882339F08CE711
:100D800092E00E949C080E94220534C08CE792E009
:100D90000E949C088CE792E00E945E08882309F07C
:100DA000CACE28C08CE792E069EA71E00E9461082F
:100DB000882309F0EBCEE1CE8CE792E06CEA71E09B
:100DC0000E946108882309F0EFCEE5CE8CE792E01F
:100DD00060EB71E00E946108882309F0F0CEE6CE56
:100DE0008CE792E065EB71E00E946108882309F4CA
:100DF00010CFEACE2C960FB6F894DEBF0FBECDBF53
:100E0000CF91DF911F910F91FF90EF9008952F9256
:100E10003F925F926F927F928F929F92AF92BF921A
:100E2000CF92DF92EF92FF920F931F93DF93CF93B6
:100E300000D000D00F92CDB7DEB73C01962E1982BC
:100E40001A821B821C821D82862F61E00E94B108DB
:100E5000892D60E00E94040962E170E080E090E08A
:100E60000E94E90A892D61E00E94040988E290E06D
:100E70000E940F0B892D60E00E94B10800E117E28B
:100E800005C001151105A1F101501040892D0E94E6
:100E90003909892BB1F300E117E205C001151105ED
:100EA00039F101501040892D0E9439090197B1F3A1
:100EB00006C001151105E1F0015010400AC027E0FD
:100EC000822E5524AA24BB2491E0292E312C00E146
:100ED00017E2892D0E943909892B59F30E94C30A10
:100EE0006B017C0100E117E208C00115110519F43E
:100EF0002EEF3FEF41C001501040892D0E9439096B
:100F0000019799F30E94C30A6C197D098E099F0904
:100F1000693271058105910580F0E1E0F0E0EC0FA8
:100F2000FD1FE50DF11D9101082C02C0220F331F9A
:100F30000A94E2F78081822B8083882021F45394E5
:100F400087E0882E01C08A940894A11CB11C88E215
:100F5000A816B10409F0BBCF8981F3018083118207
:100F60009B8192831382980F8D81891719F420E059
:100F700030E002C02FEF3FEFC9010F900F900F90AC
:100F80000F900F90CF91DF911F910F91FF90EF90F5
:100F9000DF90CF90BF90AF909F908F907F906F9099
:100FA0005F903F902F900895FC0112821182678319
:100FB0001086E55BFF4F80E481938FE38083EC54E0
:100FC000F04012861082148213821682158281E00C
:100FD0008187089560E20E94D4070895FC0172831E
:100FE00061830895CF93DF93EC01188216161706DC
:100FF00084F56A30710569F16D30710521F0611574
:10100000710539F110C08A85FE01E80FF11D1386C4
:101010001A861E821D8281E089878883CE010B9605
:101020009C838B8316C08A85FE01E80FF11D6387C0
:101030008F5F8A87C45BDF4F9881CC54D04089177B
:1010400040F01A8618821C821B821E821D8281E05B
:1010500089878881813029F4E981FA81309709F004
:1010600009958881DF91CF910895CF93DF93EC01AB
:1010700088818823F9F0813019F020E030E005C044
:101080009E01255F3F4F82E088838985882359F040
:10109000BE01695F7F4FAE014B5F5F4FC9010E9488
:1010A000CD139C838B838B819C81892B19F01986AE
:1010B00081E001C080E0DF91CF9108950E94350862
:1010C00008950F931F93CF93DF93EC018B010E9440
:1010D0003508882351F06B817C81C8010E94A913D7
:1010E000009721F481E0898702C001C080E0DF9190
:1010F000CF911F910F910895FF920F931F93CF935C
:10110000DF93EC018B01F42E0E943508882351F007
:1011100081E089876B817C81C8014F2D50E00E945E
:10112000B91304C0FF2011F0F8011082DF91CF91B4
:101130001F910F91FF900895CF93DF93EC010E94D0
:101140003508882319F420E030E007C081E0898762
:101150008B819C810E9477139C01C901DF91CF9103
:101160000895482F50E0CA0186569F4FFC012491F4
:101170004A575F4FFA0184918823C1F0E82FF0E0CD
:10118000EE0FFF1FE859FF4FA591B491662341F47C
:101190009FB7F8948C91209582238C939FBF0895DC
:1011A0009FB7F8948C91822B8C939FBF08958330C6
:1011B00071F0843028F48130A1F0823021F514C020
:1011C0008630B1F08730D1F08430E9F404C08091EA
:1011D00080008F7703C0809180008F7D8093800096
:1011E000089584B58F7702C084B58F7D84BD08953E
:1011F0008091B0008F778093B00008958091B00007
:101200008F7D8093B0000895FF920F931F93F62E69
:10121000482F50E0CA0182559F4FFC012491CA011A
:1012200086569F4FFC0114914A575F4FFA01049173
:101230000023D9F0222319F0822F0E94D708E02F33
:10124000F0E0EE0FFF1FEE58FF4FA591B491FF2085
:1012500031F49FB7F8948C911095812304C09FB707
:10126000F8948C91812B8C939FBF1F910F91FF90CD
:1012700008950F931F93482F50E0CA0182559F4F46
:10128000FC012491CA0186569F4FFC0104914A57E4
:101290005F4FFA011491112319F420E030E015C0DA
:1012A000222319F0822F0E94D708812F90E0880F07
:1012B000991F84589F4FFC01A591B4918C9120E017
:1012C00030E0802311F021E030E0C9011F910F913F
:1012D0000895982F8E3008F09E5097708091C40129
:1012E0008295880F880F807C892B80937C00809169
:1012F0007A00806480937A0080917A0086FDFCCF2A
:101300002091780040917900942F80E030E0282BE4
:10131000392BC90108951F93CF93DF93182FEB0149
:1013200061E00E94B108209709F44AC0CF3FD1057F
:1013300009F449C0E12FF0E0E255FF4F849183307A
:10134000C1F0843028F4813051F08230B1F50CC006
:10135000863019F1873049F1843079F514C084B5AD
:10136000806884BDC7BD33C084B5806284BDC8BDFC
:101370002EC080918000806880938000D093890087
:10138000C093880024C08091800080628093800098
:10139000D0938B00C0938A001AC08091B0008068FF
:1013A0008093B000C093B30012C08091B0008062FF
:1013B0008093B000C093B4000AC0C038D1051CF4BB
:1013C000812F60E002C0812F61E00E940409DF915B
:1013D000CF911F910895823000F5E82FF0E0EE0FD5
:1013E000FF1FE753FD4F71836083882319F081301D
:1013F000A1F408C0809169008C7F842B80936900E0
:10140000E89A089580916900440F551F440F551FB5
:10141000837F842B80936900E99A0895823080F459
:10142000882319F0813021F402C0E89801C0E998BE
:10143000E82FF0E0EE0FFF1FE753FD4F11821082FF
:1014400008951F920F920FB60F9211242F933F937E
:101450004F935F936F937F938F939F93AF93BF93BC
:10146000EF93FF938091C9029091CA02892B29F0D2
:10147000E091C902F091CA020995FF91EF91BF91E5
:10148000AF919F918F917F916F915F914F913F911C
:101490002F910F900FBE0F901F9018951F920F92D3
:1014A0000FB60F9211242F933F934F935F936F9337
:1014B0007F938F939F93AF93BF93EF93FF9380910D
:1014C000CB029091CC02892B29F0E091CB02F091D4
:1014D000CC020995FF91EF91BF91AF919F918F91B0
:1014E0007F916F915F914F913F912F910F900FBE20
:1014F0000F901F9018951F920F920FB60F92112404
:101500002F933F938F939F93AF93BF938091D1027B
:101510009091D202A091D302B091D4023091D50221
:101520000196A11DB11D232F2D5F2D3720F02D57C2
:101530000196A11DB11D2093D5028093D1029093F5
:10154000D202A093D302B093D4028091CD029091A5
:10155000CE02A091CF02B091D0020196A11DB11D83
:101560008093CD029093CE02A093CF02B093D0028D
:10157000BF91AF919F918F913F912F910F900FBE8F
:101580000F901F9018959FB7F8942091CD0230913D
:10159000CE024091CF025091D00286B5A89B06C0E2
:1015A0008F3F21F02F5F3F4F4F4F5F4F9FBF542F13
:1015B000432F322F2227280F311D411D511D82E05C
:1015C000220F331F441F551F8A95D1F7B901CA0155
:1015D0000895EF92FF920F931F93CF93DF937B01B8
:1015E0008C010E94C30AEB010EC00E94C30A6C1B4F
:1015F0007D0B685E7340C8F30894E108F1080109A7
:101600001109C851DC4FE114F1040105110569F716
:10161000DF91CF911F910F91FF90EF900895019767
:1016200039F0880F991F880F991F02970197F1F7DA
:101630000895789484B5826084BD84B5816084BD4A
:1016400085B5826085BD85B5816085BDEEE6F0E03B
:10165000808181608083E1E8F0E010828081826097
:101660008083808181608083E0E8F0E08081816018
:101670008083E1EBF0E0808184608083E0EBF0E048
:10168000808181608083EAE7F0E0808184608083EC
:101690008081826080838081816080838081806896
:1016A00080831092C10008951F920F920FB60F927F
:1016B00011242F933F934F938F939F93EF93FF9317
:1016C0004091C600E0915603F091570331969F0177
:1016D0002F773070319780915803909159032817D4
:1016E000390739F0EA52FD4F408330935703209376
:1016F0005603FF91EF919F918F914F913F912F91C1
:101700000F900FBE0F901F901895CF93DF93EC01B1
:101710009A01AB01E885F985203081EE380780E039
:10172000480780E0580709F449C081E090E00A8842
:1017300002C0880F991F0A94E2F7808360E079E085
:101740008DE390E00E948311215030404040504092
:10175000CA01B90122E030E040E050E00E9483116C
:10176000EC81FD813083EE81FF812083EA85FB855A
:10177000208141E050E0CA010E8402C0880F991F09
:101780000A94E2F7282B2083EA85FB852081CA0191
:101790000F8402C0880F991F0A94E2F7282B208338
:1017A000EA85FB858081088802C0440F551F0A9492
:1017B000E2F7842B8083DF91CF910895108220E19E
:1017C00030E0CECFDC011296ED91FC911397E058FA
:1017D000FF4F2191319180819181281B390B2F7707
:1017E0003070C9010895DC011296ED91FC911397B8
:1017F000EE57FF4F2081318192918291E058F04065
:101800008217930719F42FEF3FEF05C0E20FF31F84
:101810008081282F30E0C9010895DC011296ED91F6
:10182000FC911397DF01AE57BF4F2D913C9111975B
:10183000E058FF4F80819181E058F0408217930774
:1018400019F42FEF3FEF0BC0E20FF31F80812F5FE2
:101850003F4F2F7730702D933C93282F30E0C901F4
:101860000895DC011296ED91FC911397EE57FF4F0E
:1018700080819181929382930895FC01A085B18526
:1018800021898C9190E0022E02C0959587950A944B
:10189000E2F780FFF6CF0484F585E02D608308959C
:1018A00089EC91E090935B0380935A0386ED92E07C
:1018B00090935D0380935C0385EC90E090935F03CD
:1018C00080935E0384EC90E09093610380936003C7
:1018D00080EC90E0909363038093620381EC90E04E
:1018E000909365038093640386EC90E09093670384
:1018F0008093660384E08093680383E080936903A8
:1019000087E080936A0385E080936B0381E0809396
:101910006C030895FC019B01848195816817790708
:1019200028F4608171816115710529F410926D03AD
:101930006DE673E002C0620F731FCB0108950F9331
:101940001F93CF93DF93EC018B01FB0164817581C1
:101950008C819D81680F791F7D836C838A819B8137
:1019600086179707B8F46F5F7F4F888199810E942F
:10197000A9124C815D81009729F0998388835B834C
:101980004A8308C0F80184819581481B590B5D8307
:101990004C8307C0F80160817181888199810E9420
:1019A0009E13CE01DF91CF911F910F910895CF9398
:1019B000DF93EC01CB017B836A8301960E94A41123
:1019C00099838883009721F41B821A821D821C82CE
:1019D000DF91CF9108950F931F93CF93DF938C01E5
:1019E000EB016C817D81FC01758364830E94D70CBF
:1019F000F80180819181009721F0688179810E94AE
:101A0000B213DF91CF911F910F9108950F931F9300
:101A1000CF93DF938C01EB016115710511F4CBEBD2
:101A2000D1E0FE0101900020E9F73197EC1BFD0B9E
:101A3000D8011596FC93EE931497C801BF010E943C
:101A4000D70CF80180819181009719F0BE010E94A6
:101A5000B213DF91CF911F910F9108950E94190B3E
:101A60000E947D050E946C05FDCF0F931F93CF93BD
:101A7000DF938C01EB0109C02196D801ED91FC9117
:101A80000190F081E02DC801099568816623A1F7D6
:101A9000DF91CF911F910F910895EF92FF920F93D5
:101AA0001F93CF93DF938C017B01EA010CC0D70118
:101AB0006D917D01D801ED91FC910190F081E02DB7
:101AC000C80109952197209791F7DF91CF911F9138
:101AD0000F91FF90EF900895DC01ED91FC91028051
:101AE000F381E02D099508952F923F924F925F92D6
:101AF0006F927F928F929F92AF92BF92CF92DF921E
:101B0000EF92FF920F931F93DF93CF93CDB7DEB782
:101B1000A0970FB6F894DEBF0FBECDBF1C016A01BF
:101B20007B01411551056105710549F440E350E021
:101B300060E070E020E030E00E941D0E56C0882476
:101B400099245401422E55246624772401E010E0A4
:101B50000C0F1D1F080D191DC701B601A30192012D
:101B60000E946111F80160830894811C911CA11CE2
:101B7000B11CC701B601A30192010E946111C90104
:101B8000DA016C017D01C114D104E104F104F1F624
:101B900081E0E82EF12CEC0EFD1EE80CF91C3E0154
:101BA0000894611C711CD501C4010197A109B109F8
:101BB0006C01C818D90816C0F601EE0DFF1D408152
:101BC0004A3010F4405D01C0495C552747FD5095EF
:101BD000652F752FC10120E030E00E941D0E089492
:101BE000E108F1086E147F0439F7A0960FB6F89457
:101BF000DEBF0FBECDBFCF91DF911F910F91FF9040
:101C0000EF90DF90CF90BF90AF909F908F907F909C
:101C10006F905F904F903F902F900895DC012115B9
:101C2000310541F4ED91FC910190F081E02D642F9C
:101C3000099508950E94740D0895EF92FF920F93F5
:101C40001F93CF93DF93EC017A018B0121153105AE
:101C500041F4E881F9810190F081E02D642F09952C
:101C60001BC02A303105B1F477FF10C04DE250E0BF
:101C700060E070E020E030E00E941D0E10950095BD
:101C8000F094E094E11CF11C011D111DCE01B8017E
:101C9000A7012AE00E94740DDF91CF911F910F914F
:101CA000FF90EF900895EF92FF920F931F937B01A7
:101CB0009A010027F7FC0095102FB801A7010E9498
:101CC0001D0E1F910F91FF90EF9008950F931F939A
:101CD0008C014DE050E060E070E020E030E00E94D8
:101CE0001D0EC8014AE050E060E070E020E030E006
:101CF0000E941D0E1F910F9108959F92AF92BF9267
:101D0000CF92DF92EF92FF920F931F93CF93DF93C7
:101D1000EC017A018B01922ECB01BA0120E030E078
:101D200040E050E00E947C0F88236CF4CE014DE22D
:101D300050E060E070E020E030E00E941D0E17FBF4
:101D4000109517F91095AA2420E030E040E05FE3F9
:101D50000BC0CA01B90120E030E040E251E40E942A
:101D6000800F9B01AC01A394A91498F3C801B7019B
:101D70000E94180F5B016C010E94ED0F7B018C012A
:101D8000CE01B801A7012AE030E00E940E0E992092
:101D900029F0CE016CEB71E00E946C0DC801B70117
:101DA0000E9419109B01AC01C601B5010E94170FDA
:101DB00022C020E030E040E251E40E94CB107B01E1
:101DC0008C010E94E80F5B016C01CC24B7FCC0942D
:101DD000DC2CCE01B601A5012AE030E00E941D0EE8
:101DE000C601B5010E941B109B01AC01C801B701DF
:101DF0000E94170F9A949920E1F6DF91CF911F91DD
:101E00000F91FF90EF90DF90CF90BF90AF909F9099
:101E100008950E947D0E08950F931F938C010E94D8
:101E20007D0EC8010E94660E1F910F9108955058B3
:101E3000BB27AA270ED075C166D130F06BD120F038
:101E400031F49F3F11F41EF45BC10EF4E095E7FB03
:101E500051C1E92F77D180F3BA176207730784075E
:101E6000950718F071F49EF58FC10EF4E0950B2ED6
:101E7000BA2FA02D0B01B90190010C01CA01A001DC
:101E80001124FF27591B99F0593F50F4503E68F137
:101E90001A16F040A22F232F342F4427585FF3CF78
:101EA000469537952795A795F0405395C9F77EF449
:101EB0001F16BA0B620B730B840BBAF09150A1F092
:101EC000FF0FBB1F661F771F881FC2F70EC0BA0F18
:101ED000621F731F841F48F4879577956795B795A0
:101EE000F7959E3F08F0B3CF9395880F08F0992798
:101EF000EE0F979587950895D9D008F481E008955D
:101F00000CD00FC107D140F0FED030F021F45F3F7C
:101F100019F0F0C0511139C1F3C014D198F39923CD
:101F2000C9F35523B1F3951B550BBB27AA2762179D
:101F30007307840738F09F5F5F4F220F331F441FE2
:101F4000AA1FA9F333D00E2E3AF0E0E830D091501A
:101F50005040E695001CCAF729D0FE2F27D0660F07
:101F6000771F881FBB1F261737074807AB07B0E846
:101F700009F0BB0B802DBF01FF2793585F4F2AF05C
:101F80009E3F510568F0B6C000C15F3FECF3983E3C
:101F9000DCF3869577956795B795F7959F5FC9F7B9
:101FA000880F911D9695879597F90895E1E0660F42
:101FB000771F881FBB1F621773078407BA0720F0BB
:101FC000621B730B840BBA0BEE1F88F7E095089524
:101FD00004D06894B111D9C00895BCD088F09F573F
:101FE00090F0B92F9927B751A0F0D1F0660F771F65
:101FF000881F991F1AF0BA95C9F712C0B13081F045
:10200000C3D0B1E00895C0C0672F782F8827B85F8C
:1020100039F0B93FCCF3869577956795B395D9F7A5
:102020003EF490958095709561957F4F8F4F9F4FAF
:102030000895E89409C097FB3EF4909580957095BB
:1020400061957F4F8F4F9F4F9923A9F0F92F96E904
:10205000BB279395F695879577956795B795F11179
:10206000F8CFFAF4BB0F11F460FF1BC06F5F7F4F16
:102070008F4F9F4F16C0882311F096E911C0772328
:1020800021F09EE8872F762F05C0662371F096E831
:10209000862F70E060E02AF09A95660F771F881F00
:1020A000DAF7880F9695879597F90895990F0008A4
:1020B000550FAA0BE0E8FEEF16161706E807F9071A
:1020C000C0F012161306E407F50798F0621B730BB5
:1020D000840B950B39F40A2661F0232B242B252B36
:1020E00021F408950A2609F4A140A6958FEF811DD9
:1020F000811D089597F99F6780E870E060E008957A
:102100009FEF80EC089500240A941616170618060F
:102110000906089500240A941216130614060506EB
:102120000895092E0394000C11F4882352F0BB0F7C
:1021300040F4BF2B11F460FF04C06F5F7F4F8F4FDF
:102140009F4F089557FD9058440F551F59F05F3F1A
:1021500071F04795880F97FB991F61F09F3F79F0C9
:1021600087950895121613061406551FF2CF46954B
:10217000F1DF08C0161617061806991FF1CF8695CD
:102180007105610508940895E894BB2766277727B1
:10219000CB0197F908950BD0C4CFB5DF28F0BADF93
:1021A00018F0952309F0A6CFABCF1124EECFCADFEC
:1021B000A0F3959FD1F3950F50E0551F629FF0015A
:1021C000729FBB27F00DB11D639FAA27F00DB11DB3
:1021D000AA1F649F6627B00DA11D661F829F22273C
:1021E000B00DA11D621F739FB00DA11D621F839FC3
:1021F000A00D611D221F749F3327A00D611D231F99
:10220000849F600D211D822F762F6A2F11249F57E6
:1022100050408AF0E1F088234AF0EE0FFF1FBB1F09
:10222000661F771F881F91505040A9F79E3F5105A8
:1022300070F060CFAACF5F3FECF3983EDCF3869559
:1022400077956795B795F795E7959F5FC1F7FE2B53
:10225000880F911D9695879597F90895629FD001F3
:10226000739FF001829FE00DF11D649FE00DF11D51
:10227000929FF00D839FF00D749FF00D659FF00D00
:102280009927729FB00DE11DF91F639FB00DE11DED
:10229000F91FBD01CF0111240895AA1BBB1B51E1F9
:1022A00007C0AA1FBB1FA617B70710F0A61BB70BC6
:1022B000881F991F5A95A9F780959095BC01CD016B
:1022C0000895A1E21A2EAA1BBB1BFD010DC0AA1F77
:1022D000BB1FEE1FFF1FA217B307E407F50720F08F
:1022E000A21BB30BE40BF50B661F771F881F991F0A
:1022F0001A9469F760957095809590959B01AC0153
:10230000BD01CF01089597FB092E05260ED057FD7C
:1023100004D0D7DF0AD0001C38F450954095309592
:1023200021953F4F4F4F5F4F0895F6F79095809559
:10233000709561957F4F8F4F9F4F0895EE0FFF1F50
:102340000590F491E02D0994CF93DF93BC01823086
:10235000910510F462E070E0A0917003B0917103F8
:10236000ED01E0E0F0E040E050E021C0888199819B
:102370008617970769F48A819B81309719F09383B8
:10238000828304C09093710380937003FE0134C074
:102390006817790738F44115510519F08417950726
:1023A00008F4AC01FE018A819B819C01E901209720
:1023B000E9F641155105A9F1CA01861B970B04974F
:1023C00008F4BA01E0E0F0E02AC08D919C911197E9
:1023D00084179507F9F46417750781F412968D91A7
:1023E0009C911397309719F09383828304C0909344
:1023F000710380937003FD0132964FC0CA01861BA2
:10240000970BFD01E80FF91F6193719302978D936C
:102410009C9343C0FD01828193819C01D901109757
:10242000A1F680916E0390916F03892B41F4809106
:10243000C0019091C10190936F0380936E0340910E
:10244000C2015091C3014115510541F44DB75EB72A
:102450008091BE019091BF01481B590B20916E03E2
:1024600030916F0324173507B0F4CA01821B930B18
:102470008617970780F0AB014E5F5F4F8417950773
:1024800050F0420F531F50936F0340936E03F901B6
:102490006193719302C0E0E0F0E0CF01DF91CF9152
:1024A0000895CF93DF93009709F450C0EC01229771
:1024B0001B821A82A0917003B0917103109709F1E9
:1024C00040E050E0AC17BD0708F1BB83AA83FE01D2
:1024D00021913191E20FF31FAE17BF0779F48D916F
:1024E0009C911197280F391F2E5F3F4F3983288306
:1024F00012968D919C9113979B838A834115510568
:1025000071F4D0937103C093700320C012968D9123
:102510009C911397AD01009711F0DC01D3CFFA0124
:10252000D383C28321913191E20FF31FCE17DF07CE
:1025300069F488819981280F391F2E5F3F4FFA0176
:10254000318320838A819B8193838283DF91CF9122
:102550000895A0E0B0E0EFEAF2E10C9402148C01DF
:10256000009729F4CB010E94A4118C01BAC09EEF00
:10257000E92E9FEFF92EE00EF11E5801A60EB71EB0
:10258000AE14BF0408F4ABC08EEF882E8FEF982EE8
:102590008A0C9B1CE7014881598146175707B8F000
:1025A0004530510508F49DC0CA0104978617970766
:1025B00008F497C042505040461B570BF40151831A
:1025C000408379836883C5010E9451128AC06B01E0
:1025D000C41AD50AE0917003F0917103A0E0B0E055
:1025E000C0E0D0E042C0E815F905A1F520813181B5
:1025F0002C153D0578F1C90102968C159D05A8F0B2
:102600004E5F5F4F420F531FE7015983488322817A
:102610003381109729F013963C932E93129761C043
:1026200030937103209370035CC0225030402C190A
:102630003D0931832083109729F01396FC93EE9384
:10264000129704C0F0937103E0937003F701718354
:10265000608347C080819181C817D90708F4EC01D5
:10266000DF01828193819C01F901309709F0BBCF92
:10267000400F511F80916E0390916F03841795074F
:10268000E9F4C617D707D0F42091C2013091C301F5
:102690002115310541F42DB73EB78091BE019091CF
:1026A000BF01281B390BA216B306C8F4B0926F0302
:1026B000A0926E03E7017983688313C0CB010E9467
:1026C000A411EC01009759F0F70140815181B80144
:1026D0000E949513C8010E9451128E0102C000E0B1
:1026E00010E0C801CDB7DEB7ECE00C941E14FC017D
:1026F00088279927E89421912032E9F3293010F0B6
:102700002E30C8F32B3241F02D3239F4689404C0D6
:102710000E94F413820F911D219120532A30C0F39F
:102720001EF4909581959F4F0895FB01DC0102C036
:1027300001900D9241505040D8F70895FB01DC0103
:102740000D900020E9F7119701900D920020E1F71C
:102750000895FB01DC018D91019080190110D9F3DE
:10276000990B0895FB01DC0101900D920020E1F727
:102770000895DC01FB014150504058F049F00190B0
:102780000D920020C1F7E61BF70B3197CF0108959A
:102790001C9201900020E9F7F6CFFA01A191B081D7
:1027A000009719F41097E1F0CD01DC01CD010D90F7
:1027B000002011F4C00113C0FB012191222319F064
:1027C0002015D9F7F3CFFB012191201519F41E92A2
:1027D000119606C02223C1F70D900020A1F7D00169
:1027E000FA01A193B08308957AE0979F902D879F77
:1027F000802D910D112408952F923F924F925F9258
:102800006F927F928F929F92AF92BF92CF92DF9200
:10281000EF92FF920F931F93CF93DF93CDB7DEB765
:10282000CA1BDB0B0FB6F894DEBF0FBECDBF0994F9
:102830002A88398848885F846E847D848C849B8450
:10284000AA84B984C884DF80EE80FD800C811B815E
:10285000AA81B981CE0FD11D0FB6F894DEBF0FBE8D
:0A286000CDBFED010895F894FFCFFD
:10286A0046464646460030464646460046304646B6
:10287A0046004646304646004646463046004646EC
:10288A0046463000004600300046300030460046DA
:10289A0046464600304646460046304646004646CC
:1028AA0030460046464630004646006164632000D2
:1028BA0020006468743131200070696E006F75748D
:1028CA00006F757470757400696E707574003000ED
:1028DA00310070696E20000A00616463006C6564EF
:1028EA00006F6666006F6E0070776D0072637377B3
:1028FA00697463686F6E0072637377697463686F73
:10290A00666600646874313100696E006C6F770026
:10291A006869676800737461746500002E0020009E
:10292A007203000001000000003D0C350D4D0DE260
:08293A000B0D0CF30B310C0036
:00000001FF
